:020000041000EA
:1000000000B5324B212058609868022188439860DF
:10001000D860186158612E4B002199600221596106
:100020000121F02299502B49196001219960352056
:1000300000F044F80222904214D00621196600F024
:1000400034F8196E01211966002018661A6600F04E
:100050002CF8196E196E196E052000F02FF8012189
:100060000842F9D1002199601B49196000215960AB
:100070001A491B48016001219960EB211966A021F2
:10008000196600F012F800219960164914480160C1
:100090000121996001BC002800D000471248134993
:1000A000086003C880F30888084703B5996A0420EC
:1000B0000142FBD001200142F8D103BD02B5186610
:1000C0001866FFF7F2FF186E186E02BD00000240BE
:1000D000000000180000070000035F00212200005C
:1000E000F4000018222000A00001001008ED00E03C
:1000F00000000000000000000000000074B24E7A12
:1001000000200420F7010010C3010010C5010010F9
:10011000C1010010C1010010C1010010C101001097
:10012000C1010010C1010010C1010010C701001081
:10013000C1010010C1010010C9010010CB01001065
:10014000CD010010CD010010CD010010CD01001037
:10015000CD010010CD010010CD010010CD01001027
:10016000CD010010CD010010CD010010CD01001017
:10017000CD010010CD010010CD010010CD01001007
:10018000CD010010CD010010CD010010CD010010F7
:10019000CD010010CD010010CD010010CD010010E7
:1001A000CD010010CD010010CD010010CD010010D7
:1001B000CD010010CD010010CD010010CD010010C7
:1001C00000BE00BE00BE00BE00BE00BEEFF3058054
:1001D000103800BEF2EB8871308100105881001099
:1001E0003402001090A31AE700201F49086006C8D7
:1001F00081F3088810471D48006800282FD10DA4FE
:100200000ECC002902D000F012F8F9E71849194A7B
:10021000002000E001C19142FCD1174988471749ED
:1002200088471749884700BEFDE701C901C29A42C5
:10023000FBD3704758810010C00000203C03002011
:10024000D48300100000042000000420D483001098
:10025000001004200010042000000000704709482E
:1002600004F086FF0047000008ED00E0000000D029
:1002700040030020CC070020F93E00103503001099
:10028000B53E00105756000006005250ABB3605305
:10029000E47F001006005250861C0302F47F001019
:1002A000060052505422A29D0880001005005250B2
:1002B000DE65F468D4830010F8B5C04610B5064C6E
:1002C0002378002B07D1054B002B02D0044800E017
:1002D00000BF0123237010BD600400200000000057
:1002E000706C0010044B10B5002B03D00349044878
:1002F00000E000BF10BDC046000000006404002004
:10030000706C001010B5012800D010BD054B99424B
:10031000FBD10549054B186805F01BFE044B18601E
:10032000F3E7C046FFFF000000003443380200201E
:1003300090050020F0B595B006F06AF902F0F2FFE2
:100340000623009311330522042113A800F06CF852
:1003500013A800F071F813A800F032F913A800F008
:1003600041F913A800F038FE13A800F021FFFA208D
:10037000C00002F023FF13A907A801F073FC134B80
:100380001C68211C079805F0FAFD061C089B0593C4
:10039000191C201C05F0F3FD071C0999201C05F011
:1003A000EEFD05F05DFE04000D00381C05F058FE62
:1003B00002900391301C05F053FE00900191220041
:1003C0002B00034806F018F9D5E7C0469005002039
:1003D000706C001010B502490120FFF793FF10BDAB
:1003E000FFFF000010B5012800D010BD084B994256
:1003F000FBD10849084B186805F0C1FD074B186090
:100400000449074B186805F0BAFD064B1860ECE785
:10041000FFFF0000D7B35D3F40020020B40400207E
:100420007C040020C007002010B502AC24780170C5
:1004300042708370C47010BD10B50400042001F038
:10044000DBFE052001F0D8FED0231B0610215962E7
:1004500020225A6259615A61E0780D3901F09AFE02
:10046000A078032101F096FEE0780022012101F03E
:10047000A9FEA0780022012101F0A4FE0249034850
:1004800006F062FB10BDC046801A06001003002073
:10049000F0B585B014001D000F226A441170C9B276
:1004A0007F230B4013700A4F39780A4E01230093C3
:1004B000300006F075FB0A2002F080FE3978002338
:1004C00000932B002200300006F076FB05B0F0BD53
:1004D000440200201003002000B585B06B4619735C
:1004E0005A73054B197800230093023303AA03487B
:1004F00006F056FB05B000BD4402002010030020AA
:10050000F0B585B014001D000F226A441170C9B205
:100510007F230B4013700A4F39780A4E0123009352
:10052000300006F03DFB0A2002F048FE3978002337
:1005300000932B002200300006F03EFB05B0F0BD1A
:10054000450200201003002000B585B06B461973EA
:100550005A73054B197800230093023303AA03480A
:1005600006F01EFB05B000BD450200201003002070
:1005700030B585B00F20684401706B469A73CAB2DB
:100580007F23134003700C4D29780C4C01230093FA
:100590000200200006F004FB0A2002F00FFE29787A
:1005A0000023009301330E226A44200006F004FB6E
:1005B0006B46987B05B030BD44020020100300203C
:1005C00010B582B06B46DC1D012322000F21FFF71E
:1005D0005FFF2178024806F00FF802B010BDC04658
:1005E000946C001010B582B06B46DC1D0123220014
:1005F0000F21FFF785FF2178024805F0FDFF02B0CB
:1006000010BDC046AC6C001070B5040038221E212D
:10061000FFF762FF304B1A785201304B1B78DB003A
:100620001A4352B22E4B1B781A43D2B2102120002B
:10063000FFF752FFC82002F0C1FD38221F21200021
:10064000FFF74AFF274B1A785201274B1B78DB0034
:1006500013435BB2254A12781A43D2B204231A43D9
:10066000D2B220212000FFF737FFC82002F0A6FDFC
:10067000442222212000FFF72FFF1D4D2B785B0124
:10068000802252421A4352B21A4B1B789B001A43E3
:1006900052B2D2B220212000FFF756FF164B1A7833
:1006A0005201D2B221212000FFF74EFF0022222169
:1006B0002000FFF749FF2A789200D2B223212000C0
:1006C000FFF742FF402224212000FFF73DFF0B48A7
:1006D00005F062FF70BDC0463F020020C507002044
:1006E0003E0200203D020020C40700203C02002002
:1006F0004602002047020020C6070020C46C0010FC
:10070000F0B5DE4657464E464546E0B58FB0070089
:100710008B4691460023D04A11680B9191880BAA11
:100720009180089309930A930593069307933822BF
:100730001E21FFF7D1FEC94B1A785201C84B1B7816
:10074000DB001A4352B2C74B1B781A43D2B21021B6
:100750003800FFF7C1FEC82002F030FD38221F210B
:100760003800FFF7B9FEC04B1A785201BF4B1B7817
:10077000DB0013435BB2BE4A12781A43D2B20423A1
:100780001A43D2B220213800FFF7A6FEC82002F09B
:1007900015FD442222213800FFF79EFE2F2402ABD4
:1007A0009C4664440123220023213800FFF770FE99
:1007B000227802231A43D2B223213800FFF78CFE9D
:1007C000322002F0FBFC3F222E213800FFF784FE8E
:1007D000FA20800002F0F2FC00222F213800FFF7FF
:1007E000C7FE824683B2984600262DE003AD002363
:1007F0002B806B80AB800BAC0633220018213800B5
:10080000FFF746FE63781B022178194309B229805D
:10081000E3781B02A2781A4312B26A806079000260
:10082000237903431BB2AB80089884466144089146
:10083000099901918C46624409920A9A0192944660
:1008400063440A930136B6B24645CFD35146089861
:1008500004F0BAFC040008905146099804F0B4FC76
:100860000600099051460A9804F0AEFC05000A9073
:10087000200005F0C3FB7F4C216805F080FB5B4640
:100880001860300005F0BAFB2468211C05F077FBE6
:100890005B465860280005F0B1FB011C201C05F0E8
:1008A0006EFB5B4698602E2402AB9C466444012399
:1008B000220023213800FFF7EBFD227802239A4320
:1008C00023213800FFF708FE322002F077FC0022D7
:1008D0002E213800FFF700FE2D2402AB9C46644415
:1008E0000123220023213800FFF7D2FD22780223C2
:1008F0001A43D2B223213800FFF7EEFD322002F076
:100900005DFC3F222E213800FFF7E6FDFA20800033
:1009100002F054FC00222F213800FFF729FE824606
:1009200083B2984600262DE003AD00232B806B8018
:10093000AB800BAC0633220028213800FFF7A8FD5E
:1009400063781B022178194309B22980E3781B02DE
:10095000A2781A4312B26A806079000223790343B5
:100960001BB2AB80059884466144059106990191BC
:100970008C4662440692079A019294466344079318
:100980000136B6B24645CFD35146059804F01CFC5B
:10099000060005905146069804F016FC05000690E6
:1009A0005146079804F010FC041E079045DD324BB9
:1009B000186805F055FB02000B0000202F4904F0D9
:1009C00078FE04F01DFF241A0794300005F016FB92
:1009D000294C216805F0D3FA4B461860280005F031
:1009E0000DFB2468211C05F0CAFA4B465860079895
:1009F00005F004FB011C201C05F0C1FA4B46986071
:100A00000DAC0123220023213800FFF741FD22789D
:100A100002239A4323213800FFF75EFD322002F0C3
:100A2000CDFB00222E213800FFF756FD0FB0F0BCA1
:100A3000BB46B246A946A046F0BD0F4B186805F06C
:100A40000FFB02000B0000200C4904F032FE04F002
:100A5000D7FE24180794B8E7F46F00103F02002077
:100A6000C50700203E0200203D020020C4070020F0
:100A70003C02002034050020800400200000F03FEC
:100A8000F0B5DE4657464E464546E0B58FB0040009
:100A900000230B930C930D93089309930A930593EA
:100AA0000693079302930393049300222421FFF7F4
:100AB00013FD0BAA05A92000FFF722FE0522242121
:100AC0002000FFF709FD08AA02A92000FFF718FE81
:100AD0000599029805F033FA051C039B0093069BC9
:100AE0000193191C009805F02AFA81460498079989
:100AF00005F025FA8246574805F04EFD564F38005E
:100B000005F07AFD281C05F0ABFA02000B00534DEE
:100B1000280005F071FD524B9846180005F06CFD59
:100B2000504E300005F038FD4F4B9B46180005F045
:100B300063FD484605F094FA02000B00280005F01A
:100B40005BFD404605F058FD300005F025FD474BA4
:100B50009946180005F050FD504605F081FA020054
:100B60000B00280005F048FD404605F045FD30002B
:100B700005F012FD0A2005F0DBFC0A2005F0D8FC88
:100B80000B99089805F0DBF9394905F0F8F9061CCE
:100B9000099B00930C9B0193191C009805F0CFF959
:100BA000334905F0ECF982460A980D9905F0C7F92A
:100BB0002F4905F0E4F980462E4805F01DFD380068
:100BC00005F01AFD301C05F04BFA02000B0028005E
:100BD00005F012FD284F380005F00EFD274E3000BD
:100BE00005F0DAFC584605F007FD504605F038FAE6
:100BF00002000B00280005F0FFFC380005F0FCFCAB
:100C0000300005F0C9FC484605F0F6FC404605F00A
:100C100027FA02000B00280005F0EEFC380005F072
:100C2000EBFC300005F0B8FC0A2005F081FC0A203E
:100C300005F07EFC002224212000FFF74DFCC82097
:100C400002F0BCFA0FB0F0BCBB46B246A946A046C3
:100C5000F0BDC046DC6C0010F86C0010046D001094
:100C6000086D0010106D0010346D0010406D001004
:100C700000007A444C6D0010706D0010746D00100F
:100C8000F0B5CE46474680B58DB0070088460023B4
:100C900007930893099305AA13805380938003AAAE
:100CA000138053809380684C23785B0180225242EA
:100CB0001A4352B2654B1B789B001A4352B2D2B210
:100CC0002021FFF741FC624B1A785201D2B2212158
:100CD0003800FFF739FC002222213800FFF734FCEE
:100CE00022789200D2B223213800FFF72DFC402257
:100CF00024213800FFF728FC564805F04DFCFA2067
:100D0000000102F05BFA00261AE00133022B12DC2C
:100D10005A0001A9515E05A8125E914202DD5A00F7
:100D200005A811525A0003A8125E9142EDDA5A004A
:100D300003A81152E9E7692002F040FA0136B6B281
:100D40007F2E1CD801AD00232B806B80AB800AACBA
:100D50000633220028213800FFF7D2FB6278120206
:100D6000237813432B80E2781202A37813436B801D
:100D70006279120223791343AB800023C6E705A9E9
:100D800000228B5E03AA0020165E9B19DE0FF61868
:100D90007610079602200B5E0220155E5B19DD0FB0
:100DA000ED186D1008950423CB5E0424145F1B1905
:100DB000DC0FE41864100994300005F01FF9264B8D
:100DC0009946196805F0DBF843461860280005F0DD
:100DD00015F94B461B689946191C05F0D0F8434697
:100DE0005860200005F00AF9011C484605F0C7F8D4
:100DF00043469860F2B205213800FFF7A5FBB2B276
:100E0000120A06213800FFF79FFBEAB207213800DB
:100E1000FFF79AFBAAB2120A08213800FFF794FBE9
:100E2000E2B209213800FFF78FFBA2B2120A0A21B1
:100E30003800FFF789FB094805F0AEFB0DB0C0BCD8
:100E4000B946B046F0BDC046460200204702002029
:100E5000C6070020986D001058050020D46D0010C2
:100E600010B582B00C0006236A462821FFF710FB5C
:100E70006B465A7812021B78134323806B46DA784C
:100E800012029B78134363806B465A7912021B79D6
:100E90001343A38002B010BD10B582B00C0006232E
:100EA0006A461821FFF7F4FA6B465A7812021B784B
:100EB000134323806B46DA7812029B7813436380D6
:100EC0006B465A7912021B791343A38002B010BDFE
:100ED00010B582B00C0006236A462821FFF710FBEC
:100EE0006B465A7812021B78134323806B46DA78DC
:100EF00012029B78134363806B465A7912021B7966
:100F00001343A38002B010BD0F4B1B78022B15D0EA
:100F100008D8002B0DD0012B0FD10C4BE6229205E7
:100F20001A600AE0032B08D1084BE82292051A60E8
:100F300003E0064BE42292051A607047034BE72258
:100F400092051A60F9E7C046C60700205805002040
:100F50000A4B1B78012B08D0032B0AD0002B00D0A2
:100F60007047074B074A1A60FAE7054B064A1A60B2
:100F7000F6E7034B054A1A60F2E7C046C5070020B2
:100F8000340500200000F53B00007A3C00007A3D6B
:100F90000F4B1B78022B15D008D8002B0DD0012B3E
:100FA0000FD10C4BE82292051A600AE0032B08D1FE
:100FB000084BE62292051A6003E0064BE2229205F6
:100FC0001A607047034BE42292051A60F9E7C046A5
:100FD000C407002080040020F0B5C64600B5804656
:100FE000FFF7D6FF4046FFF7B3FF594805F004FB73
:100FF000584B186805F034F80022574B04F077FB83
:1010000002000B000020554904F053FB02000B00C6
:10101000534C200005F0F0FA524805F0BDFA524852
:1010200005F0EAFA514B186805F01AF800224A4B0D
:1010300004F05DFB02000B000020484904F039FB7E
:1010400002000B00200005F0D7FA494805F0A4FA89
:10105000484C200002F0B2F8474F380005F0CCFAB7
:10106000464805F0C9FA4046FFF70AFD444805F036
:1010700093FA200002F0A2F8380005F0BDFA4148CA
:1010800005F08AFA200002F099F83F4E3F4D3200F9
:1010900029004046FFF734FB0A2005F049FA0A20F0
:1010A00005F046FA3A4805F077FA3A4805F074FA3E
:1010B000306804F0D5FF0022274B04F018FB020033
:1010C0000B00354805F098FA706804F0C9FF00225B
:1010D000214B04F00CFB02000B003049884608004D
:1010E00005F08AFAB06804F0BBFF00221A4B04F046
:1010F000FEFA02000B002A4805F07EFA0A2005F0ED
:1011000017FA0A2005F014FA264805F045FA28686F
:1011100004F0A6FF02000B00234805F06DFA686892
:1011200004F09EFF02000B00404605F065FAA86837
:1011300004F096FF02000B001C4805F05DFA200049
:1011400002F03CF8380005F057FA80BCB846F0BD14
:10115000EC6D00108004002000408F400000F03F44
:10116000046D0010046E0010106E00103405002095
:10117000286E0010DC050000346E00103C6E00107C
:10118000646E00107C6E0010840400204005002076
:10119000CC6E0010E46E0010F86E0010006F0010AE
:1011A000086F0010106F0010246F00102C6F0010DB
:1011B00070B50400FFF7A8FE314805F01DFA314B69
:1011C000186804F04DFF00222F4B04F090FA020043
:1011D0000B0000202D4904F06CFA02000B002C4893
:1011E00005F00AFA2B4805F0D7F92B4801F0E6FF85
:1011F0002A4E300005F000FA294D29002000FFF7A3
:101200003FFD284805F0F8F9286804F029FF00227E
:101210001D4B04F06CFA02000B00234805F0ECF9BA
:10122000686804F01DFF0022174B04F060FA02000A
:101230000B001E4805F0E0F9A86804F011FF002239
:10124000114B04F054FA02000B00194805F0D4F9D0
:10125000FA20C00001F0B2FF300005F0CDF91548CA
:1012600005F09AF92000FFF7CFF9300005F0C4F936
:10127000FA20400001F0A2FF0F4805F08DF970BD83
:10128000346F00105805002000408F400000F03FF0
:101290004C6F0010506F0010DC050000346E001021
:1012A0005C050020606F0010746F00107C6F0010F0
:1012B000846F00108C6F0010C46F0010F0B5DE4614
:1012C00057464E464546E0B59BB080460F1C161C5F
:1012D00008933F4B1A6892465A6893469D68DC68AB
:1012E0005146504604F030FE81465946584604F0B7
:1012F0002BFE0590291C281C04F026FE0190211CC1
:10130000201C04F021FE0C904A4604924946281CF9
:1013100004F035FE0E900199201C04F030FE0F9071
:101320005146504604F02BFE09905946504604F0B1
:1013300026FE0A90291C504604F021FE0D90211C27
:10134000504604F01CFE10905946584604F017FE13
:101350000390291C584604F012FE1190211C584697
:1013600004F00DFE0690291C281C04F008FE0290D3
:10137000211C281C04F003FE1290211C201C04F0E8
:10138000FEFD07904146404604F0F9FD8146391CB8
:10139000381C04F0F4FD011C484604F0D5FD8146DC
:1013A000311C301C04F0EBFD011C484604F0CCFD60
:1013B00004F060FE8146002104F012FE002809D0EE
:1013C0001BB0F0BCBB46B246A946A046F0BDC04625
:1013D000480200204946FE20800504F0BAFD8146FF
:1013E000011C404604F0CBFD14904946381C04F023
:1013F000C6FD15904946301C04F0C1FD1690269993
:10140000081C04F0BCFD061C2799081C04F0B7FD5D
:10141000011C301C04F098FD061C2899081C04F0DF
:10142000AEFD011C301C04F08FFD04F023FE061CF1
:10143000002104F0D5FD0028C2D1311CFE2080051A
:1014400004F087FD061C011C269804F098FD8046D8
:10145000311C279804F093FD071C311C289804F0D8
:101460008EFD81464146049E301C04F088FD179095
:101470000B97391C301C04F082FD18904946301C33
:1014800004F07DFD071C46464146059A9046101C17
:1014900004F075FD19901396311C099804F06FFD46
:1014A000061C1899201C04F06AFD011C301C04F075
:1014B00046FD061C391C281C04F061FD011C301C73
:1014C00004F042FD061C1399039804F058FD011C1A
:1014D000301C04F039FD061C0B99404604F04FFD0A
:1014E000291C04F04CFD011C301C04F02DFD061CD1
:1014F0004946404604F043FD211C04F040FD011C18
:10150000301C04F021FD061C139A9046111C029811
:1015100004F035FD011C301C04F011FD061C414691
:10152000079804F02CFD011C301C04F008FD061C7B
:101530001799201C04F023FD80460B99099804F0AC
:101540001EFD011C404604F0FFFC8046391C584635
:1015500004F015FD011C404604F0F1FC071C19992C
:10156000281C04F00CFD011C381C04F0EDFC071CC9
:101570000B9A9046111C039804F001FD011C381CC5
:1015800004F0DDFC071C4146029804F0F8FC011C45
:10159000381C04F0D9FC071C4946019804F0EFFC04
:1015A000211C04F0ECFC011C381C04F0CDFC071CD1
:1015B0004146079804F0E3FC011C381C04F0BFFC12
:1015C000071C311C301C04F0DAFC061C391C381CCA
:1015D00004F0D5FC011C301C04F0B6FC04F04AFDFC
:1015E0008046179E80273F06BC4666443000291C73
:1015F00004F0C5FC061C1899584604F0C0FC011CF8
:10160000301C04F0A1FC061C4946099804F0B7FC04
:10161000011C301C04F098FC061C1999201C04F0D5
:10162000AEFC011C301C04F08FFC061C49460398DC
:1016300004F0A5FC011C301C04F081FC061C0B9975
:10164000019F381C04F09BFC211C04F098FC011C39
:10165000301C04F079FC061C4946029804F08FFC0B
:10166000011C301C04F06BFC061C4946079804F072
:1016700086FC011C301C04F067FC061C41464046F9
:1016800004F062FC1890311C301C04F05DFC1790D3
:101690008022120694466744069A111C101C04F01E
:1016A00053FC0E9904F04BFC149904F048FC09908B
:1016B000011C381C04F063FC071C0A9A111C101C46
:1016C00004F042FC0F9904F03FFC159904F037FC3C
:1016D00005990E9004F053FC011C381C04F034FCF6
:1016E000071C311C281C04F04AFC0F900299FC20B6
:1016F000800504F024FC079904F021FC414604F025
:101700003EFC07900D99069804F019FC311C04F07A
:1017100036FC011C079804F017FC139904F00FFC29
:101720000790011C0F9804F02AFC011C381C04F0DF
:1017300006FC071C802212064244211C1392101C36
:1017400004F01DFC1490311C584604F018FC159050
:10175000011C149804F0F8FB14901099119804F0EF
:10176000EEFB414604F00BFC109012990A9804F02D
:10177000EBFB311C04F003FC011C109804F0E4FBAB
:101780000B9904F0DCFB0A90011C149804F0F7FBA1
:10179000011C381C04F0D8FB071C4146281C04F02F
:1017A000EEFB0B9006990D9804F0CEFB414604F039
:1017B000E6FB06900399FC20800504F0C0FB02992B
:1017C00004F0BDFB311C04F0DAFB011C069804F0A8
:1017D000BBFB494604F0B3FB8146011C0B9804F0A7
:1017E000CEFB011C381C04F0AFFB06900C99099845
:1017F00004F0C5FB071C04990E9804F0C0FB011C03
:10180000381C04F0A1FB0D908121C905584604F055
:10181000B6FB1090039F391C381C04F095FB011C8B
:10182000FE20800504F08BFB071C029A111C101C83
:1018300004F08AFB011C381C04F081FB169904F0AB
:101840007EFB071C011C109804F099FB011C0D98ED
:1018500004F075FB0290311C201C04F090FB0D90ED
:10186000011C079804F08BFB011C029804F06CFB30
:101870000290311C504604F082FB061C011C0B98A0
:1018800004F062FB011C0A9804F079FB011C029829
:1018900004F05AFB02904146201C04F070FB0390B8
:1018A0001799584604F06BFB011C039804F047FBA2
:1018B000011C484604F063FB011C029804F044FB41
:1018C0000290049A80231B069C46624411000998EA
:1018D00004F055FB03900C990E9804F050FB011C8A
:1018E000039804F031FB03908121C905281C04F002
:1018F00046FB011C381C04F042FB011C039804F059
:101900001EFB071C189A80231B069C466244291C58
:101910000392101C04F033FB311C04F010FB011C7B
:10192000079804F02CFB011C381C04F00DFB071C6D
:101930004146584604F023FB061C011C0D9804F098
:1019400003FB011C0A9804F01AFB011C381C04F06C
:10195000FBFA071C4146504604F011FB80461799DC
:10196000281C04F00CFB011C404604F0E8FA011CA2
:10197000484604F004FB011C381C04F0E5FA8046DC
:101980000599099804F0FBFA071C01990E9804F0D8
:10199000F6FA011C381C04F0D7FA071C211C039826
:1019A00004F0EDFA011C159804F0CEFA011C07981A
:1019B00004F0E5FA011C381C04F0C6FA071C514675
:1019C000139804F0DCFA011C0F9804F0BDFA011C16
:1019D0000A9804F0D4FA011C381C04F0B5FA071C6C
:1019E000311C484604F0CBFA011C381C04F0ACFA58
:1019F000071C069A9146111C101C04F0C0FA061C24
:101A00000299081C04F0BBFA011C301C04F09CFA7B
:101A1000061C41460191404604F0B1FA011C301CFD
:101A200004F092FA061C391C381C04F0A8FA011CB8
:101A3000301C04F089FA04F01DFB011CFE20800517
:101A400004F087FA061C011C484604F098FA814607
:101A5000311C029804F093FA8046311C019804F07E
:101A60008EFA0190311C381C04F089FA0290802211
:101A700012065A441000089904F081FA061C2499B1
:101A8000281C04F07CFA011C301C04F058FA061CD7
:101A90002599201C04F073FA011C301C04F04FFA45
:101AA000FC21890504F06BFA071C6B4B1E68494644
:101AB000301C04F064FA011C381C04F040FA814622
:101AC0000899504604F05BFA071C2599281C04F07D
:101AD00056FA011C381C04F037FA071C2499201C04
:101AE00004F04DFA011C381C04F029FAFC21890588
:101AF00004F045FA071C4146301C04F040FA011C72
:101B0000381C04F01CFA80462499504604F037FA39
:101B1000071C2599584604F032FA011C381C04F0C1
:101B20000EFA071C0899201C04F029FA011C381C25
:101B300004F00AFAFC21890504F021FA071C019936
:101B4000301C04F01CFA011C381C04F0F8F9071CC6
:101B50002599504604F013FA01902499584604F050
:101B60000EFA011C019804F0EFF901900899281C65
:101B700004F005FA011C019804F0E1F9FC21890543
:101B800004F0FDF901900299301C04F0F8F9011CF1
:101B9000019804F0D4F90190304B1E684946301C7E
:101BA00004F0EDF9514604F0CFF981464146301C6E
:101BB00004F0E5F9594604F0C7F98046391C301C99
:101BC00004F0DDF9291C04F0BFF9071C0199301C51
:101BD00004F0D5F9211C04F0B7F9051C4946484624
:101BE00004F0CDF9041C4146404604F0C8F9011C3C
:101BF000201C04F0A9F9041C391C381C04F0BFF99E
:101C0000011C201C04F0A0F9041C291C281C04F051
:101C1000B6F9011C201C04F097F904F02BFA011C02
:101C2000FE20800504F095F9041C011C484604F0D0
:101C3000A6F90B4E3060211C404604F0A0F97060FC
:101C4000211C381C04F09BF9B060211C281C04F0F6
:101C500096F9F060FFF7B4FBB404002028050020DB
:101C600048020020F0B5DE4657464E464546E0B5F0
:101C700097B081460C0001231F220EA98C466244B6
:101C800001212000FEF704FCF74D29002000FFF79A
:101C9000E7F80023E85E04F0B1F9F44B1B689846BE
:101CA000191C04F06CF9F24F396804F048F9F14B53
:101CB00018600223E85E04F0A1F9011C404604F01C
:101CC0005EF9796804F03BF9EB4B18600423E85E99
:101CD00004F094F9011C404604F051F9B96804F08D
:101CE0002EF9E64F386001231F220EA98C4662446C
:101CF00002212000FEF7CCFBE14D29002000FFF778
:101D0000CBF80023E85E04F079F9DE4B1B689B46B4
:101D1000191C04F034F9DC4B9A46196804F00FF9E9
:101D2000DA4B18600223E85E04F068F9011C58469B
:101D300004F025F95346596804F001F9D44B98464C
:101D400018600423E85E04F059F9011C584604F0B9
:101D500016F95346996804F0F2F8CE4B9A4618608B
:101D600001231F220EA98C46624400212000FEF7A9
:101D7000C7FBC94D29002000FFF7AAF80023E85E41
:101D800004F03CF9C54B1C68211C04F0F8F8C44B66
:101D900018600223E85E04F031F9011C201C04F0F5
:101DA000EEF8C04B9B4618600423E85E04F026F969
:101DB000011C201C04F0E3F8BB4C206001F0B2FAD7
:101DC00006900791B94D069807992A686B68801AA2
:101DD000994104F037F9B64904F0BBF8011CB54B42
:101DE0001860069A079B2A606B60B34D286804F060
:101DF000ABF82860B149012200230D684E685219E2
:101E000073410A604B60A14B186804F029F9AC4A91
:101E1000AC4B03F06CFC0022AB4B03F04AFC05001A
:101E20000E004346186804F01BF9A54AA54B03F0C1
:101E30005EFC0022A44B03F03CFC08900991534641
:101E4000186804F00DF99E4A9E4B03F050FC0022E6
:101E50009D4B03F02EFC0A900B912800310003F0FB
:101E6000FFFC051C3F68844B1B689846814B1E682D
:101E7000236804935B461B680393894B1B6880218E
:101E800009068C46634402930A980B9903F0E8FC18
:101E900001900898099903F0E3FC00902B1C3A1C70
:101EA0004146301CFFF70AFA884B1A685B680698AF
:101EB0000799801A994102000B0085490A604B601E
:101EC000002B04D100D048E1012A00D845E1694B3C
:101ED0001868804904F053F81090674B18687D49E2
:101EE00004F04DF81190654B18687A4904F047F8F2
:101EF0001290664B1B689B46654B1B680893654BAD
:101F00001A680A92664B19680D91664B1C680E940C
:101F1000654B1D680F95704C6668B246A768391C02
:101F2000301C04F02CF8051C2668B046E668311C0D
:101F3000404604F024F8011C281C04F005F8011C9C
:101F400004F002F8051C4146404604F018F88046AB
:101F50005146504604F013F8011C404603F0F4FFCC
:101F60008046391C381C04F00AF8011C404603F076
:101F7000E6FF071C311C301C04F001F8011C381C62
:101F800003F0DDFF011C281C04F086F8534D286087
:101F9000E168606803F0F3FF061CA168206803F0A5
:101FA000EEFF011C301C03F0CAFF011C03F0CCFF44
:101FB00004F0FAF880263606B4466044484E306095
:101FC0002768BA466768B846391C504603F0D7FF01
:101FD0001390A768E468211C381C03F0D0FF011C93
:101FE000139803F0B1FF011C03F0AEFF13905146AC
:101FF000504603F0C4FF82464146404603F0BFFF0F
:10200000011C504603F09BFF8046391C381C03F02E
:10201000B6FF011C404603F092FF071C211C201C48
:1020200003F0ADFF011C381C03F08EFF011C139858
:1020300004F032F8071C2B4B98461860306804F007
:102040000FF8294A294B03F052FB03F009FC041C4A
:102050003060286804F004F8234A244B03F047FB5F
:1020600003F0FEFB286043E0900400208004002081
:1020700084040020A8040020AC040020B004002048
:102080004C050020340500204005002038050020C4
:102090003C0500205405002068050020580500205C
:1020A00070050020740500207805002050040020F1
:1020B0000024744928050020A007002058040020AF
:1020C0006E861BF0F9210940008066404003002025
:1020D0004804002000007A4448020020BC07002089
:1020E0007C05002094050020E8C35CB0DDA54C40D1
:1020F0001E4903F024FF061C2860381C03F0B0FFC3
:102100001B4A1C4B03F0F3FA03F0AAFB4746386066
:102110004F463C607E604E46B860109FF760119F4E
:1021200037611298706148465E468661089BC361BC
:102130000A9A02620D9941620E9C84620F9DC562EB
:102140000D4B0699079A19605A600C4B002000212C
:10215000186059600A4B00221A60484617B0F0BC5C
:10216000BB46B246A946A046F0BDC0469A99394141
:10217000E8C35CB0DDA54C404003002058040020BB
:10218000A007002010B502490120FEF72BF910BD71
:10219000FFFF000010B58300084A944663441C68A2
:1021A00040226240C02414408022520113431C602C
:1021B000C000034B9C466044416010BD04C0014018
:1021C0000040014080000B4B9C46604400290DD02C
:1021D0000823002A0CD004221343026853400C2227
:1021E0001340802252011043036070470023F0E740
:1021F0000022F1E704C0014010B501238340D02242
:102200001206936293610521FFF7C4FF10BD000021
:10221000034B1B6802201840431E9841C0B2704710
:1022200000C00640EFF3108072B6034B1B68002B12
:10223000FBD0BFF35F8F70472C0100D0BFF35F8FDF
:10224000024B00221A6080F3108870472C0100D0E6
:10225000F8B506000C001500FFF7E4FFE308F718D7
:10226000F15C07222240012393400B4205D1DBB2EF
:102270000B433B70FFF7E2FFF8BD2100280001F09F
:10228000B7FE0000002307E0054A9A189200BFF34A
:102290005F8F0021116001331F2BF5D97047C046B5
:1022A00040000034054A1078431CDBB21370172B32
:1022B00002D9130010221A707047C046580200203D
:1022C000074B9B68103080001950BFF35F8FBFF33E
:1022D0005F8F044B0021196082F310887047C0465D
:1022E00000ED00E0240100D010B5091A081F0A4BC8
:1022F0009C466144094A914208D8C30706D440105D
:102300004005400D064B184380B210BD054B064AF0
:10231000A321064801F0D2FDFC070000FE0F0000DB
:1023200000E0FFFFFC6F00106C7200102C700010BA
:1023300010B5091A04394C08090B08D14905490D93
:10234000064A11430180064B2343438010BD054BD1
:10235000054AAB21054801F0B1FDC04600F0FFFF82
:1023600000F8FFFF88700010407200102C70001001
:1023700001238340034A10681840431E9841C0B2AD
:102380007047C04600E100E0002904D0034B18600C
:10239000034B18607047034B1860FBE780E200E0D6
:1023A00000E100E080E100E010B501238340180067
:1023B000FFF7EAFF10BD0000024B9B681030800061
:1023C000C058704700ED00E070B504000D00EFF359
:1023D000108672B60C4B1B68002BFBD0BFF35F8FCF
:1023E0002000FFF7E9FF094B984201D0A84205D130
:1023F000320029002000FFF763FF70BD044B054A3F
:102400008621054801F05AFD240100D0CD010010BD
:1024100098700010887200102C700010F0B5CE4635
:10242000474680B583B006000D00EFF3108872B602
:10243000564B1B68002BFBD0BFF35F8F544B9A6841
:1024400034001034A300D758524B9F4207D0AF42FC
:1024500000D198E00197504BFB1A2F2B09D9424627
:1024600039003000FFF72CFF03B0C0BCB946B046BE
:10247000F0BD3000FFF77CFF814600213000FFF700
:1024800093FFBFF35F8FEFF30581002901D08C42EA
:1024900011D10123019C9C430022A368AB4212D0BE
:1024A0000622A256002A0DDB53009B189B00220037
:1024B000394CE418F1E73621384B394AFF313948B5
:1024C00001F0FCFC2200AB4256D106256557002DD9
:1024D00038DB6B005B199A002F4B9B189A68A2603F
:1024E000DA79E27106229A56A2719B795BB2002BCF
:1024F0000FDA2D48A0806B005B199B00264AD31889
:102500002A4A11789971157049463000FFF74CFF3F
:10251000A5E7201D6B005B199B001F4A9B181A1D25
:102520009B88D90A1C2907D15B055B15023359002A
:102530005118FFF7D9FEDDE71D4B1E4AB12119489E
:1025400001F0BCFC002912D1002A0ED0FF239371A8
:10255000194B9380154A1378A371184B0E49641ACE
:10256000644163431B0D1370CEE70A4FF2E7201D51
:102570001349FFF7DDFEC7E76A21124B084AFF3116
:10258000084801F09BFC034F69E7C046240100D0D6
:1025900000ED00E0CD0100105C020020AC710010E5
:1025A000587200102C70001001BD0000C8070020F8
:1025B000947100107872001001BDFFFFAAAA0000FC
:1025C00096020020E071001070B5012101432E4BEE
:1025D000CB1A2F2B28D8EFF30583002B2BD0EFF34A
:1025E000108C72B6294A1268002AFBD0BFF35F8FA5
:1025F000274A0400244D641B64416243120D54B207
:10260000244A92689B00D2588A421BD00022032A97
:1026100032D853009B189B001B49CB189B795BB2A7
:10262000A3421FD00132F2E7C7211B4B1B4A4900CE
:102630001B4801F043FC92211A4B184AFF311848FD
:1026400001F03CFC134A92681749D150174B1A7895
:1026500082711C70BFF35F8F0C4B00221A608CF3E9
:10266000108870BD0D005300991889006918FF2665
:102670008E710F4A8A80E9E7D1210E4B074A490043
:10268000074801F01BFCC0465C020020240100D07A
:10269000AAAA000000ED00E0E8710010247200100A
:1026A0002C70001010720010CD010010C80700201F
:1026B00001BDFFFF1C7200100022044B02E0044920
:1026C00002C30132072AFAD97047C04600E400E08D
:1026D00080808080024B9C46614489000160704785
:1026E0004000003410B50400FFF7DCFD01002000BD
:1026F000FFF7F0FFFF232371BFF35F8F10BD10B50D
:102700000400FFF7CFFD01002000FFF7E3FFFF23E8
:10271000237100236371BFF35F8F10BD70B5050097
:102720000C00080000F0FEFE0949200000F03EFE0B
:10273000FFF7B8FD074B9C466044800068602C752D
:10274000D0231B061B786B75A400034BE55070BDAE
:10275000612A001040000034800500200A4B1A68EE
:10276000EFF3108172B61368002BFCD0BFF35F8FBC
:10277000054B1B68BFF35F8F00221A6081F310883E
:1027800040BF0020002170479C07002010B50029A1
:1027900022D003681B7B99421ED8174B9C4661448C
:1027A000090183689C4661440C684968002A19D075
:1027B00003681B7B9A4215D883680F48844662449D
:1027C00012019A1810685368020001208B4201D848
:1027D0000ED00020C0B210BD084B094A3C21094868
:1027E00001F06CFB054B064A3C21064801F066FBF4
:1027F000A242EFD8EDE7C046FFFFFF0F587400106C
:10280000D87600100474001010B500291ED0037B88
:1028100099421BD84B005B18033B0468A4466344F1
:10282000002919D0002A1DD0914221D0002A25D09C
:10283000047BA24222D80468500080180338201874
:102840008170197800291FD11A7010BD104B114AE0
:102850006821114801F032FB104B114A6F310E48CC
:1028600001F02CFB0F4B0E4A70210B4801F026FBA8
:102870000D4B0B4A7121084801F020FB044B054A1F
:102880006821054801F01AFB41701A70DDE7C04667
:102890007C740010447700109874001000750010CC
:1028A000207700100C7500101875001070B5060028
:1028B0000D001400002914D0002A14D08068736819
:1028C0009847002806D0220029003000FFF79CFF1F
:1028D000280007E02A0021003000FFF795FF2000C4
:1028E00000E0100070BD0800FCE70000F0B583B008
:1028F0000500009201930AAB1C780BAB1F78002CEB
:1029000026D003685A7B944207D10123002B19D1AA
:10291000002C3BD1200003B0F0BD002C0CD01A7B62
:10292000944209D81A6863001B19033BD3189B789B
:10293000002BEBD00123E9E73E4B3F4A68213F489B
:1029400001F0BCFA3E4B3F4A67213F4801F0B6FA1E
:1029500003689C7B002CDBD012D01A7B94420FD8EA
:1029600062001219033A19688C46624451789973CF
:10297000002900D1D9730023937053701370C7E7F7
:102980002C4B2D4A68212D4801F098FA002C3AD0A2
:102990002B681B7B9C4236D82C4BE3181B01AA6882
:1029A00094466344009A1A60019A5A60089A9A60A1
:1029B000099ADA602E68002C2BD030D0337B9C42F1
:1029C0002DD863001B19033B3268944663440022F0
:1029D0009A705A701A70717B22003000FFF766FF00
:1029E0007073844200D095E7287D009A019B00F027
:1029F00025FD061E01D0002F17D00C9B002B00D107
:102A000088E71E7086E7124B124A3C210E4801F0FF
:102A100055FA114B114AA521084801F04FFA054B10
:102A2000054A6821054801F049FA2868210000F0AC
:102A30003DFFE2E77C7400104477001098740010AA
:102A4000307500105077001004740010FFFFFF0F66
:102A500058740010D87600100074001034770010FD
:102A6000F0B5DE4657464E464546E0B58BB0099078
:102A7000002308938200B54BD658370052E0B44B80
:102A8000B44A3F21B44801F019FAB44BB44A3C218E
:102A9000B44801F013FA002901D1002869D10021BE
:102AA000404600F0F9FEA04219D12A686B680692F0
:102AB0000793AB689846EB689A464346002B14D0C0
:102AC000002C18D03B681B7B9C4214D8631EFA680C
:102AD000D35C08931B0218433861002015E0A24B19
:102AE000A24A8E219F4801F0E9F9A14B9F4A922109
:102AF0009C4801F0E3F9994B9E4A4121994801F025
:102B0000DDF900239A46984600207B68BFF35F8F6B
:102B100000221A6086F310884346002B32D1002829
:102B200000D10CE100F0FEFB02000B1EA7DB002031
:102B30000021069007917868EFF3108672B601685D
:102B40000029FCD0BFF35F8F396888464C7B002C8E
:102B5000D7D09AD0097B8C4297D8874965182D0128
:102B6000B9688C46654428686968801A99410029CB
:102B700091DD2A686B68099800F060FC00239A4692
:102B80009846C2E7089B1B0223439946514618000A
:102B9000C04705000E007A68EFF3108B72B6136819
:102BA00059424B41D9B2002BF9D1BFF35F8F002EB0
:102BB0001EDB002E46DD3B69002B47D04B456DD117
:102BC00000F0B0FB02000B1E6EDB52197341002BAC
:102BD00070DB002B72DB0021049101310391029420
:102BE00051460191414600913800FFF77FFE4CE0CD
:102BF0003B69002BDDD04B4514D1069A079B521B35
:102C0000B341002B14DB002B16DB002104910131B2
:102C10000391029451460191414600913800FFF71B
:102C200065FE32E0554B514AA1214E4801F046F96C
:102C300001225242524BE6E7454B464A3F21464865
:102C400001F03CF9002E01D1002DB4D13B68002CDD
:102C500050D05A7B944237D1012100294AD1DA7BE6
:102C6000002A4DD19A7B002A03D1DA7B002A5AD15F
:102C70009C73DC73002C5CD03B681B7B9C4258D857
:102C8000FA68013C135D0133135500233B617A68F8
:102C9000BFF35F8F13608BF3108843E7374B334AE2
:102CA000A421304801F00AF9294B2A4A3F212A4839
:102CB00001F004F901225242314B8AE7244B254AA4
:102CC0003F21254801F0FAF8002C0DD01A7B9442E0
:102CD0000AD862001219033A18688446624492784E
:102CE000002ABAD00121B8E7264B274A6821274895
:102CF00001F0E4F8264B274AF621244801F0DEF8DB
:102D0000002A0AD0197B8A4207D851008A18033A50
:102D100019688C4662445470A4E71A4B1A4A682119
:102D20001A4801F0CBF81C4B1A4AFB21174801F056
:102D3000C5F80A4B0F4A41210A4801F0BFF80BB011
:102D4000F0BCBB46B246A946A046F0BD80050020B7
:102D500014730010A4760010307300105874001023
:102D6000D87600100474001058750010BC7600105E
:102D700070750010FC760010FFFFFF0F7C750010CF
:102D8000FFFFFF7F7C7400104477001098740010E0
:102D9000B875001010770010DC75001010B50C4BE2
:102DA0005B68002B04D00A210A48FFF793FC10BD92
:102DB000074C2300084A1021206800F07DFC032006
:102DC00000F0A4FA03212000FFF7A8FCEBE7C046BF
:102DD000A40200209C0700208D27001010B5064B90
:102DE0005B68002B01D0044810BD044B044A5E21EF
:102DF000044801F063F8C046A4020020F0750010FA
:102E0000E476001004740010F0B5DE4657464E46D6
:102E10004546E0B58BB0804616001F00149B9A46CD
:102E2000159B994616AB1B789B461F2302AA944616
:102E3000634400221A702BE0002809D04246126831
:102E4000127B904204D8421E4146C9688A5C41E028
:102E5000404B414A4121414801F030F807984CE08D
:102E6000361BAF41002F07DB002F11DA3C4B3D4AE8
:102E70003F213D4801F022F8012676423B4FF3E71F
:102E8000374B384A3F21384801F018F8002F4FDB04
:102E900043465A68EFF3108472B6136859424B41A7
:102EA000D9B20791002BF8D1BFF35F8F1F3302AA6D
:102EB0009446634404930023039302934B46019387
:102EC0005346009332003B004046FFF70FFD031EC0
:102ED000B2D1020041464968BFF35F8F00250D6003
:102EE00084F31088002B29D01F2302A98C46634449
:102EF0001B78002BB2D112021043002B20D05B466E
:102F0000002B1DD04946D04704000D0003000B43A1
:102F10001DD00029A4DB00F005FA06000F1EAFDB70
:102F200036196F41002FB1DA012676420F4FADE717
:102F30000B4B0C4A3F210C4800F0C0FF01204042DF
:102F40000BB0F0BCBB46B246A946A046F0BD079800
:102F5000F6E7C04658740010FC76001004740010A8
:102F600014730010A476001030730010FFFFFF7F71
:102F7000F8B50400002900D162E04268EFF3108543
:102F800072B6136858424341D8B2002BF9D1BFF34F
:102F90005F8FCBB22268567BB3421BD10120002841
:102FA00048D0206988422BD0090AC9B2002B2ED004
:102FB0002068007B83422AD8581EE668305C88422D
:102FC0002BD000206368BFF35F8F00221A6085F367
:102FD0001088F8BD002B0DD0167BB3420AD85E00D6
:102FE000F618033E1768BC466644B678002ED6D065
:102FF0000120D4E7134B144A6821144800F05EFF07
:103000002C21134B134AFF31134800F057FF134B89
:10301000134A4121104800F051FF1900100000F040
:1030200045FC0028CED199210E4B0A4A49000A4896
:1030300000F044FF23698B42C4D100232361C1E720
:103040000020C6E77C7400104477001098740010CC
:10305000147600108C760010047400105874001060
:10306000FC76001038760010F0B587B006000F002F
:10307000EFF30583002B1FD106246442E517A41942
:103080007D418D4202D803D1844201D9002400251C
:10309000002D14DB0494059500F044F902000B1E8A
:1030A00013DBA41A9D41002D17DC14D03000390029
:1030B00000F044F907B0F0BD234800F099FF234B1E
:1030C000234A3F21234800F0F9FE204B204A3F21AC
:1030D000204800F0F3FE002CE8D0FFF77FFE00232D
:1030E000029301931C4B0093049A059BFFF78CFEFF
:1030F000002818DADAE7002300E00023002BD5D1FE
:10310000164B1A68EFF3108172B61368002BFCD0CF
:10311000BFF35F8F114B1B68BFF35F8F00221A60F4
:1031200081F3108820BF0499059A0D4B5B6A9A427F
:10313000E3D80B48806A884203D29A42DBD001234D
:10314000DCE70123DAE7C0463C7600101473001078
:10315000A4760010307300105D2700109C0700203B
:103160000040054070B504000D0000F0DBF80200DF
:103170000B1E0ADB200029008018594100290ADBB8
:1031800000290CDBFFF770FF70BD084B084A3F2198
:10319000084800F093FE012040420749F0E7034B46
:1031A000034A3F21034800F089FEC0461473001013
:1031B000A476001030730010FFFFFF7F10B5FA22D5
:1031C00092000023002102F09DFEFFF7CBFF10BD0F
:1031D00070B584B005000C00EFF30583002B1ED101
:1031E000FFF7FCFD002302930193224B00932A007A
:1031F0002300FFF709FE061E23DD20BFFFF7EEFDCB
:103200003100FFF7B5FE1C4B5B6A9C422DD81A4A71
:10321000926AAA422CD29C4225D0012026E0164B6D
:103220005B6A994209D8144A926A824207D299424B
:1032300001D001201AE0002018E0002016E0012053
:1032400014E00D4B5B6A9C4209D80B4A926AAA4271
:1032500007D29C4201D0012008E0002006E00020B7
:1032600004E0012002E0002000E0002004B070BD76
:103270000120FBE75D2700100040054070B5EFF32B
:1032800005801038EFF3108C72B61A4B1B68002BB8
:10329000FBD0BFF35F8F01221300834016494B63BD
:1032A00016490B60164909780C00C440224214D01C
:1032B000114A546A8200134D5259944206D3820037
:1032C000114C125999430E4B197007E00A4A031D1D
:1032D0009B0099589950002200E00022BFF35F8FB5
:1032E000044B002119608CF31088002A00D090470D
:1032F00070BDC046280100D0004005403C7005402C
:10330000C9070020A40700209804002010B5010080
:10331000024A0348FEF79CFF10BDC04668770010C4
:10332000C7070020044B5B6A034A906A1900536A7E
:103330009942F9D17047C04600400540084B5B6A8E
:1033400001E0074B5B6A8B42FBD301E0044B5B6AF5
:103350008B4203D1024B9B6A8342F7D37047C0462E
:103360000040054070B504000D00FFF7DBFF0200D0
:103370000B0020002900801859418B4202D804D14B
:10338000824202D901204042C117002902DBFFF727
:10339000D5FF70BD024B034A3F21034800F08EFD6C
:1033A000147300102C7800103073001070B50400F6
:1033B0000D00EFF3108672B61B4B1B68002BFBD081
:1033C000BFF35F8F002D1CD02000FEF7F5FF174BD9
:1033D00083420BD019002000FEF7F6FF01212000E8
:1033E000FEF7E2FF0123A340114A1360A400114B32
:1033F000E550BFF35F8F0C4B00221A6086F31088F4
:1034000070BDA2000B4B0021D1500122A2400A49FD
:103410000B7893430B7005492000FEF7FFFF002156
:103420002000FEF7C1FFE4E7280100D07D32001044
:103430003860054098040020C9070020F0B5DE463A
:1034400000B584B00400150001921E000293FFF73E
:1034500069FF03958E4202D84ED185424CD9EFF3D5
:10346000108B72B6274B1B68002BFBD0BFF35F8F0E
:10347000254A17780125A540EBB23B431370234B37
:103480005D63221D92000199D150A200204902984B
:1034900050501B6A2B4212D11C4B1B6C2B4208D084
:1034A0000020BFF35F8F174B00221A608BF3108848
:1034B00023E0184B184AC521184800F0FFFCFFF71D
:1034C00031FF8E4214D802D1039B834210D80E4B99
:1034D0001B78BB420ED00D4B1D625D631F20044064
:1034E0000123A3400E4A1360074B1F701E38D8E714
:1034F0000020D6E70120D4E7012004B080BCBB4601
:10350000F0BDC046280100D0C9070020004005409A
:10351000A40700208C77001010780010B0770010FE
:1035200080E200E0EFF3108C72B60B4B1B68002BAF
:10353000FBD0BFF35F8F01238340084A1362084921
:103540000A789A430A70BFF35F8F034B00221A6018
:103550008CF310887047C046280100D00040054019
:10356000C907002010B500291ED0037B99421BD843
:103570004B005B18033B0468A4466344002919D040
:10358000002A1DD0914221D0002A25D0047BA242DE
:1035900022D80468500080180338201881701978E8
:1035A00000291FD11A7010BD104B114A6821114813
:1035B00000F084FC104B114A6F310E4800F07EFC85
:1035C0000F4B0E4A70210B4800F078FC0D4B0B4A54
:1035D0007121084800F072FC044B054A6821054837
:1035E00000F06CFC41701A70DDE7C0467C7400107E
:1035F0004C79001098740010007500103879001094
:103600000C7500101875001070B506000D00140040
:10361000002914D0002A14D08068736898470028C5
:1036200006D0220029003000FFF79CFF280007E0A9
:103630002A0021003000FFF795FF200000E0100075
:1036400070BD0800FCE7000010B500234373013390
:103650008373037BC3730123027B9A4214D9002B2B
:103660000CD0027B934209D85A00D218033A016861
:103670008C4662440133DBB25370EDE70B4B0C4ACE
:1036800068210C4800F01AFC002A09D0924207D8A1
:10369000016853009A18033A8A180023537010BD2A
:1036A000024B034A6821034800F008FC7C740010B8
:1036B0004C7900109874001010B50173426083605B
:1036C000FFF7C2FF10BD000070B50400081E00D156
:1036D00070BD002934D0237B994231D84B005B1850
:1036E000033B2268944663445A78002AF0D02DD0D8
:1036F000237B9A422AD853009B18033B21688C46AF
:1037000063445D7800215970002825D0237B9842BE
:1037100022D843001B18033B21688C4663440021D8
:10372000597001002000FFF76FFF060029002000FC
:10373000FFF7CAFF020031002000FFF765FFC7E76F
:10374000084B094A6821094800F0B8FB054B064AB6
:103750006821064800F0B2FB024B034A6821034887
:1037600000F0ACFB7C7400104C79001098740010D1
:1037700070B505000C00160000292FD034D0037B53
:10378000994231D84B005B18033B0268944663446E
:103790005A78002A2ED19A78002A31D11978FFF769
:1037A00093FF0300002E0AD0EA7B002A2ED1AA7BC9
:1037B000002A03D1EA7B002A3BD1AC73EC73002BC7
:1037C0003DD1002C4FD02B7B9C424CD82B68610004
:1037D0000C19033C1C190023637070BD254B264A4D
:1037E0003821264800F06AFB254B264A68212648E6
:1037F00000F064FB254B204A3A21204800F05EFB94
:10380000234B1D4A3B211D4800F058FB002A0AD0DB
:10381000297B8A4207D851008A18033A29688C46C6
:1038200062445470C3E7164B164A6821164800F0EC
:1038300045FB184B104A4221104800F03FFB002B7B
:103840000BD02A7B934208D843001B18033B2A68FD
:103850009446634400229A70B3E7094B094A6821F1
:10386000094800F02BFB064B064A6821064800F089
:1038700025FBC04644780010247900104C780010D5
:103880007C7400104C79001098740010A07800101F
:10389000C8780010DC75001070B504000A00457B84
:1038A0002900FFF765FF6073280070BD70B5040044
:1038B000002967D0437B8B420ED0002911D0037BB7
:1038C00099420ED84B005B18033B0268D0188378EE
:1038D000002B0CD1002056E00121FFF7DDFF012075
:1038E00051E0294B294A6821294800F0E7FA002BCA
:1038F00020D0227B93421DD85A00D318033B226864
:10390000D2182568EB5C8B421AD0002B1BD0227B8F
:10391000934218D85A00D318033B2268D218537820
:103920008B4216D0002BF0D11A4B1B4A6B211B483F
:1039300000F0C4FA144B154A6821154800F0BEFA8D
:103940004378137007E0104B104A6821104800F0CC
:10395000B5FA43785370002383704370012220002E
:10396000FFF706FF0200617B814205D02000FFF7D0
:103970004BFE6073012006E0094B074A712107489E
:1039800000F09CFA002070BD7C7400104C7900108F
:10399000987400101C7200100C7900104C78001004
:1039A000EC78001070B5046BE30701D4200070BD03
:1039B00002003032C0239B0113430A4A1A60456A51
:1039C000826AAD01AD18AD02062000F0BDF90649CE
:1039D00001F022FC0100280001F01EFC0021FFF78D
:1039E000C1FCE3E7010300004E0E000070B50400C7
:1039F0000E001500FFF7D6FF22002C32E16A4E4080
:103A0000354080235B0113431D60206370BD0000BF
:103A100070B505000C00062000F096F9C0002100EA
:103A200001F0FAFBC60908D00E4B9E4216D87F2340
:103A3000184001303400460800E001246C62AE6298
:103A4000002200212800FFF7D1FF062000F07CF9BA
:103A50008000A101891901F0DFFB70BD0026024C36
:103A6000ECE7C046FEFF0000FFFF000010B505397F
:103A70004901013AD2001143002B09D002220A4326
:103A8000012B07D0002111436E22FFF7AFFF10BDBD
:103A90000022F4E70421F6E7002909D00A22064BA8
:103AA0009C466044434258414000044BC252704718
:103AB00080225200F3E7C0460080FCBFB40700201C
:103AC00070B505000C00062000F03EF9061E27D058
:103AD000164B9D4226D08022D203154B1A60154BFF
:103AE0001A60154B9B6811009943FAD100212800F8
:103AF000FFF7D2FF21002800FFF78AFF060000230E
:103B0000012208212800FFF7B1FF2A002C32802370
:103B10009B01134310221A60084B2B630323AB64F1
:103B2000300070BD80221204D7E7C04600800340F9
:103B300000E0004000F0004000C000400103000031
:103B4000F8B5DE4657464E464546E0B505000F003F
:103B500092460A9A934250D31A0E91461E020A9A2E
:103B600000233000494601F095FB80466C00641943
:103B7000A400304B9C4664446368834200D260607A
:103B80002B1FDBB29B46012B3DD9C0239B01234356
:103B9000802212011A60AB00274A9958002907D0E9
:103BA000506901F039FB431C5800C0180338FDD29E
:103BB00053465A0123685A40E0231A4080235B0190
:103BC00023431A605A46012A28D980239B012343A4
:103BD000802212011A60434663604246002330008F
:103BE000494601F057FBAD00134B58510120F0BC82
:103BF000BB46B246A946A046F8BD104B104A332139
:103C0000104800F05BF9012FBFD1C0239B01234373
:103C100003221A60A368DB07FCD5C9E72168794055
:103C200003220A401A60A2680123BB401342FAD063
:103C3000CBE7C04600800040C00400205879001047
:103C4000CC7900106C79001030B583B00C2000F0F6
:103C500011F9FEF7DDFA00280DD0002304E09900E9
:103C60002D4A2E4888500133092BF8D92A4B2C4A6B
:103C70005A6203B030BD2B4B00229A6700F002F964
:103C8000294B01221A60274B5B6C012BFBD1274B80
:103C900003221A60234B9B6B012BFBD10133009352
:103CA0000433234A0121234800F054F805230093EC
:103CB000214A0121214800F04DF8214B00930022B8
:103CC00002210420FFF73CFF1E4D00952B0000222F
:103CD00001210520FFF734FF104C0094230000223F
:103CE00000210720FFF72CFF009423000022002171
:103CF0000820FFF725FF0A4B009323000022002134
:103D00000920FFF71DFF00952B000022002106204F
:103D1000FFF716FFADE7C046C0040020006CDC02D0
:103D20001BB70000008000403CB0004030B00040B5
:103D3000002F685900800240008C864700C0024076
:103D4000001BB700405973078000014BC0587047F3
:103D5000C0040020F0B5C64600B504000E001700F0
:103D60001D00374801F058FA8046364BFA18364B9A
:103D70009A4239D80100380001F04EFA0200103A98
:103D800098235B009A4235D86B1E062B38D8069BC9
:103D9000013B062B34D83F09474537D32D04069BFA
:103DA0001A0315432368002B36DB284B9C4244D072
:103DB00080225201264B1A60264B1A60264B9B68C4
:103DC00011009943FAD12660A060231DC022920100
:103DD0001A43212313602368002BFCDAE5600823D3
:103DE000136080BCB846F0BD1C4B1D4A11211D4814
:103DF00000F064F81C4B1A4A19211A4800F05EF8CA
:103E00001A4B174A1C21174800F058F8184B144A4F
:103E10002321144800F052F822683F231340B34294
:103E2000C3D1A3681B051B0D8342BED1E368EE22FC
:103E3000D2021340AB42B8D1D3E780229201B9E756
:103E4000001BB70080E84BD380F8A93200C00240C5
:103E500000E0004000F0004000C00040DC790010AD
:103E60001C7B00103C7A0010987A0010B47A001085
:103E7000007B001080239B000343014AD3627047FC
:103E800000800540074BAA2212011A602132FF323E
:103E9000DA60054B054A1A60024B5B68002BFBDABF
:103EA0007047C046004002400060024000B0FA0087
:103EB00000BEFDE710B5FFF7FBFF000010B582B0B4
:103EC0000C001900002A0CD0084B002A0BD00192DC
:103ED000009323000200064802F08EFB0120FFF74A
:103EE000E7FF044BF1E7034AF1E7C046287B0010E7
:103EF000387B0010A86C001070B52B4B2B4A1A6051
:103F00002B4B2C4A1A602C4B9A682A4B9343FAD1BC
:103F10002A4C01E008CC9847294B9C42FAD3FFF782
:103F200093FE234B274A1A60234B9B68DB43DB013C
:103F3000FAD1254B40229A675A671A67DA66234CF2
:103F400009E0234B234A87212348FFF7B7FF2000CE
:103F5000FEF7C8FB0834214B9C4209D22368002B92
:103F6000F5D0012BEDD12000FEF7C9FB0834F2E7B4
:103F70001B4CA1681B4DC022280002F0D7F9A56098
:103F8000EFF30583002B00D000BEFEF77BF9FEF7B0
:103F900093FBFEF703FF144C01E008CC9847134B4A
:103FA0009C42FAD370BDC04600E00040BFCDFBFE8E
:103FB00000F00040FE7F3C0000C0004020030020D5
:103FC00030030020FFFFFF0100F001401803002034
:103FD000687B0010F87B0010887B00102003002015
:103FE00000ED00E000000020300300203C03002032
:103FF0000FB400B583B0084802F0CEFA049B002B42
:1040000007D005A90191180002F0D6FA034802F082
:10401000C3FA0120FFF74CFFE87B0010C06C0010D2
:10402000704710B5002802D00B684968984710BD4A
:104030000100002007E083001B185B00501C086093
:104040001078C01830380A681378303BDBB2092B7F
:10405000F1D97047F0B5DE4657464E464546E0B5C5
:1040600083B093461F000C9B9A460D9C0E9B99466D
:104070000F9B9B0703D0B8460F00060022E0019279
:10408000A34688464E46B9460700B44207D2551C9F
:104090004B4641462020B84701342A00F5E73D0051
:1040A0004F465C46019B9B46B1464646B8463700A4
:1040B0002E0007E0013C551C5346185D434639006D
:1040C000B0472A00002CF5D135003E0047460F9B33
:1040D0009B0707D4100003B0F0BCBB46B246A9460C
:1040E000A046F0BDB0464E46B9462F005D46531B74
:1040F000B342EFD2541C4B4641462020B847220021
:10410000F5E7F0B5CE46474680B585B0944698466B
:104110000C9D0D9C0EAB1B789946109A119B129E1C
:10412000B7071CD4002B0CD0F7070AD54F46002F39
:1041300002D10C37374204D0013B02E030272F5523
:104140000134944201D21F2CF8D9F70707D59C42BD
:1041500005D21F2C03D830272F550134F5E7F70679
:1041600015D5770505D4002C03D0944224D09C4269
:1041700022D00F9A102A2BD00F9A102A30D00F9AE3
:10418000022A35D01F2C02D830222A5501341F2C88
:1041900005D84A46002A31D02D222A5501340396EB
:1041A00002930194009543466246FFF753FF05B022
:1041B000C0BCB946B046F0BD621E012C06D00F9FB0
:1041C000102F01D01400D4E7023CD2E71400D0E74E
:1041D000B206D1D41F2CCFD878222A550134D1E78A
:1041E000B206CCD51F2CCAD858222A550134C9E7AB
:1041F0001F2CC7D860322A550134C3E7720703D594
:104200002B222A550134CAE73207C8D520222A5565
:104210000134C4E7F0B5DE4657464E464546E0B5A4
:1042200093B081468A46089209931CAB10CB1B7849
:104230009B461E9D219B9846002C03D1102342468D
:104240009A4390468023DB0046461E4042461A426F
:1042500012D0002C22D000260EE03033D9B2771CC9
:104260000AAB99552900200000F0D6FFAC4216D3C6
:104270001F2F14D83E0004002900200000F0CCFFBE
:10428000CBB2092BE9D94246920605D54121C9187E
:10429000C9B20A39C9B2E2E76121F8E7270043460B
:1042A0000693209B05931F9B049303955B46029303
:1042B00001970AAB0093099B089A51464846FFF7BD
:1042C00020FF13B0F0BCBB46B246A946A046F0BDE5
:1042D000F0B5DE4657464E464546E0B595B00890E7
:1042E00009910A920B931E9E1F9C20AB1B789B4644
:1042F000229B9946239D269B9A463300234303D154
:10430000103352469A4392468023DB0057461F40A3
:1043100052461A4219D0330023432DD0002714E00F
:104320003033DAB27B1C98460CABDA554A462B0088
:104330003000210000F0AEFFA5421FD819D043463F
:104340001F2B1BD8474606000C004A462B003000A6
:10435000210000F09FFFD3B2092BE1D9524692060B
:1043600005D54122D218D2B20A3AD2B2DAE7612296
:10437000F8E7B145E3D901E0002398465346069398
:10438000259B0593249B04934B4603935B46029322
:10439000434601930CAB00930B9B0A9A099908982A
:1043A000FFF7AFFE15B0F0BCBB46B246A946A0462B
:1043B000F0BD0000F0B5DE4657464E464546E0B536
:1043C00091B083468A460C9298461A9C08941B9D8D
:1043D000099522002B002000290001F0E6F90028B1
:1043E00000D0E5E001225242D74B2000290001F025
:1043F000D7F9002800D0DBE001225242D34B200045
:10440000290001F0B7F9002800D0D1E000220023F4
:10441000089E3000099D290001F0ACF9002800D069
:10442000DDE008980999069007918023DB001E9A29
:104430001A400D921E9A1A4201D106231C93069827
:10444000079904000D000A000600024300D1D1E0E4
:10445000080D4005400DBE4CA44660440A03120BF3
:10446000BC4B13431F0001F0B3F9BB4ABB4B01F037
:104470003EF9BB4ABB4B01F013F904000D000022CA
:10448000B94B3000390001F002F9B84AB84B01F0DD
:104490002EF902000B002000290001F001F901F0C3
:1044A000AFF9814601F094F904000D00B14AB24B16
:1044B00001F01DF90022B14B01F0F2F801F0A0F972
:1044C0000600AF4AAF4B2000290001F010F90400AC
:1044D0000D00300001F07CF9AB4AAC4B01F007F95C
:1044E00002000B002000290001F0D1F804000D00AB
:1044F00002000B0001F0FBF80A900B91A44BF3189B
:1045000000261F0522002B002000290001F0C8F81A
:104510000E900F9122002B0000208021C90501F090
:10452000B6F804000D0000229A4B0A980B9901F08E
:10453000C0F80022984B01F0B3F802000B000A9873
:104540000B9901F0B6F80022944B01F0A9F8020093
:104550000B000A980B9901F0ACF802000B00200048
:10456000290001F09DF802000B000E980F9901F050
:10457000A0F80022774B01F093F832003B0001F0E5
:10458000B6F806000F0004000D00069A079B01F024
:1045900007F9002830D001235B429C46E144002209
:1045A0007D4B3000390001F084F804000D0023E059
:1045B0001E9B04931D9B03931C9B0293089A099BCB
:1045C0000092019343460C9A5146584600F0FCF87D
:1045D00011B0F0BCBB46B246A946A046F0BD0023D0
:1045E000002406930794069680231B069C46654488
:1045F00007951AE7002399464B466333C62B1ED80E
:1046000004261E9B1B0526D52B0023430FD0644A8E
:10461000644B0698079901F0BBF8002879D0002276
:10462000614B0698079901F0A5F8002871D01C9BF2
:104630004B4506DD4A46981A431E1C9303E00526A7
:10464000DFE700231C938023DB001E9A1A431E928F
:104650000026002399461D9B9E4264D29F1B022385
:104660001E9A1A400A921E9A134202D0002E00D0BF
:1046700000274B46002B07D022002B0006980799F5
:1046800001F017F806900791002200230898099975
:1046900001F070F8002848D1444B1E9A134004934F
:1046A00003971C9B0293069B079C0093019443462F
:1046B0000C9A5146584600F087F8002E00D187E743
:1046C0001E9B9B063DD54525441C43460200514692
:1046D0002800D8474B46DA179B185340052205920D
:1046E000013E0496002203920A3202924A46D00FFB
:1046F000019000934346220051465846FFF78AFD39
:104700000A9B002B00D163E702005F460C9E1D9DB3
:1047100054E01C9B002B9ED00D9B002B9BD01C9B20
:10472000013B1C9397E7002799E7069C079D220011
:10473000290080200006844661440B0006920793FE
:10474000AAE76525C0E7C046FFFFEF7FFFFFEFFF49
:1047500001FCFFFF0000F03FFB799F501344D33F63
:10476000B3C8608B288AC63F0000F83F61436F637F
:10477000A787D23F71A379094F930A400000E03F19
:104780001655B5BBB16B0240EF39FAFE422EE63F3B
:10479000FF03000000002C400000244000001840EF
:1047A0002D431CEBE2361A3F80842E41FFF7FFFFBA
:1047B000541C434651462020B8472200931BAB426D
:1047C000F6D3100004E7C046F0B5DE4657464E4625
:1047D0004546E0B595B00690079193469946209FCF
:1047E0001E9A1F9B1000190000F0DFFF002831D136
:1047F00001225242BF4B1E981F9900F0BBFF0028B8
:1048000037D101225242BC4B1E981F9900F0C8FFBD
:1048100000283DD10022B94B1E981F9900F0C0FF1F
:10482000002850D10022B64B1E981F9900F0A2FF1D
:10483000002848D1002200231E981F9900F09AFFFB
:10484000002850D100239846229B5B0500D4B6E097
:10485000002458E0229B0393219B0293032301939E
:10486000A84B00934B465A4607990698FFF7F2FB70
:104870000EE1229B0393219B029304230193A24BFD
:1048800000934B465A4607990698FFF7E3FBFFE073
:104890000423229A1A4022990B4210D09B4B002AE3
:1048A0000FD0042222990391219902910192009341
:1048B0004B465A4607990698FFF7CCFBE8E0944B25
:1048C000EDE70322EEE7229B0493219B03930297DB
:1048D0001E9B1F9C009301944B465A4607990698CD
:1048E000FFF768FDD4E01E9A1F9B0020002100F016
:1048F000CEFE1E901F9101239846A5E70CAB3022F7
:104900001A55013F01341F2C01D8092FF6D81E98E3
:104910001F9900F075FF050000F05AFF02000B0020
:104920001E981F9900F0B3FEFA007A4B9B181A6884
:104930005B680A920B9300F0DAFE0890099100F090
:1049400083FF060000F040FF02000B000898099961
:1049500000F09DFE0890099100226F4B00F020FFAF
:1049600000282ED00136300000F02EFF02000B0090
:104970000A980B9900F004FF002801D001350026A9
:10498000002F2CD1280000F023FF02000B001E98FE
:104990001F9900F07CFE06000F0000225E4B00F025
:1049A000E9FE002846D100225B4B3000390000F0C0
:1049B000F7FE00283ED1EB073CD501353AE006274B
:1049C00046E70022544B0898099900F0D3FE0028CE
:1049D000D6D1002E01D0F307D2D50136D0E7AA46B2
:1049E0001F2C11D8013F0A21300000F015FC651C76
:1049F00030310CAB19550A21300000F00DFC092EA6
:104A00000ED906002C00EBE755461F2C0CD87B1E58
:104A1000002F09D00CAA302111551F000134F4E7F2
:104A20002B0055461C00F0E71F2C03D80CAB2E22A0
:104A30001A5501341F2C10D80A21280000F0C4FB9D
:104A4000661C30310CAB19550A21280000F0BCFB64
:104A5000051E01D03400EDE734000323229A1340F1
:104A6000012B1CD01F2C06D84346002B32D00CAB98
:104A70002D221A550134229B0393219B029301940A
:104A80000CAB00934B465A4607990698FFF7E2FA9B
:104A900015B0F0BCBB46B246A946A046F0BD219B6E
:104AA000002B13D04346002B02D10C3313420FD0FE
:104AB000219B013B2193190003E00CAB30221A55D6
:104AC00001348C42CED21F2CF7D9CBE72199F8E7DD
:104AD0002199F6E7229B5B0704D50CAB2B221A55D4
:104AE0000134C8E7229B1B07C5D50CAB20221A5501
:104AF0000134C0E7FFFFEFFFFFFFEF7F65CDCD4142
:104B000065CDCDC1147C0010187C00100C7C001009
:104B1000087C0010007E00100000E03FF0B5DE468B
:104B200057464E464546E0B593B082468B46904682
:104B30001193002900D1EBE200275546119B18780C
:104B4000002800D1E7E2252809D07C1C43463A0022
:104B50005946A847119B013311932700EEE7013313
:104B600011930024119A11780B00203BD8B2102821
:104B700003D88300D048C3589F460B00303BDBB2BC
:104B8000092B2CD92A292FD000230A93119B1A789C
:104B90002E2A39D000239A46119A1378683BD9B24D
:104BA000122976D88B00C549CB589F4601231C4358
:104BB00001321192D6E702231C4301321192D1E750
:104BC00004231C4301321192CCE708231C43013219
:104BD0001192C7E710231C4301321192C2E711A8BA
:104BE000FFF726FA0A90D1E71C9B1A1D1C92186841
:104BF000002804DB0A90119B01331193C6E70223BE
:104C00001C4343420A93F6E78022D20014435A1C05
:104C100011925A781300303BDBB2092B04D92A2AAF
:104C200007D000239A46B7E711A8FFF701FA82469A
:104C3000B2E71C9B1A1D1C921868002804DB8246F0
:104C4000119B01331193A7E70020F8E780235B0055
:104C50002343511C119152786C2A01D01C0018E09A
:104C6000C0239B001C430131119112E08023234398
:104C7000511C11915278682A01D01C0009E0C02310
:104C80001C430131119104E080235B001C4301327D
:104C90001192119B18780300253BDAB2532A00D9F0
:104CA0002CE29300864AD3589F4680239B001C43E6
:104CB00001321192EDE780235B001C430132119217
:104CC000E7E7782809D0582838D06F2838D06228EC
:104CD00038D010239C430A2600E01026582833D0F1
:104CE000692803D0642801D00C229443630501D5C0
:104CF0000122944369282AD0642828D0A30500D52E
:104D00009FE0E30500D5B8E0630600D4CAE01C9A32
:104D1000111D1C911168FF220A4005940A9B0493FF
:104D200053460393029600230193009243463A00B0
:104D300059462800FFF76EFA070027E01026CDE756
:104D40000826CBE70226C9E720221443C8E7A305BB
:104D500020D4E30550D4630666D51C9A111D1C911E
:104D60001168FF220A40D317D118594005940A9BB5
:104D70000493534603930296D20F01920091434647
:104D80003A0059462800FFF745FA0700119B013306
:104D90001193D3E61C9BDA1D07218A4311000831C9
:104DA0001C91116853689C46DB170C930D930C9A69
:104DB0000D9B100048400E90624653400F930E9892
:104DC0000F990C9A0D9B801A99410E900F9108949F
:104DD0000A9B079353460693049600230593634664
:104DE000DA0F02920090019143463A00594628009A
:104DF000FFF76EFA0700C9E71C9A111D1C91126893
:104E0000D317D118594005940A9B04935346039332
:104E10000296D20F0192009143463A00594628006B
:104E2000FFF7F8F90700B1E7230605D51C9A111D15
:104E30001C910023D25E96E71C9A111D1C911268EA
:104E400091E71C9BDA1D07218A43110008311C9150
:104E500008940A9B079353460693049600230593F0
:104E60000293136854680093019443463A005946EC
:104E70002800FFF72DFA070088E71C9A111D1C91E6
:104E800005940A9B049353460393029600230193CF
:104E90001368009343463A0059462800FFF7BAF9D1
:104EA000070073E723060DD51C9A111D1C9112688B
:104EB0001204120C31E7C046207C0010647C001004
:104EC000B07C00101C9A111D1C91126825E7462821
:104ED0001AD01C9B0733072293431A0008321C92F6
:104EE00004940A9A0392524602925C681B680093EB
:104EF000019443463A0059462800FFF765FC070035
:104F0000119B0133119319E620231C43E1E7672825
:104F100001D0472802D180231B011C43452801D022
:104F2000472801D120231C431C9B073307229343AE
:104F30001A0008321C9204940A9A03925246029272
:104F40005C681B680093019443463A005946280068
:104F5000FFF730FA0700119B01331193EEE50223AE
:104F60001A002240924623421FD001241C9B1A1D86
:104F70001C927A1C9146187843463A005946A84735
:104F80005346002B16D1119B013311934F46D5E5A3
:104F9000561C434659462020B847230032005C1C6B
:104FA0009D42F5D83D001700E0E701233A002F00AD
:104FB0000A9DF4E74A46A9460A9D06E0571C434667
:104FC00059462020C84734003A00661CA542F5D84F
:104FD0004D469146D7E71C9B1A1D1C921B689946AB
:104FE0005346002B00D1013B4E4601E00136130031
:104FF0003278002A02D05A1E002BF7D14B46F21A03
:1050000010928023DB0026001E401C4203D0524534
:1050100001D95346109302231A0022400B922342D7
:1050200005D03A0037004C46A946554620E03A00E4
:10503000109B5F46B3462E0006E0551C43463900E0
:105040002020B04723002A005C1C0A999942F4D81A
:1050500035005E46BB46109437004C46A94655467F
:1050600006E01D000134561C43465946C84732002D
:105070002078002804D0002FF4D06B1E002DF0D132
:1050800017004D460B9B002B03D1119B013311934D
:1050900054E50A9F109B06E0561C434659462020C3
:1050A000A847230032005C1C9F42F5D81700ECE7AC
:1050B00021231C431C9B1A1D1C921B680093059402
:1050C0000823049353460393102302930023019370
:1050D00043463A0059462800FFF79CF80700119B09
:1050E000013311932AE57C1C43463A00594625209A
:1050F000A847119B0133119327001FE57C1C4346F1
:105100003A005946A847119B01331193270015E532
:105110000A4B9A4610E5AA46474502D343465A1E13
:1051200000E03A00434659460020D047380013B00B
:10513000F0BCBB46B246A946A046F0BD21400010D7
:1051400000B585B0029003910121009313004A42FB
:1051500002A90248FFF7E2FC05B000BD23400010A1
:1051600001480421014B1847D00200209151001042
:1051700010B5010018231B8814221088984710BD11
:1051800010B5010018231B8816221088984710BDFF
:10519000F0B5C64600B507000E000025012398466D
:1051A00000E00135B5420AD2AC003C192068FFF797
:1051B000DFFF20600028F4D100239846F1E7404645
:1051C00080BCB846F0BD0000124A936F9B0815D210
:1051D0009066D166002905D0FFE7FFE7FFE7516F32
:1051E000106F704704B580210906C217514000288E
:1051F00000D0C84301F02CFD002104BDF0B5146EB1
:10520000556E576F166FFFF7E3FF146655665767C5
:105210001667F0BD000000D0114A936F9B0813D2AF
:1052200010665166002905D0FFE7FFE7FFE7516FE1
:10523000106F704704B5002801D00020C04301F072
:1052400007FD002104BDC046F0B5146E556E576FC2
:10525000166FFFF7E5FF1466556657671667F0BDD2
:10526000000000D094464A4A926F9208624601D2EA
:1052700028E0C046F0B5464E346E756E776F366FD7
:1052800000F020F89446424A146655665767166740
:105290006246F0BD94463E4A926F9208624601D241
:1052A00054E0C046F0B53A4E346E756E776F366F87
:1052B00000F04CF89446364A1466556657671667F0
:1052C0006246F0BD002B24DB11D000293EDA00B588
:1052D000C943404200D1013100F038F8C94340428F
:1052E00000D10131DB43524200D1013300BD002A1D
:1052F000EBD1002801D1002905D00020C90FC90732
:1053000001D1C043410800B501F09AFC00220023FE
:1053100000BD00B500290ADBDB43524200D1013356
:1053200000F014F8C943404200D1013100BDC94327
:10533000404200D10131DB43524200D1013300F041
:1053400005F8DB43524200D1013300BD002923D1CF
:10535000002B18D1002A0CD0BC460D4F38667A6657
:1053600000210023FFE7FFE7FFE77A6F386F67460A
:105370007047002801D00748010000B501F060FC2B
:105380000022002300BD02000B0000200021704716
:10539000000000D0FFFFFFFF002B00D0BFE0130C88
:1053A00028D1002AE7D080B4114F39667A66FFE72A
:1053B000FFE730B4040C7B6F396F1B0423433B665B
:1053C0007A66FFE7FFE7FFE7C04684B27B6F3D6F79
:1053D0001B0423433B667A66FFE7FFE7C0460023D2
:1053E0002C042D0C7A6F386F00196941B0BC7047DE
:1053F000000000D0F0B594460025140E01D1120231
:105400000835140F01D112010435940F01D1920017
:105410000235D40F01D152000135D40B0134254F90
:105420007C66254C3C660E0C93B2FFE7FFE7FFE776
:105430003C6F6643360C7703BE467343DF0B5B0459
:10544000C01AB941130C7343DB18C91ACE0866435E
:10545000360CB64493B273431F0F1B01C01AB941F7
:10546000130C73431F0B1B05C01AB941860D8F0225
:105470003E436643360C092D24DB520A7243801AE0
:105480007703460A6643360C16235B1BDE40DF407B
:10549000BF1964466643821B70460435063301001B
:1054A000D940A840C01900D30131A24206D200233E
:1054B000F0BD0000000000D0FFFFFFFF121B013015
:1054C000F3D3F1E709277F1BFE406446A2B2724383
:1054D000801A00D20139220C7243130C1204821A72
:1054E00099410B007046043513370100F940A8407C
:1054F000801900D30131002B02D1A2420AD2F0BDA3
:10550000013000D30131121BFAD2013BF8D1A24283
:1055100000D2F0BD013000D30131121BF7E7F0B526
:105520001C0C00D080E00CB400251C0A04D11B0226
:10553000160E3343120208351C0B04D11B01160F43
:105540003343120104359C0B04D19B00960F334367
:1055500092000235DC0B02D192185B4101351C0030
:10556000971864410134464F7C66464C3C660E0CED
:10557000FFE7FFE7FFE7C0463C6F6643360C770363
:10558000BE4697B27743C01B00D20139C01B00D280
:1055900001399FB27743C91BC91B170C77437E049F
:1055A000FF0B801BB941CE086643360C0C2D33DB54
:1055B000B644120B1F053A431B0B97B27743C01B2F
:1055C00000D201399FB27743C91B170C77433E04C1
:1055D0003F0C801BB941860D8F023E43664329274D
:1055E0007F1BFE400C3D7746AF40BF1930BCA2B2D6
:1055F000ABB272437343801A9941220C7243130C6D
:105600001204801A994102000B000137001BA941C6
:10561000F9D2781E0021F0BD0C277F1BFE40774693
:105620007F0BAF40FF19E0E700245D1C07D0144F4B
:105630007D663966FFE7FFE7FFE7FFE73C6F95B25E
:105640009EB265436643401BB141150C1E0C654379
:10565000664336042F0C3E432D04401BB141994252
:1056600004D202000B0020000021F0BD01D19042C5
:10567000F7D3801A994101349942F2D3F6E700003A
:10568000000000D0FFFFFFFF48404140484018B4F1
:105690001B4B5B68FC46019308BD04DF7B5900107F
:1056A00018B4174B1B68FC46019308BD00DF8559F1
:1056B00000109446134A926F920809D2624618B4B9
:1056C0000F4BDB68FC46019308BD0CDF3D5C00100E
:1056D0000C4AF0B5146E556E576F166F6246FFF7A1
:1056E000EEFF084A1466556657671667F0BD18B492
:1056F000034B9B68FC46019308BD08DFE15A00108C
:1057000098050020000000D0FFB5504042405040B6
:1057100059404B40594000E0FFB5154F4C00640D17
:1057200003D0BC4204D10C0314D80020090D090594
:105730005C00640D03D0BC4204D11C030AD80022D3
:105740001B0D1B0501264B4009D44B4003D58B4252
:1057500000D18242FFBD9942FCD19042FFBD0B4374
:10576000DB1803431343F5D0C9434918FFBD0000BC
:10577000FF07000000B5FFF7CFFF804100BDC04626
:1057800000B5FFF7C9FF01D9002000BD012000BD11
:1057900000B5FFF7B9FF01D9002000BD012000BD11
:1057A00000B5FFF7B1FF804100BD012040054A0070
:1057B000121804D85A00121801D80020704701208E
:1057C00070470020704700000021002805D1704775
:1057D000C1174840401AFAD0C90713B5064B1B68D9
:1057E00098470CBC441CA2401005120B0349091B2E
:1057F00009051943114310BD980600201F0400003D
:1058000010B54C00620D8023D218DB00D21A5B0564
:105810007E2A10DD9E3A13DACC1709034908194392
:105820005242D140640001341532202A05DAD040BA
:105830000843604310BD002010BD0846604310BD02
:10584000C80FC018013810BD18B4044B5B6AFC4681
:10585000019308BD24DFED5D0010000098050020D5
:1058600018B4044BDB6FFC46019308BD7CDF6D5E12
:10587000001000009805002070B513231C78012C3F
:1058800014D0012C14DC022C02DC1F4A1F4B9A643A
:105890001F48FFF76DFC1F4B186070BD99001A4838
:1058A0001A4A885001331F2BF8D9EAE70023FAE798
:1058B0001948FFF765FC05001848FFF761FC02383E
:1058C00003789B007F2B19DD802229000F4800F010
:1058D0002DFD022CD7D1124B1A88B5231B029A42F8
:1058E00009D1104B1A88104B9A4204D10F4B1A88D9
:1058F0000F4B9A42C7D00020FEF77AFB0D4B0E4AA1
:1059000032210E48FEF7DAFA4159001098050020BE
:105910004C3300009806002053440000534600001A
:1059200054380000D8380000494600009C38000078
:1059300059460000507E0010087F0010A47E001021
:1059400007B56046002800D100BE01880A0A02306F
:10595000DF2AFAD1C9B2820804D302884088000441
:10596000104300E00068024A5050039007BD000059
:10597000980500200FB403BC0CBCF0B50124E4076B
:10598000634000E0F0B50C0DCF0F661E3605891B95
:10599000640503D3C943404200D30131640D03D0F1
:1059A000661CF60A07D0E41B00207F00791C8907DB
:1059B0008912803C24031D0DDF0F6E1E36059B1BD4
:1059C0006D0503D3DB43524200D301336D0D03D089
:1059D0006E1CF60A07D0ED1B00227F007B1C9B0784
:1059E0009B12803D2D032F1B661B58D4A446202EEE
:1059F00046DA20371400BC401D00BD40F240334160
:105A00002A4380185941CB0F05D0C943C043002217
:105A100064425041514162464D0D28D10D0D07D1D0
:105A200000281FD0241940414941013A0D0DF9D0F9
:105A3000640006D3013000D30131002C01D14008AD
:105A40004000013A0BD4941CE40A04D1120511441D
:105A5000DB071944F0BDD907204B194300E0D907F3
:105A60000020F0BD0029DDD1002CDBD1F0BD0132DA
:105A7000C6074008CD0728434908002EE1D0D9E7E2
:105A80003C2E29DA203E40371400BC4000D00124CF
:105A9000F24014431A00BB401C43D317ACE7AC469A
:105AA000202F08DA20360400B4400D00B540F8403D
:105AB00039412843A5E73C2F0CDA203F403604004B
:105AC000B44000D00124F84004430800B1400C4326
:105AD000C117EAE710001900002494E70000F07FE6
