:020000041000EA
:1000000000B5324B212058609868022188439860DF
:10001000D860186158612E4B002199600221596106
:100020000121F02299502B49196001219960352056
:1000300000F044F80222904214D00621196600F024
:1000400034F8196E01211966002018661A6600F04E
:100050002CF8196E196E196E052000F02FF8012189
:100060000842F9D1002199601B49196000215960AB
:100070001A491B48016001219960EB211966A021F2
:10008000196600F012F800219960164914480160C1
:100090000121996001BC002800D000471248134993
:1000A000086003C880F30888084703B5996A0420EC
:1000B0000142FBD001200142F8D103BD02B5186610
:1000C0001866FFF7F2FF186E186E02BD00000240BE
:1000D000000000180000070000035F00212200005C
:1000E000F4000018222000A00001001008ED00E03C
:1000F00000000000000000000000000074B24E7A12
:1001000000200420F7010010C3010010C5010010F9
:10011000C1010010C1010010C1010010C101001097
:10012000C1010010C1010010C1010010C701001081
:10013000C1010010C1010010C9010010CB01001065
:10014000CD010010CD010010CD010010CD01001037
:10015000CD010010CD010010CD010010CD01001027
:10016000CD010010CD010010CD010010CD01001017
:10017000CD010010CD010010CD010010CD01001007
:10018000CD010010CD010010CD010010CD010010F7
:10019000CD010010CD010010CD010010CD010010E7
:1001A000CD010010CD010010CD010010CD010010D7
:1001B000CD010010CD010010CD010010CD010010C7
:1001C00000BE00BE00BE00BE00BE00BEEFF3058054
:1001D000103800BEF2EB8871808E0010A88E0010DF
:1001E0003402001090A31AE700201F49086006C8D7
:1001F00081F3088810471D48006800282FD10DA4FE
:100200000ECC002902D000F012F8F9E71849194A7B
:10021000002000E001C19142FCD1174988471749ED
:1002200088471749884700BEFDE701C901C29A42C5
:10023000FBD37047A88E0010C0000020BC03002034
:10024000A49100100000042000000420A4910010DC
:10025000001004200010042000000000704709482E
:1002600005F0F0FC0047000008ED00E0000000D0C1
:10027000C003002058080020CD49001035030010AD
:10028000894900105756000006005250ABB3605326
:100290003C8D001006005250861C03024C8D00104D
:1002A000060052505422A29D588D00100500525055
:1002B000DE65F468A4910010F8B5C04610B5064C90
:1002C0002378002B07D1054B002B02D0044800E017
:1002D00000BF0123237010BDE004002000000000D7
:1002E000B0780010044B10B5002B03D0034904482C
:1002F00000E000BF10BDC04600000000E404002084
:10030000B078001010B5012800D010BD054B9942FF
:10031000FBD10549054B186806F085FB044B1860B6
:10032000F3E7C046FFFF000000003443B0020020A6
:1003300014060020F0B5A9B006F0DAFE0F2002F096
:10034000C5FCD0231B06802212025A625A6120ABE0
:1003500004221A710623009311330132042113A8D9
:1003600000F0C4FD13A800F0C9FD13A800F08AFE38
:1003700013A800F099FE13A801F090FBFA24E40002
:10038000200003F085FC13A801F074FC200003F0AA
:100390007FFC304B02931A23019302330093013BFD
:1003A0001D222D4911A800F06BF811A800F00CFCDB
:1003B0000222002111A800F025FA11A800F01DFA70
:1003C00024A911A800F058FD0028F9D12499234848
:1003D00006F082FE249B202BF2D114AD04AC13A9AD
:1003E000200002F0A1F92B0007CC07C307CC07C3FC
:1003F00007CC07C307CC07C3194B1E68311C1498E0
:1004000006F027FB174F38601599301C06F021FBCA
:10041000041C154B18601699301C06F01AFB134D7E
:10042000286021232093229420A911A800F0A4FC85
:10043000222320933B68229320A911A800F09CFC62
:10044000232320932B68229320A911A800F094FC69
:10045000B6E7C04640420F0000000440B0780010EC
:100460001406002000060020480800201C0600207A
:1004700010B502490120FFF745FF10BDFFFF000046
:10048000F0B5C64600B50400080015001E0006AB16
:100490001B78984607AB1F782160089906F09EFFED
:1004A0000121300002F0E0FB0121404602F0DCFBBC
:1004B0000121380002F0D8FB23685A68022002406C
:1004C0001E1DC02189013143086018680721414081
:1004D000CF200840802149010B43186080239B01F5
:1004E00033431A602571280002F0F0FB22790123C2
:1004F00019009140D02212065162C046C046C04643
:1005000021798B405361C046C046C046200080BC64
:10051000B846F0BDF0B583B004000B00C046C0463D
:10052000C0460279012529009140D0273F06B961D4
:10053000C046C046C04601A900220A8003320A70A4
:100540004B70013A006807F0A3F96B46DE1C0123EB
:1005500032000021206807F07BF9C046C046C04643
:1005600023799D407D61C046C046C046307803B0C7
:10057000F0BDF0B5C64600B582B004000800904654
:100580001F00C046C046C046237901252A009A4074
:10059000D0263606B261C046C046C04601A9002337
:1005A0000B8003330B7048700222206807F070F94B
:1005B0003B0042460021206807F04AF9C046C04689
:1005C000C04623799D407561C046C046C04602B012
:1005D00080BCB846F0BDF0B5CE46474680B583B086
:1005E000040088469146C046C046C04603790126AD
:1005F00032009A40D0273F06BA61C046C046C04686
:1006000001AD03220021280006F0FAFB02232B7023
:1006100043466B704B46AB7003222900206807F0FD
:1006200037F9C046C046C04623799E407E61C04629
:10063000C046C04603B0C0BCB946B046F0BDF0B538
:10064000C64600B582B00400080090461F00C046B0
:10065000C046C046237901252A009A40D026360696
:10066000B261C046C046C04601A900230B800233D8
:100670000B7048700222206807F00AF93A004146E0
:10068000206807F005F9C046C046C04623799D4062
:100690007561C046C046C04602B080BCB846F0BDD9
:1006A000F0B583B004000800C046C046C0462179BA
:1006B00001252E008E403100D0263606B161C0469D
:1006C000C046C04601A90027019705370F70487042
:1006D0008A70CB700422206807F0DAF8C046C04662
:1006E000C04623799D407561C046C046C04603B0F0
:1006F000F0BDF0B583B00400C046C046C0460379E3
:1007000001252A009A40D0273F06BA61C046C0465C
:10071000C0466B46D91DA0230B700122006807F06C
:10072000B7F86B469E1D012332000021206807F0B8
:100730008FF8C046C046C04623799D407D61C046C3
:10074000C046C046307803B0F0BD0000F8B50600E2
:100750000C000B00E0220F21FFF7A2FF03F04CFB7F
:10076000002909DB0ED0FA229200002305F0FCFAE2
:1007700005000A35002724E01A4B1B4A3F211B487D
:1007800004F006F9FA21890005F0B0FA0500F0E757
:10079000144B154A3F21154804F0FAF8FA21890054
:1007A00005F0A4FA854217D90E213000FFF7B2FEFA
:1007B0001F239843C0B2271A7B425F41FFB2844295
:1007C0000AD003F019FB0029E2DBE7D0FA229200FD
:1007D000002305F0C9FAE5E7002F01D00020F8BD9D
:1007E0000120FCE7CC780010E87800102079001098
:1007F00010B58021FFF7AAFF10BD10B50021FFF74B
:10080000A5FF10BDF0B5D6464F464646C0B506001A
:100810000D0014000023994698469A46FFF7E8FF1A
:10082000071E0CD1012C00D17AE0022C0DD0002C37
:1008300000D1D5E00400002C00D040E101273800B1
:10084000E0BCBA46B146A846F0BD0F2D66D8AB0055
:10085000A34AD3589F4687239A4638339846A03BED
:1008600099460124E7E787239A4638339846B83BF0
:1008700099460124DFE784239A46203398469D3B1E
:1008800099460124D7E785239A465D3398469B3BDA
:1008900099460124CFE787239A4638339846BC3BD4
:1008A00099460124C7E786239A462E339846B13BE2
:1008B00099460124BFE787239A4638339846BE3BC2
:1008C00099460124B7E786239A462E339846B33BD0
:1008D00099460124AFE785239A462C339846B03BCE
:1008E00099460124A7E7814686239A462E339846E7
:1008F0000124A0E7814685239A462C33984601249B
:1009000099E7814682239A460E339846012492E75E
:10091000814680239A46984601248CE704008AE7A2
:100920000F2D5BD8AB006F4AD3589F4687239A465A
:1009300078339846C03B99467DE787239A467833BB
:100940009846F03B994676E785239A466C3398465D
:10095000A33B99466FE787239A4678339846F83B3E
:10096000994668E787239A4673339846F33B99463E
:1009700061E787239A4678339846FC3B99465AE7C5
:1009800007239A46B7339846BB3B994653E78723DC
:100990009A4673339846F73B99464CE786239A4626
:1009A0006A339846ED3B994645E7A14687239A4628
:1009B000733398463FE785239A466C339846B03B9D
:1009C000994638E7814686239A466A33984632E745
:1009D000814682239A464E3398462CE704002AE744
:1009E000043DEBB20B2B00D925E79D003E4B5B5934
:1009F0009F4687239A4678339846F43B99460124CC
:100A000019E787239A4673339846F13B99460124A8
:100A100011E787239A4678339846FB3B9946012491
:100A200009E787239A4677339846FA3B994601248B
:100A300001E787239A4673339846F63B994601248B
:100A4000F9E687239A4673339846F73B9946012483
:100A5000F1E687239A4678339846FE3B994601246F
:100A6000E9E686239A4675339846BA3B99460124AF
:100A7000E1E6A14687239A46733398460124DAE6D5
:100A8000A14682239A46573398460124D3E62C0088
:100A900087239A4638339846B03B9946CBE62C00DC
:100AA00087239A4678339846E03B9946C3E68723E6
:100AB0009A4678339846F63B99460124BBE64A4667
:100AC0002A213000FFF787FD424629213000FFF739
:100AD00082FD524628213000FFF77DFDAFE6C0467B
:100AE00084790010C4790010047A001010B598B20F
:100AF000002A13D0CB70000A8870180C0322024021
:100B00004A70C0001F24A043C0B21218D2B24A706B
:100B1000082002434A705B0D0B7010BDC0080870BE
:100B20005B014B700023CB708B70F6E7F0B585B09E
:100B300007000D0001921E00FFF75AFE041E02D0AE
:100B4000200005B0F0BD3300019A03A93800FFF77B
:100B5000CDFF002D08D0012D08D12421042303AAA4
:100B60003800FFF76CFDEBE72021F7E70124E7E70A
:100B7000F0B585B005000C0001921F00FFF738FEAC
:100B8000061E1AD1052C1BD8A3000E4AD3589F4627
:100B9000082406E0102404E0142402E0182400E0F5
:100BA00004243B00019A03A92800FFF79FFF0423B8
:100BB00003AA21002800FFF742FD300005B0F0BD78
:100BC0000126FAE7347A001070B588B00400C046F8
:100BD000C046C046037901252A009A40D026360631
:100BE000B261C046C046C0461F216944C0230B7095
:100BF0000122006806F04CFEC046C046C04623797C
:100C00009D407561C046C046C0460A2003F040F8CA
:100C10000E22002104A806F0F3F80E2304AA3021C6
:100C20002000FFF70CFD0E2304AA40212000FFF74F
:100C300006FD0E2304AA50212000FFF700FD00222C
:100C400060212000FFF7C7FC002270212000FFF781
:100C5000C2FCA3222B212000FFF7BDFC0423672246
:100C600060212000FFF71CFD012367227021200076
:100C7000FFF716FD164B1A6802929A8802AB9A800B
:100C80000025052D0DDC6A1E53425A41D2B202AB3B
:100C9000595D00232000FFF76BFF002816D10135B6
:100CA000EFE701AB00221A7001325A70002500E014
:100CB0000135012D09DC01AB595D00230122200023
:100CC000FFF734FF0028F3D000E0002008B070BD2B
:100CD0004C7A0010F0B585B005000E0014001379B1
:100CE000082B3ED81368DA0F8027FF051F40002B22
:100CF00033DB1E490B4069462800FFF7F7FE002F43
:100D00002DD0237940221343DBB26A4613712100B0
:100D1000083122796B46581D06F078F8144F71009F
:100D20008E19BB19597823790533DBB26A4628003E
:100D3000FFF785FCF45D0823082221002800FFF757
:100D4000AFFC21002800FFF7E5FB03007022100034
:100D500018401A4207D105B0F0BD0649CAE7237909
:100D6000D3E70420F7E70420F5E7C046FF070000BB
:100D7000607A0010FFFFFF1FF0B583B006000F0080
:100D80000B79082B1BD801AB0F4A11891980927A75
:100D90009A700024022C14DC01AB1D5D6B005B1902
:100DA0000A4A995C3000FFF7B5FB030701D501340F
:100DB000F0E73A0029003000FFF78CFF02E0042042
:100DC00000E0022003B0F0BD4C7A0010607A001001
:100DD000F0B5C64600B582B006000D0017008A00C7
:100DE000244B9B18597805236A46FFF7C2FB6B46D4
:100DF0001C78E4005B785A09A4181A070ED5A400E1
:100E000003221340E41824026B469B78E418240262
:100E10006B46DB78E41880231B061C436B461B796A
:100E20000F221A409046082A04D9012002B080BC43
:100E3000B846F0BDAB000F4A995C3000FFF76AFB83
:100E4000030702D58023DB051C433C6043463B710E
:100E5000AD0008494D19A9783A0008323000FFF773
:100E600088FBEA7800232C213000FFF719FC0020D2
:100E7000DCE7C046587A001070B504000D00FFF79B
:100E800038FCC30703D4830707D4052070BD2A00AC
:100E900000212000FFF79CFFF8E72A000121200035
:100EA000FFF796FFF2E7000010B5012800D010BD53
:100EB000084B9942FBD10849084B186805F0C9FD59
:100EC000074B18600449074B186805F0C2FD064B34
:100ED0001860ECE7FFFF0000D7B35D3FB8020020C9
:100EE00034050020FC0400204C08002010B502ACA2
:100EF0002478017042708370C47010BD10B5040076
:100F0000042001F0E3FE052001F0E0FED0231B06E3
:100F10001021596220225A6259615A61E0780D39D4
:100F200001F0A2FEA078032101F09EFEE0780022ED
:100F3000012101F0B1FEA0780022012101F0ACFEF8
:100F40000249034806F010FC10BDC046801A060096
:100F500090030020F0B585B014001D000F226A44F4
:100F60001170C9B27F230B4013700A4F39780A4EB3
:100F700001230093300006F023FC0A2002F088FED3
:100F80003978002300932B002200300006F024FC67
:100F900005B0F0BDBC0200209003002000B585B074
:100FA0006B4619735A73054B19780023009302336B
:100FB00003AA034806F004FC05B000BDBC020020F3
:100FC00090030020F0B585B014001D000F226A4484
:100FD0001170C9B27F230B4013700A4F39780A4E43
:100FE00001230093300006F0EBFB0A2002F050FED4
:100FF0003978002300932B002200300006F0ECFB30
:1010000005B0F0BDBD0200209003002000B585B002
:101010006B4619735A73054B1978002300930233FA
:1010200003AA034806F0CCFB05B000BDBD020020BA
:101030009003002030B585B00F20684401706B46E6
:101040009A73CAB27F23134003700C4D29780C4C5D
:10105000012300930200200006F0B2FB0A2002F0F8
:1010600017FE29780023009301330E226A442000E2
:1010700006F0B2FB6B46987B05B030BDBC02002089
:101080009003002010B582B06B46DC1D01232200C6
:101090000F21FFF75FFF2178024806F01DF802B02C
:1010A00010BDC0466C7A001010B582B06B46DC1DD6
:1010B000012322000F21FFF785FF2178024806F067
:1010C0000BF802B010BDC046847A001070B5040061
:1010D00038221E21FFF762FF304B1A785201304B45
:1010E0001B78DB001A4352B22E4B1B781A43D2B244
:1010F00010212000FFF752FFC82002F0C9FD38225E
:101100001F212000FFF74AFF274B1A785201274B77
:101110001B78DB0013435BB2254A12781A43D2B224
:1011200004231A43D2B220212000FFF737FFC82042
:1011300002F0AEFD442222212000FFF72FFF1D4DBB
:101140002B785B01802252421A4352B21A4B1B7811
:101150009B001A4352B2D2B220212000FFF756FF63
:10116000164B1A785201D2B221212000FFF74EFF10
:10117000002222212000FFF749FF2A789200D2B2F4
:1011800023212000FFF742FF402224212000FFF707
:101190003DFF0B4805F070FF70BDC046B702002050
:1011A00051080020B6020020B5020020500800209F
:1011B000B4020020BE020020BF020020520800201E
:1011C0009C7A0010F0B5DE4657464E464546E0B5DF
:1011D0008FB007008B4691460023D04A11680B91CF
:1011E00091880BAA9180089309930A93059306931B
:1011F000079338221E21FFF7D1FEC94B1A785201FE
:10120000C84B1B78DB001A4352B2C74B1B781A43FA
:10121000D2B210213800FFF7C1FEC82002F038FD1D
:1012200038221F213800FFF7B9FEC04B1A7852014F
:10123000BF4B1B78DB0013435BB2BE4A12781A43E4
:10124000D2B204231A43D2B220213800FFF7A6FEFF
:10125000C82002F01DFD442222213800FFF79EFE27
:101260002F2402AB9C466444012322002321380032
:10127000FFF770FE227802231A43D2B223213800EE
:10128000FFF78CFE322002F003FD3F222E213800B2
:10129000FFF784FEFA20800002F0FAFC00222F21E2
:1012A0003800FFF7C7FE824683B2984600262DE03D
:1012B00003AD00232B806B80AB800BAC0633220088
:1012C00018213800FFF746FE63781B022178194386
:1012D00009B22980E3781B02A2781A4312B26A800D
:1012E00060790002237903431BB2AB8008988446DF
:1012F00061440891099901918C46624409920A9AC5
:101300000192944663440A930136B6B24645CFD360
:101310005146089804F0C2FC040008905146099810
:1013200004F0BCFC0600099051460A9804F0B6FC93
:1013300005000A90200005F0CBFB7F4C216805F0EA
:1013400088FB5B461860300005F0C2FB2468211C56
:1013500005F07FFB5B465860280005F0B9FB011CD7
:10136000201C05F076FB5B4698602E2402AB9C4661
:1013700064440123220023213800FFF7EBFD22788B
:1013800002239A4323213800FFF708FE322002F09F
:101390007FFC00222E213800FFF700FE2D2402AB37
:1013A0009C4664440123220023213800FFF7D2FD2C
:1013B000227802231A43D2B223213800FFF7EEFD30
:1013C000322002F065FC3F222E213800FFF7E6FDB7
:1013D000FA20800002F05CFC00222F213800FFF789
:1013E00029FE824683B2984600262DE003AD0023F5
:1013F0002B806B80AB800BAC063322002821380099
:10140000FFF7A8FD63781B022178194309B22980F0
:10141000E3781B02A2781A4312B26A806079000254
:10142000237903431BB2AB80059884466144059140
:10143000069901918C4662440692079A019294465D
:10144000634407930136B6B24645CFD3514605985B
:1014500004F024FC060005905146069804F01EFC9A
:10146000050006905146079804F018FC041E0790EA
:1014700045DD324B186805F05DFB02000B000020D3
:101480002F4904F080FE04F025FF241A0794300051
:1014900005F01EFB294C216805F0DBFA4B4618606D
:1014A000280005F015FB2468211C05F0D2FA4B46F4
:1014B0005860079805F00CFB011C201C05F0C9FAC8
:1014C0004B4698600DAC0123220023213800FFF722
:1014D00041FD227802239A4323213800FFF75EFD65
:1014E000322002F0D5FB00222E213800FFF756FDF6
:1014F0000FB0F0BCBB46B246A946A046F0BD0F4BAC
:10150000186805F017FB02000B0000200C4904F0DE
:101510003AFE04F0DFFE24180794B8E7CC7D0010F3
:10152000B702002051080020B6020020B5020020BA
:1015300050080020B4020020B4050020000500205F
:101540000000F03FF0B5DE4657464E464546E0B552
:101550008FB0040000230B930C930D930893099311
:101560000A9305930693079302930393049300222F
:101570002421FFF713FD0BAA05A92000FFF722FE87
:10158000052224212000FFF709FD08AA02A9200056
:10159000FFF718FE0599029805F03BFA051C039B1E
:1015A0000093069B0193191C009805F032FA8146BE
:1015B0000498079905F02DFA8246574805F05CFD1E
:1015C000564F380005F088FD281C05F0B3FA0200DC
:1015D0000B00534D280005F07FFD524B9846180034
:1015E00005F07AFD504E300005F046FD4F4B9B460E
:1015F000180005F071FD484605F09CFA02000B004A
:10160000280005F069FD404605F066FD300005F054
:1016100033FD474B9946180005F05EFD504605F036
:1016200089FA02000B00280005F056FD404605F03F
:1016300053FD300005F020FD0A2005F0E9FC0A20EA
:1016400005F0E6FC0B99089805F0E3F9394905F037
:1016500000FA061C099B00930C9B0193191C00982F
:1016600005F0D7F9334905F0F4F982460A980D9947
:1016700005F0CFF92F4905F0ECF980462E4805F02A
:101680002BFD380005F028FD301C05F053FA020050
:101690000B00280005F020FD284F380005F01CFD48
:1016A000274E300005F0E8FC584605F015FD504681
:1016B00005F040FA02000B00280005F00DFD38008F
:1016C00005F00AFD300005F0D7FC484605F004FDA2
:1016D000404605F02FFA02000B00280005F0FCFC44
:1016E000380005F0F9FC300005F0C6FC0A2005F0D2
:1016F0008FFC0A2005F08CFC002224212000FFF73B
:101700004DFCC82002F0C4FA0FB0F0BCBB46B24694
:10171000A946A046F0BDC046B47A0010D07A0010A9
:10172000DC7A0010E07A0010E87A00100C7B0010E0
:10173000187B001000007A44247B0010487B0010C6
:101740004C7B0010F0B5CE46474680B58DB0070003
:101750008846002307930893099305AA13805380B2
:10176000938003AA138053809380684C23785B0195
:10177000802252421A4352B2654B1B789B001A4397
:1017800052B2D2B22021FFF741FC624B1A785201CB
:10179000D2B221213800FFF739FC00222221380083
:1017A000FFF734FC22789200D2B223213800FFF7F1
:1017B0002DFC402224213800FFF728FC564805F074
:1017C0005BFCFA20000102F063FA00261AE0013304
:1017D000022B12DC5A0001A9515E05A8125E91424B
:1017E00002DD5A0005A811525A0003A8125E914268
:1017F000EDDA5A0003A81152E9E7692002F048FA2D
:101800000136B6B27F2E1CD801AD00232B806B8031
:10181000AB800AAC0633220028213800FFF7D2FB48
:1018200062781202237813432B80E2781202A378A5
:1018300013436B806279120223791343AB80002338
:10184000C6E705A900228B5E03AA0020165E9B193D
:10185000DE0FF6187610079602200B5E0220155E4A
:101860005B19DD0FED186D1008950423CB5E042481
:10187000145F1B19DC0FE41864100994300005F0A4
:1018800027F9264B9946196805F0E3F84346186096
:10189000280005F01DF94B461B689946191C05F0F8
:1018A000D8F843465860200005F012F9011C48465C
:1018B00005F0CFF843469860F2B205213800FFF7F3
:1018C000A5FBB2B2120A06213800FFF79FFBEAB26D
:1018D00007213800FFF79AFBAAB2120A0821380044
:1018E000FFF794FBE2B209213800FFF78FFBA2B2A9
:1018F000120A0A213800FFF789FB094805F0BCFBF2
:101900000DB0C0BCB946B046F0BDC046BE02002016
:10191000BF02002052080020707B0010D805002074
:10192000AC7B001010B582B00C0006236A4628215B
:10193000FFF710FB6B465A7812021B781343238083
:101940006B46DA7812029B78134363806B465A79B0
:1019500012021B791343A38002B010BD10B582B0F0
:101960000C0006236A461821FFF7F4FA6B465A78F2
:1019700012021B78134323806B46DA7812029B789D
:10198000134363806B465A7912021B791343A38079
:1019900002B010BD10B582B00C0006236A462821A3
:1019A000FFF710FB6B465A7812021B781343238013
:1019B0006B46DA7812029B78134363806B465A7940
:1019C00012021B791343A38002B010BD0F4B1B788A
:1019D000022B15D008D8002B0DD0012B0FD10C4BAA
:1019E000E62292051A600AE0032B08D1084BE82290
:1019F00092051A6003E0064BE42292051A607047D4
:101A0000034BE72292051A60F9E7C046520800200E
:101A1000D80500200A4B1B78012B08D0032B0AD0D5
:101A2000002B00D07047074B074A1A60FAE7054BB6
:101A3000064A1A60F6E7034B054A1A60F2E7C04609
:101A400051080020B40500200000F53B00007A3C5E
:101A500000007A3D0F4B1B78022B15D008D8002BC5
:101A60000DD0012B0FD10C4BE82292051A600AE031
:101A7000032B08D1084BE62292051A6003E0064BBF
:101A8000E22292051A607047034BE42292051A6025
:101A9000F9E7C0465008002000050020F0B5C64612
:101AA00000B58046FFF7D6FF4046FFF7B3FF594821
:101AB00005F012FB584B186805F03CF80022574B14
:101AC00004F07FFB02000B000020554904F05BFB93
:101AD00002000B00534C200005F0FEFA524805F0BE
:101AE000CBFA524805F0F8FA514B186805F022F885
:101AF00000224A4B04F065FB02000B00002048491D
:101B000004F041FB02000B00200005F0E5FA494813
:101B100005F0B2FA484C200002F0BAF8474F3800FE
:101B200005F0DAFA464805F0D7FA4046FFF70AFD15
:101B3000444805F0A1FA200002F0AAF8380005F0A8
:101B4000CBFA414805F098FA200002F0A1F83F4E88
:101B50003F4D320029004046FFF734FB0A2005F0D4
:101B600057FA0A2005F054FA3A4805F085FA3A483F
:101B700005F082FA306804F0DDFF0022274B04F004
:101B800020FB02000B00354805F0A6FA706804F04F
:101B9000D1FF0022214B04F014FB02000B0030495E
:101BA0008846080005F098FAB06804F0C3FF0022E8
:101BB0001A4B04F006FB02000B002A4805F08CFAD1
:101BC0000A2005F025FA0A2005F022FA264805F039
:101BD00053FA286804F0AEFF02000B00234805F01A
:101BE0007BFA686804F0A6FF02000B00404605F08F
:101BF00073FAA86804F09EFF02000B001C4805F071
:101C00006BFA200002F044F8380005F065FA80BC59
:101C1000B846F0BDC47B00100005002000408F4096
:101C20000000F03FDC7A0010DC7B0010E87B001045
:101C3000B4050020007C0010DC0500000C7C0010C6
:101C4000147C00103C7C0010547C00100405002023
:101C5000C0050020A47C0010BC7C0010D07C0010CB
:101C6000D87C0010E07C0010E87C0010FC7C0010A8
:101C7000047D001070B50400FFF7A8FE314805F0A0
:101C80002BFA314B186804F055FF00222F4B04F05B
:101C900098FA02000B0000202D4904F074FA0200AB
:101CA0000B002C4805F018FA2B4805F0E5F92B48F5
:101CB00001F0EEFF2A4E300005F00EFA294D290002
:101CC0002000FFF73FFD284805F006FA286804F0D9
:101CD00031FF00221D4B04F074FA02000B00234870
:101CE00005F0FAF9686804F025FF0022174B04F0AC
:101CF00068FA02000B001E4805F0EEF9A86804F02F
:101D000019FF0022114B04F05CFA02000B00194885
:101D100005F0E2F9FA20C00001F0BAFF300005F04A
:101D2000DBF9154805F0A8F92000FFF7CFF93000DE
:101D300005F0D2F9FA20400001F0AAFF0F4805F0A3
:101D40009BF970BD0C7D0010D805002000408F402D
:101D50000000F03F247D0010287D0010DC0500000D
:101D60000C7C0010DC050020387D00104C7D00103C
:101D7000547D00105C7D0010647D00109C7D00107F
:101D8000F0B5DE4657464E464546E0B59BB0804628
:101D90000F1C161C08933F4B1A6892465A689346CC
:101DA0009D68DC685146504604F038FE814659462D
:101DB000584604F033FE0590291C281C04F02EFE22
:101DC0000190211C201C04F029FE0C904A4604922C
:101DD0004946281C04F03DFE0E900199201C04F099
:101DE00038FE0F905146504604F033FE0990594694
:101DF000504604F02EFE0A90291C504604F029FE9D
:101E00000D90211C504604F024FE1090594658466F
:101E100004F01FFE0390291C584604F01AFE11908E
:101E2000211C584604F015FE0690291C281C04F0BD
:101E300010FE0290211C281C04F00BFE1290211CA5
:101E4000201C04F006FE07904146404604F001FEC7
:101E50008146391C381C04F0FCFD011C484604F086
:101E6000DDFD8146311C301C04F0F3FD011C4846A9
:101E700004F0D4FD04F068FE8146002104F01AFE4F
:101E8000002809D01BB0F0BCBB46B246A946A0460C
:101E9000F0BDC046C00200204946FE20800504F087
:101EA000C2FD8146011C404604F0D3FD1490494612
:101EB000381C04F0CEFD15904946301C04F0C9FDD5
:101EC00016902699081C04F0C4FD061C2799081CCE
:101ED00004F0BFFD011C301C04F0A0FD061C289975
:101EE000081C04F0B6FD011C301C04F097FD04F042
:101EF0002BFE061C002104F0DDFD0028C2D1311CA0
:101F0000FE20800504F08FFD061C011C269804F0BD
:101F1000A0FD8046311C279804F09BFD071C311C56
:101F2000289804F096FD81464146049E301C04F03A
:101F300090FD17900B97391C301C04F08AFD189007
:101F40004946301C04F085FD071C46464146059A6B
:101F50009046101C04F07DFD19901396311C0998D1
:101F600004F077FD061C1899201C04F072FD011C7A
:101F7000301C04F04EFD061C391C281C04F069FDC1
:101F8000011C301C04F04AFD061C1399039804F050
:101F900060FD011C301C04F041FD061C0B994046FD
:101FA00004F057FD291C04F054FD011C301C04F002
:101FB00035FD061C4946404604F04BFD211C04F04B
:101FC00048FD011C301C04F029FD061C139A9046A4
:101FD000111C029804F03DFD011C301C04F019FD99
:101FE000061C4146079804F034FD011C301C04F027
:101FF00010FD061C1799201C04F02BFD80460B9940
:10200000099804F026FD011C404604F007FD8046B7
:10201000391C584604F01DFD011C404604F0F9FC33
:10202000071C1999281C04F014FD011C381C04F02D
:10203000F5FC071C0B9A9046111C039804F009FD4F
:10204000011C381C04F0E5FC071C4146029804F012
:1020500000FD011C381C04F0E1FC071C49460198F6
:1020600004F0F7FC211C04F0F4FC011C381C04F003
:10207000D5FC071C4146079804F0EBFC011C381CFA
:1020800004F0C7FC071C311C301C04F0E2FC061CE9
:10209000391C381C04F0DDFC011C301C04F0BEFCB3
:1020A00004F052FD8046179E80273F06BC466644DA
:1020B0003000291C04F0CDFC061C1899584604F089
:1020C000C8FC011C301C04F0A9FC061C49460998F8
:1020D00004F0BFFC011C301C04F0A0FC061C199984
:1020E000201C04F0B6FC011C301C04F097FC061CFC
:1020F0004946039804F0ADFC011C301C04F089FC37
:10210000061C0B99019F381C04F0A3FC211C04F051
:10211000A0FC011C301C04F081FC061C49460298FE
:1021200004F097FC011C301C04F073FC061C4946AB
:10213000079804F08EFC011C301C04F06FFC061C98
:102140004146404604F06AFC1890311C301C04F0F3
:1021500065FC17908022120694466744069A111C6B
:10216000101C04F05BFC0E9904F053FC149904F06D
:1021700050FC0990011C381C04F06BFC071C0A9AE7
:10218000111C101C04F04AFC0F9904F047FC15992F
:1021900004F03FFC05990E9004F05BFC011C381C18
:1021A00004F03CFC071C311C281C04F052FC0F906E
:1021B0000299FC20800504F02CFC079904F029FC0E
:1021C000414604F046FC07900D99069804F021FC66
:1021D000311C04F03EFC011C079804F01FFC13990D
:1021E00004F017FC0790011C0F9804F032FC011C4E
:1021F000381C04F00EFC071C802212064244211CED
:102200001392101C04F025FC1490311C584604F065
:1022100020FC1590011C149804F000FC14901099F7
:10222000119804F0F6FB414604F013FC109012994B
:102230000A9804F0F3FB311C04F00BFC011C10980D
:1022400004F0ECFB0B9904F0E4FB0A90011C1498D9
:1022500004F0FFFB011C381C04F0E0FB071C4146A6
:10226000281C04F0F6FB0B9006990D9804F0D6FBA1
:10227000414604F0EEFB06900399FC20800504F033
:10228000C8FB029904F0C5FB311C04F0E2FB011C01
:10229000069804F0C3FB494604F0BBFB8146011CD1
:1022A0000B9804F0D6FB011C381C04F0B7FB069019
:1022B0000C99099804F0CDFB071C04990E9804F0C2
:1022C000C8FB011C381C04F0A9FB0D908121C90535
:1022D000584604F0BEFB1090039F391C381C04F0D4
:1022E0009DFB011CFE20800504F093FB071C029A55
:1022F000111C101C04F092FB011C381C04F089FB1B
:10230000169904F086FB071C011C109804F0A1FB31
:10231000011C0D9804F07DFB0290311C201C04F080
:1023200098FB0D90011C079804F093FB011C029888
:1023300004F074FB0290311C504604F08AFB061C2A
:10234000011C0B9804F06AFB011C0A9804F081FB45
:10235000011C029804F062FB02904146201C04F02C
:1023600078FB03901799584604F073FB011C0398FF
:1023700004F04FFB011C484604F06BFB011C029863
:1023800004F04CFB0290049A80231B069C46624496
:102390001100099804F05DFB03900C990E9804F06D
:1023A00058FB011C039804F039FB03908121C905F7
:1023B000281C04F04EFB011C381C04F04AFB011CD5
:1023C000039804F026FB071C189A80231B069C46E2
:1023D0006244291C0392101C04F03BFB311C04F0E6
:1023E00018FB011C079804F034FB011C381C04F096
:1023F00015FB071C4146584604F02BFB061C011C2C
:102400000D9804F00BFB011C0A9804F022FB011C40
:10241000381C04F003FB071C4146504604F019FB2E
:1024200080461799281C04F014FB011C404604F058
:10243000F0FA011C484604F00CFB011C381C04F0A7
:10244000EDFA80460599099804F003FB071C0199F1
:102450000E9804F0FEFA011C381C04F0DFFA071C89
:10246000211C039804F0F5FA011C159804F0D6FA23
:10247000011C079804F0EDFA011C381C04F0CEFA98
:10248000071C5146139804F0E4FA011C0F9804F05D
:10249000C5FA011C0A9804F0DCFA011C381C04F08F
:1024A000BDFA071C311C484604F0D3FA011C381C45
:1024B00004F0B4FA071C069A9146111C101C04F093
:1024C000C8FA061C0299081C04F0C3FA011C301C4F
:1024D00004F0A4FA061C41460191404604F0B9FA02
:1024E000011C301C04F09AFA061C391C381C04F03C
:1024F000B0FA011C301C04F091FA04F025FB011C19
:10250000FE20800504F08FFA061C011C484604F0EA
:10251000A0FA8146311C029804F09BFA8046311CD7
:10252000019804F096FA0190311C381C04F091FADD
:102530000290802212065A441000089904F089FA89
:10254000061C2499281C04F084FA011C301C04F099
:1025500060FA061C2599201C04F07BFA011C301C33
:1025600004F057FAFC21890504F073FA071C6B4B41
:102570001E684946301C04F06CFA011C381C04F03B
:1025800048FA81460899504604F063FA071C2599D9
:10259000281C04F05EFA011C381C04F03FFA071CEA
:1025A0002499201C04F055FA011C381C04F031FA5F
:1025B000FC21890504F04DFA071C4146301C04F04B
:1025C00048FA011C381C04F024FA8046249950462D
:1025D00004F03FFA071C2599584604F03AFA011C0A
:1025E000381C04F016FA071C0899201C04F031FA74
:1025F000011C381C04F012FAFC21890504F029FAA8
:10260000071C0199301C04F024FA011C381C04F04A
:1026100000FA071C2599504604F01BFA01902499F2
:10262000584604F016FA011C019804F0F7F90190DD
:102630000899281C04F00DFA011C019804F0E9F92E
:10264000FC21890504F005FA01900299301C04F080
:1026500000FA011C019804F0DCF90190304B1E686F
:102660004946301C04F0F5F9514604F0D7F981468B
:102670004146301C04F0EDF9594604F0CFF980468C
:10268000391C301C04F0E5F9291C04F0C7F9071CBB
:102690000199301C04F0DDF9211C04F0BFF9051C80
:1026A0004946484604F0D5F9041C4146404604F02A
:1026B000D0F9011C201C04F0B1F9041C391C381C91
:1026C00004F0C7F9011C201C04F0A8F9041C291C03
:1026D000281C04F0BEF9011C201C04F09FF904F032
:1026E00033FA011CFE20800504F09DF9041C011C36
:1026F000484604F0AEF90B4E3060211C404604F011
:10270000A8F97060211C381C04F0A3F9B060211CEA
:10271000281C04F09EF9F060FFF7B4FB340500209C
:10272000A8050020C0020020F0B5DE4657464E4600
:102730004546E0B597B081460C0001231F220EA943
:102740008C46624401212000FEF704FC924D2900D2
:102750002000FFF7E7F80023E85E04F0B9F98F4B9B
:102760001B689846191C04F074F98D4F396804F001
:1027700050F98C4B18600223E85E04F0A9F9011CA3
:10278000404604F066F9796804F043F9864B186016
:102790000423E85E04F09CF9011C404604F059F95A
:1027A000B96804F036F9814F386001231F220EA961
:1027B0008C46624402212000FEF7CCFB7C4D2900B0
:1027C0002000FFF7CBF80023E85E04F081F9794B95
:1027D0001B689B46191C04F03CF9774B9A46196814
:1027E00004F017F9754B18600223E85E04F070F9E5
:1027F000011C584604F02DF95346596804F009F9B4
:102800006F4B984618600423E85E04F061F9011CE0
:10281000584604F01EF95346996804F0FAF8694BDB
:102820009A46186001231F220EA98C46624400219B
:102830002000FEF7C7FB644D29002000FFF7AAF82F
:102840000023E85E04F044F9604B1C68211C04F08E
:1028500000F95F4B18600223E85E04F039F9011CAF
:10286000201C04F0F6F85B4B9B4618600423E85EDE
:1028700004F02EF9011C201C04F0EBF8564C2060EB
:1028800001F0BAFA06900791544D069807992A6804
:102890006B68801A994104F03FF9514904F0C3F87C
:1028A000011C504B1860069A079B2A606B604E4DC6
:1028B000286804F0B3F828604C49012200230D6811
:1028C0004E68521973410A604B603C4B186804F023
:1028D00031F9474A474B03F074FC0022464B03F0A2
:1028E00052FC05000E004346186804F023F9404AE4
:1028F000404B03F066FC00223F4B03F044FC089081
:1029000009915346186804F015F9394A394B03F018
:1029100058FC0022384B03F036FC0A900B9128003B
:10292000310003F007FD051C3F681F4B1B689846EC
:102930001C4B1E68236804935B461B680393244B5F
:102940001B68802109068C46634402930A980B9900
:1029500003F0F0FC01900898099903F0EBFC00905B
:102960002B1C3A1C4146301CFFF70AFA234B1A680D
:102970005B6806980799801A994102000B0020496C
:102980000A604B601A433DD1484617B0F0BCBB46C5
:10299000B246A946A046F0BD100500200005002063
:1029A00004050020280500202C050020300500200B
:1029B000CC050020B4050020C0050020B80500208B
:1029C000BC050020D4050020E8050020D805002023
:1029D000F0050020F4050020F8050020D0040020B8
:1029E00000247449A805002028080020D8040020ED
:1029F0006E861BF0F921094000806640C00300206C
:102A0000C8040020804B1868804904F022F8109018
:102A10007F4B18687D4904F01CF811907D4B1868B5
:102A20007A4904F016F812907B4B1B689B467B4B4F
:102A30001B6808937A4B1A680A927A4B19680D91B1
:102A4000794B1C680E94794B1D680F95784C66681D
:102A5000B246A768391C301C03F0FBFF051C266832
:102A6000B046E668311C404603F0F3FF011C281C09
:102A700003F0D4FF011C03F0D1FF051C4146404682
:102A800003F0E7FF80465146504603F0E2FF011C89
:102A9000404603F0C3FF8046391C381C03F0D9FFC1
:102AA000011C404603F0B5FF071C311C301C03F02D
:102AB000D0FF011C381C03F0ACFF011C281C04F0E3
:102AC00055F85C4D2860E168606803F0C2FF061CA1
:102AD000A168206803F0BDFF011C301C03F099FFC2
:102AE000011C03F09BFF04F0C9F880263606B446AB
:102AF0006044514E30602768BA466768B846391C52
:102B0000504603F0A6FF1390A768E468211C381C08
:102B100003F09FFF011C139803F080FF011C03F0DA
:102B20007DFF13905146504603F093FF8246414685
:102B3000404603F08EFF011C504603F06AFF8046BA
:102B4000391C381C03F085FF011C404603F061FF6F
:102B5000071C211C201C03F07CFF011C381C03F007
:102B60005DFF011C139804F001F8071C334B9846D5
:102B70001860306803F0DEFF314A324B03F021FB6E
:102B800003F0D8FB041C3060286803F0D3FF2C4A04
:102B90002C4B03F016FB03F0CDFB28602A4903F011
:102BA00038FF061C2860381C03F0C4FF244A254B5C
:102BB00003F007FB03F0BEFB474638604F463C601E
:102BC0007E604E46B860109FF760119F3761129883
:102BD000706148465E468661089BC3610A9A02623C
:102BE0000D9941620E9C84620F9DC562174B069938
:102BF000079A19605A60164B00200021186059602E
:102C0000144B00221A60BFE62805002000007A4419
:102C10002C05002030050020B8050020BC05002050
:102C2000D4050020F0050020F4050020F805002060
:102C3000C002002044080020FC05002018060020E7
:102C4000E8C35CB0DDA54C409A993941C00300202F
:102C5000D80400202808002010B502490120FEF702
:102C600023F910BDFFFF000010B58300084A944609
:102C700063441C6840226240C024144080225201F8
:102C800013431C60C000034B9C466044416010BD70
:102C900004C001400040014080000B4B9C46604452
:102CA00000290DD00823002A0CD004221343026807
:102CB00053400C221340802252011043036070479E
:102CC0000023F0E70022F1E704C0014010B5012322
:102CD0008340D0221206936293610521FFF7C4FF5F
:102CE00010BD0000034B1B6802201840431E984192
:102CF000C0B2704700C00640EFF3108072B6034BBD
:102D00001B68002BFBD0BFF35F8F70472C0100D0F6
:102D1000BFF35F8F024B00221A6080F31088704768
:102D20002C0100D0F8B506000C001500FFF7E4FFF9
:102D3000E308F718F15C07222240012393400B427D
:102D400005D1DBB20B433B70FFF7E2FFF8BD21007A
:102D5000280001F0B7FE0000002307E0054A9A189A
:102D60009200BFF35F8F0021116001331F2BF5D953
:102D70007047C04640000034054A1078431CDBB25F
:102D80001370172B02D9130010221A707047C04617
:102D9000D0020020074B9B68103080001950BFF311
:102DA0005F8FBFF35F8F044B0021196082F310889F
:102DB0007047C04600ED00E0240100D010B5091AAC
:102DC000081F0A4B9C466144094A914208D8C30730
:102DD00006D440104005400D064B184380B210BD8C
:102DE000054B064AA321064801F0D2FDFC0700006E
:102DF000FE0F000000E0FFFFD47D001044800010B3
:102E0000047E001010B5091A04394C08090B08D1CA
:102E10004905490D064A11430180064B234343806F
:102E200010BD054B054AAB21054801F0B1FDC04678
:102E300000F0FFFF00F8FFFF607E00101880001018
:102E4000047E001001238340034A10681840431E8B
:102E50009841C0B27047C04600E100E0002904D0AC
:102E6000034B1860034B18607047034B1860FBE777
:102E700080E200E000E100E080E100E010B5012325
:102E800083401800FFF7EAFF10BD0000024B9B686B
:102E900010308000C058704700ED00E070B50400AD
:102EA0000D00EFF3108672B60C4B1B68002BFBD0A5
:102EB000BFF35F8F2000FFF7E9FF094B984201D075
:102EC000A84205D1320029002000FFF763FF70BD42
:102ED000044B054A8621054801F05AFD240100D023
:102EE000CD010010707E001060800010047E001084
:102EF000F0B5CE46474680B583B006000D00EFF32F
:102F0000108872B6564B1B68002BFBD0BFF35F8F47
:102F1000544B9A6834001034A300D758524B9F4248
:102F200007D0AF4200D198E00197504BFB1A2F2BEE
:102F300009D9424639003000FFF72CFF03B0C0BC6E
:102F4000B946B046F0BD3000FFF77CFF8146002156
:102F50003000FFF793FFBFF35F8FEFF30581002988
:102F600001D08C4211D10123019C9C430022A36813
:102F7000AB4212D00622A256002A0DDB53009B184A
:102F80009B002200394CE418F1E73621384B394ACE
:102F9000FF31394801F0FCFC2200AB4256D1062536
:102FA0006557002D38DB6B005B199A002F4B9B187F
:102FB0009A68A260DA79E27106229A56A2719B7928
:102FC0005BB2002B0FDA2D48A0806B005B199B00D1
:102FD000264AD3182A4A117899711570494630004B
:102FE000FFF74CFFA5E7201D6B005B199B001F4AF4
:102FF0009B181A1D9B88D90A1C2907D15B055B15F4
:10300000023359005118FFF7D9FEDDE71D4B1E4A68
:10301000B121194801F0BCFC002912D1002A0ED0C0
:10302000FF239371194B9380154A1378A371184BA2
:103030000E49641A644163431B0D1370CEE70A4FB7
:10304000F2E7201D1349FFF7DDFEC7E76A21124BA7
:10305000084AFF31084801F09BFC034F69E7C0466E
:10306000240100D000ED00E0CD010010D4020020CA
:10307000847F001030800010047E001001BD00002D
:10308000540800206C7F00105080001001BDFFFF2D
:10309000AAAA00000E030020B87F001070B501211D
:1030A00001432E4BCB1A2F2B28D8EFF30583002B8F
:1030B0002BD0EFF3108C72B6294A1268002AFBD08D
:1030C000BFF35F8F274A0400244D641B64416243B1
:1030D000120D54B2244A92689B00D2588A421BD0E7
:1030E0000022032A32D853009B189B001B49CB189F
:1030F0009B795BB2A3421FD00132F2E7C7211B4B81
:103100001B4A49001B4801F043FC92211A4B184A04
:10311000FF31184801F03CFC134A92681749D1501E
:10312000174B1A7882711C70BFF35F8F0C4B002213
:103130001A608CF3108870BD0D0053009918890037
:103140006918FF268E710F4A8A80E9E7D1210E4B5C
:10315000074A4900074801F01BFCC046D402002082
:10316000240100D0AAAA000000ED00E0C07F0010FA
:10317000FC7F0010047E0010E87F0010CD010010DD
:103180005408002001BDFFFFF47F00100022044B13
:1031900002E0044902C30132072AFAD97047C04647
:1031A00000E400E080808080024B9C4661448900FE
:1031B000016070474000003410B50400FFF7DCFDEB
:1031C00001002000FFF7F0FFFF232371BFF35F8FA3
:1031D00010BD10B50400FFF7CFFD01002000FFF780
:1031E000E3FFFF23237100236371BFF35F8F10BDE3
:1031F00070B505000C00080000F0FEFE0949200033
:1032000000F03EFEFFF7B8FD074B9C46604480008F
:1032100068602C75D0231B061B786B75A400034BCC
:10322000E55070BD35350010400000340406002024
:103230000A4B1A68EFF3108172B61368002BFCD0AA
:10324000BFF35F8F054B1B68BFF35F8F00221A60CF
:1032500081F3108840BF002000217047240800201F
:1032600010B5002922D003681B7B99421ED8174B4A
:103270009C466144090183689C4661440C68496826
:10328000002A19D003681B7B9A4215D883680F481F
:103290008446624412019A181068536802000120A3
:1032A0008B4201D80ED00020C0B210BD084B094A95
:1032B0003C21094801F06CFB054B064A3C210648BD
:1032C00001F066FBA242EFD8EDE7C046FFFFFF0F1B
:1032D000B0810010308400105C81001010B500290E
:1032E0001ED0037B99421BD84B005B18033B04683C
:1032F000A4466344002919D0002A1DD0914221D050
:10330000002A25D0047BA24222D8046850008018ED
:10331000033820188170197800291FD11A7010BD48
:10332000104B114A6821114801F032FB104B114A31
:103330006F310E4801F02CFB0F4B0E4A70210B48E9
:1033400001F026FB0D4B0B4A7121084801F020FBD0
:10335000044B054A6821054801F01AFB41701A70B8
:10336000DDE7C046D48100109C840010F08100107D
:10337000588200107884001064820010708200105F
:1033800070B506000D001400002914D0002A14D0D6
:10339000806873689847002806D022002900300012
:1033A000FFF79CFF280007E02A0021003000FFF70C
:1033B00095FF200000E0100070BD0800FCE7000051
:1033C000F0B583B00500009201930AAB1C780BABFB
:1033D0001F78002C26D003685A7B944207D1012322
:1033E000002B19D1002C3BD1200003B0F0BD002CE4
:1033F0000CD01A7B944209D81A6863001B19033B4E
:10340000D3189B78002BEBD00123E9E73E4B3F4AD2
:1034100068213F4801F0BCFA3E4B3F4A67213F48D4
:1034200001F0B6FA03689C7B002CDBD012D01A7B2B
:1034300094420FD862001219033A19688C4662440C
:1034400051789973002900D1D97300239370537078
:103450001370C7E72C4B2D4A68212D4801F098FACC
:10346000002C3AD02B681B7B9C4236D82C4BE3189F
:103470001B01AA6894466344009A1A60019A5A6034
:10348000089A9A60099ADA602E68002C2BD030D006
:10349000337B9C422DD863001B19033B3268944652
:1034A000634400229A705A701A70717B22003000B7
:1034B000FFF766FF7073844200D095E7287D009A7D
:1034C000019B00F025FD061E01D0002F17D00C9B9C
:1034D000002B00D188E71E7086E7124B124A3C2170
:1034E0000E4801F055FA114B114AA521084801F088
:1034F0004FFA054B054A6821054801F049FA28684A
:10350000210000F03DFFE2E7D48100109C84001010
:10351000F081001088820010A88400105C810010E7
:10352000FFFFFF0FB08100103084001058810010A1
:103530008C840010F0B5DE4657464E464546E0B551
:103540008BB00990002308938200B54BD658370002
:1035500052E0B44BB44A3F21B44801F019FAB44BDD
:10356000B44A3C21B44801F013FA002901D10028E3
:1035700069D10021404600F0F9FEA04219D12A6825
:103580006B6806920793AB689846EB689A46434689
:10359000002B14D0002C18D03B681B7B9C4214D805
:1035A000631EFA68D35C08931B021843386100203D
:1035B00015E0A24BA24A8E219F4801F0E9F9A14BE8
:1035C0009F4A92219C4801F0E3F9994B9E4A412180
:1035D000994801F0DDF900239A46984600207B685F
:1035E000BFF35F8F00221A6086F310884346002BDA
:1035F00032D1002800D10CE100F0FEFB02000B1ECE
:10360000A7DB00200021069007917868EFF3108671
:1036100072B601680029FCD0BFF35F8F3968884615
:103620004C7B002CD7D09AD0097B8C4297D8874905
:1036300065182D01B9688C46654428686968801A48
:103640009941002991DD2A686B68099800F060FCB7
:1036500000239A469846C2E7089B1B0223439946DB
:1036600051461800C04705000E007A68EFF3108B32
:1036700072B6136859424B41D9B2002BF9D1BFF34E
:103680005F8F002E1EDB002E46DD3B69002B47D0EE
:103690004B456DD100F0B0FB02000B1E6EDB5219E2
:1036A0007341002B70DB002B72DB00210491013190
:1036B0000391029451460191414600913800FFF771
:1036C0007FFE4CE03B69002BDDD04B4514D1069AC0
:1036D000079B521BB341002B14DB002B16DB002190
:1036E00004910131039102945146019141460091A8
:1036F0003800FFF765FE32E0554B514AA1214E4894
:1037000001F046F901225242524BE6E7454B464A48
:103710003F21464801F03CF9002E01D1002DB4D1E3
:103720003B68002C50D05A7B944237D101210029AC
:103730004AD1DA7B002A4DD19A7B002A03D1DA7B69
:10374000002A5AD19C73DC73002C5CD03B681B7B35
:103750009C4258D8FA68013C135D0133135500238D
:103760003B617A68BFF35F8F13608BF3108843E788
:10377000374B334AA421304801F00AF9294B2A4A31
:103780003F212A4801F004F901225242314B8AE7D5
:10379000244B254A3F21254801F0FAF8002C0DD092
:1037A0001A7B94420AD862001219033A18688446B8
:1037B00062449278002ABAD00121B8E7264B274A02
:1037C0006821274801F0E4F8264B274AF6212448CF
:1037D00001F0DEF8002A0AD0197B8A4207D851008E
:1037E0008A18033A19688C4662445470A4E71A4B4D
:1037F0001A4A68211A4801F0CBF81C4B1A4AFB21DF
:10380000174801F0C5F80A4B0F4A41210A4801F058
:10381000BFF80BB0F0BCBB46B246A946A046F0BD0F
:1038200004060020CC780010FC83001020790010E2
:10383000B0810010308400105C810010B082001054
:1038400014840010C882001054840010FFFFFF0F82
:10385000D4820010FFFFFF7FD48100109C840010F1
:10386000F081001010830010688400103483001071
:1038700010B50C4B5B68002B04D00A210A48FFF7F7
:1038800093FC10BD074C2300084A1021206800F06B
:103890007DFC032000F0A4FA03212000FFF7A8FC20
:1038A000EBE7C0461C030020240800206132001012
:1038B00010B5064B5B68002B01D0044810BD044BCB
:1038C000044A5E21044801F063F8C0461C0300204E
:1038D000488300103C8400105C810010F0B5DE4687
:1038E00057464E464546E0B58BB0804616001F0051
:1038F000149B9A46159B994616AB1B789B461F2333
:1039000002AA9446634400221A702BE0002809D0D2
:1039100042461268127B904204D8421E4146C96852
:103920008A5C41E0404B414A4121414801F030F876
:1039300007984CE0361BAF41002F07DB002F11DA50
:103940003C4B3D4A3F213D4801F022F8012676429A
:103950003B4FF3E7374B384A3F21384801F018F81E
:10396000002F4FDB43465A68EFF3108472B613689A
:1039700059424B41D9B20791002BF8D1BFF35F8F69
:103980001F3302AA944663440493002303930293D3
:103990004B4601935346009332003B004046FFF7ED
:1039A0000FFD031EB2D1020041464968BFF35F8F8D
:1039B00000250D6084F31088002B29D01F2302A955
:1039C0008C4663441B78002BB2D112021043002BAB
:1039D00020D05B46002B1DD04946D04704000D0087
:1039E00003000B431DD00029A4DB00F005FA0600FC
:1039F0000F1EAFDB36196F41002FB1DA0126764278
:103A00000F4FADE70B4B0C4A3F210C4800F0C0FFB5
:103A1000012040420BB0F0BCBB46B246A946A046CE
:103A2000F0BD0798F6E7C046B0810010548400103E
:103A30005C810010CC780010FC830010207900100D
:103A4000FFFFFF7FF8B50400002900D162E0426863
:103A5000EFF3108572B6136858424341D8B2002B79
:103A6000F9D1BFF35F8FCBB22268567BB3421BD133
:103A70000120002848D0206988422BD0090AC9B209
:103A8000002B2ED02068007B83422AD8581EE6687F
:103A9000305C88422BD000206368BFF35F8F002228
:103AA0001A6085F31088F8BD002B0DD0167BB34249
:103AB0000AD85E00F618033E1768BC466644B6781E
:103AC000002ED6D00120D4E7134B144A68211448A5
:103AD00000F05EFF2C21134B134AFF31134800F016
:103AE00057FF134B134A4121104800F051FF1900B2
:103AF000100000F045FC0028CED199210E4B0A4A57
:103B000049000A4800F044FF23698B42C4D10023D6
:103B10002361C1E70020C6E7D48100109C84001017
:103B2000F08100106C830010E48300105C810010B1
:103B3000B08100105484001090830010F0B587B05D
:103B400006000F00EFF30583002B1FD1062464420B
:103B5000E517A4197D418D4202D803D1844201D9D1
:103B600000240025002D14DB0494059500F044F991
:103B700002000B1E13DBA41A9D41002D17DC14D08C
:103B80003000390000F044F907B0F0BD234800F0E0
:103B900099FF234B234A3F21234800F0F9FE204B95
:103BA000204A3F21204800F0F3FE002CE8D0FFF728
:103BB0007FFE0023029301931C4B0093049A059B04
:103BC000FFF78CFE002818DADAE7002300E0002374
:103BD000002BD5D1164B1A68EFF3108172B613681B
:103BE000002BFCD0BFF35F8F114B1B68BFF35F8FBF
:103BF00000221A6081F3108820BF0499059A0D4BAA
:103C00005B6A9A42E3D80B48806A884203D29A42A0
:103C1000DBD00123DCE70123DAE7C0469483001000
:103C2000CC780010FC830010207900103132001095
:103C3000240800200040054070B504000D0000F08D
:103C4000DBF802000B1E0ADB200029008018594116
:103C500000290ADB00290CDBFFF770FF70BD084B61
:103C6000084A3F21084800F093FE012040420749DE
:103C7000F0E7034B034A3F21034800F089FEC046AA
:103C8000CC780010FC83001020790010FFFFFF7F2C
:103C900010B5FA2292000023002102F09DFEFFF7EA
:103CA000CBFF10BD70B584B005000C00EFF30583A9
:103CB000002B1ED1FFF7FCFD002302930193224B42
:103CC00000932A002300FFF709FE061E23DD20BF14
:103CD000FFF7EEFD3100FFF7B5FE1C4B5B6A9C421F
:103CE0002DD81A4A926AAA422CD29C4225D0012091
:103CF00026E0164B5B6A994209D8144A926A8242BE
:103D000007D2994201D001201AE0002018E00020DB
:103D100016E0012014E00D4B5B6A9C4209D80B4A67
:103D2000926AAA4207D29C4201D0012008E00020FA
:103D300006E0002004E0012002E0002000E0002076
:103D400004B070BD0120FBE7313200100040054097
:103D500070B5EFF305801038EFF3108C72B61A4B84
:103D60001B68002BFBD0BFF35F8F01221300834041
:103D700016494B6316490B60164909780C00C4407C
:103D8000224214D0114A546A8200134D525994426F
:103D900006D38200114C125999430E4B197007E05B
:103DA0000A4A031D9B0099589950002200E0002206
:103DB000BFF35F8F044B002119608CF31088002A39
:103DC00000D0904770BDC046280100D0004005409B
:103DD0003C700540550800202C08002018050020E4
:103DE00010B50100024A0348FEF79CFF10BDC04613
:103DF000C084001053080020044B5B6A034A906A99
:103E00001900536A9942F9D17047C04600400540F5
:103E1000084B5B6A01E0074B5B6A8B42FBD301E016
:103E2000044B5B6A8B4203D1024B9B6A8342F7D3FC
:103E30007047C0460040054070B504000D00FFF714
:103E4000DBFF02000B0020002900801859418B4243
:103E500002D804D1824202D901204042C117002970
:103E600002DBFFF7D5FF70BD024B034A3F21034839
:103E700000F08EFDCC7800108485001020790010B1
:103E800070B504000D00EFF3108672B61B4B1B6873
:103E9000002BFBD0BFF35F8F002D1CD02000FEF75E
:103EA000F5FF174B83420BD019002000FEF7F6FFF9
:103EB00001212000FEF7E2FF0123A340114A136015
:103EC000A400114BE550BFF35F8F0C4B00221A602A
:103ED00086F3108870BDA2000B4B0021D150012247
:103EE000A2400A490B7893430B7005492000FEF766
:103EF000FFFF00212000FEF7C1FFE4E7280100D00A
:103F0000513D00103860054018050020550800207C
:103F1000F0B5DE4600B584B00400150001921E0025
:103F20000293FFF769FF03958E4202D84ED1854276
:103F30004CD9EFF3108B72B6274B1B68002BFBD0CC
:103F4000BFF35F8F254A17780125A540EBB23B43AD
:103F50001370234B5D63221D92000199D150A20082
:103F60002049029850501B6A2B4212D11C4B1B6CEB
:103F70002B4208D00020BFF35F8F174B00221A603E
:103F80008BF3108823E0184B184AC521184800F01D
:103F9000FFFCFFF731FF8E4214D802D1039B83420E
:103FA00010D80E4B1B78BB420ED00D4B1D625D63CB
:103FB0001F2004400123A3400E4A1360074B1F70CB
:103FC0001E38D8E70020D6E70120D4E7012004B04E
:103FD00080BCBB46F0BDC046280100D0550800207B
:103FE000004005402C080020E48400106885001083
:103FF0000885001080E200E0EFF3108C72B60B4BE6
:104000001B68002BFBD0BFF35F8F01238340084A5E
:10401000136208490A789A430A70BFF35F8F034B13
:1040200000221A608CF310887047C046280100D027
:10403000004005405508002010B500291ED0037B24
:1040400099421BD84B005B18033B0468A4466344A9
:10405000002919D0002A1DD0914221D0002A25D054
:10406000047BA24222D8046850008018033820182C
:104070008170197800291FD11A7010BD104B114A98
:104080006821114800F084FC104B114A6F310E4832
:1040900000F07EFC0F4B0E4A70210B4800F078FCBC
:1040A0000D4B0B4A7121084800F072FC044B054A85
:1040B0006821054800F06CFC41701A70DDE7C046CD
:1040C000D4810010A4860010F081001058820010E6
:1040D00090860010648200107082001070B5060097
:1040E0000D001400002914D0002A14D080687368D1
:1040F0009847002806D0220029003000FFF79CFFD7
:10410000280007E02A0021003000FFF795FF20007B
:1041100000E0100070BD0800FCE7000010B50023AF
:10412000437301338373037BC3730123027B9A427E
:1041300014D9002B0CD0027B934209D85A00D21814
:10414000033A01688C4662440133DBB25370EDE7F9
:104150000B4B0C4A68210C4800F01AFC002A09D0CD
:10416000924207D8016853009A18033A8A1800232C
:10417000537010BD024B034A6821034800F008FC4D
:10418000D4810010A4860010F081001010B50173D6
:1041900042608360FFF7C2FF10BD000070B50400ED
:1041A000081E00D170BD002934D0237B994231D83C
:1041B0004B005B18033B2268944663445A78002AFC
:1041C000F0D02DD0237B9A422AD853009B18033B72
:1041D00021688C4663445D7800215970002825D001
:1041E000237B984222D843001B18033B21688C464E
:1041F00063440021597001002000FFF76FFF0600A3
:1042000029002000FFF7CAFF020031002000FFF75D
:1042100065FFC7E7084B094A6821094800F0B8FB69
:10422000054B064A6821064800F0B2FB024B034AE0
:104230006821034800F0ACFBD4810010A486001074
:10424000F081001070B505000C00160000292FD079
:1042500034D0037B994231D84B005B18033B026892
:10426000944663445A78002A2ED19A78002A31D194
:104270001978FFF793FF0300002E0AD0EA7B002A8B
:104280002ED1AA7B002A03D1EA7B002A3BD1AC7352
:10429000EC73002B3DD1002C4FD02B7B9C424CD893
:1042A0002B6861000C19033C1C190023637070BD5E
:1042B000254B264A3821264800F06AFB254B264A22
:1042C0006821264800F064FB254B204A3A2120480B
:1042D00000F05EFB234B1D4A3B211D4800F058FBBC
:1042E000002A0AD0297B8A4207D851008A18033A4B
:1042F00029688C4662445470C3E7164B164A6821FD
:10430000164800F045FB184B104A4221104800F0B7
:104310003FFB002B0BD02A7B934208D843001B188D
:10432000033B2A689446634400229A70B3E7094B22
:10433000094A6821094800F02BFB064B064A682110
:10434000064800F025FBC0469C8500107C860010C6
:10435000A4850010D4810010A4860010F081001004
:10436000F8850010208600103483001070B504001A
:104370000A00457B2900FFF765FF6073280070BDC8
:1043800070B50400002967D0437B8B420ED0002912
:1043900011D0037B99420ED84B005B18033B026897
:1043A000D0188378002B0CD1002056E00121FFF7B4
:1043B000DDFF012051E0294B294A6821294800F0FE
:1043C000E7FA002B20D0227B93421DD85A00D31845
:1043D000033B2268D2182568EB5C8B421AD0002B75
:1043E0001BD0227B934218D85A00D318033B226873
:1043F000D21853788B4216D0002BF0D11A4B1B4A9F
:104400006B211B4800F0C4FA144B154A682115486B
:1044100000F0BEFA4378137007E0104B104A682191
:10442000104800F0B5FA437853700023837043704E
:1044300001222000FFF706FF0200617B814205D0C8
:104440002000FFF74BFE6073012006E0094B074A8E
:104450007121074800F09CFA002070BDD481001043
:10446000A4860010F0810010F47F00106486001014
:10447000A48500104486001070B5046BE30701D4D6
:10448000200070BD02003032C0239B0113430A4A52
:104490001A60456A826AAD01AD18AD02062000F0CF
:1044A000BDF9064901F022FC0100280001F01EFCC4
:1044B0000021FFF7C1FCE3E7010300004E0E0000FE
:1044C00070B504000E001500FFF7D6FF22002C3255
:1044D000E16A4E40354080235B0113431D60206339
:1044E00070BD000070B505000C00062000F096F9C4
:1044F000C000210001F0FAFBC60908D00E4B9E4215
:1045000016D87F23184001303400460800E001240B
:104510006C62AE62002200212800FFF7D1FF062066
:1045200000F07CF98000A101891901F0DFFB70BD6A
:104530000026024CECE7C046FEFF0000FFFF000033
:1045400010B505394901013AD2001143002B09D0B9
:1045500002220A43012B07D0002111436E22FFF7EC
:10456000AFFF10BD0022F4E70421F6E7002909D0CF
:104570000A22064B9C466044434258414000044B8B
:10458000C252704780225200F3E7C0460080FCBF51
:104590003C08002070B505000C00062000F03EF934
:1045A000061E27D0164B9D4226D08022D203154BE3
:1045B0001A60154B1A60154B9B6811009943FAD18C
:1045C00000212800FFF7D2FF21002800FFF78AFF13
:1045D00006000023012208212800FFF7B1FF2A006E
:1045E0002C3280239B01134310221A60084B2B634B
:1045F0000323AB64300070BD80221204D7E7C046AD
:104600000080034000E0004000F0004000C0004097
:1046100001030000F8B5DE4657464E464546E0B574
:1046200005000F0092460A9A934250D31A0E914603
:104630001E020A9A00233000494601F095FB80468D
:104640006C006419A400304B9C4664446368834248
:1046500000D260602B1FDBB29B46012B3DD9C023EB
:104660009B012343802212011A60AB00274A99580C
:10467000002907D0506901F039FB431C5800C018CD
:104680000338FDD253465A0123685A40E0231A40AA
:1046900080235B0123431A605A46012A28D98023CC
:1046A0009B012343802212011A6043466360424605
:1046B00000233000494601F057FBAD00134B585121
:1046C0000120F0BCBB46B246A946A046F8BD104B3F
:1046D000104A3321104800F05BF9012FBFD1C023ED
:1046E0009B01234303221A60A368DB07FCD5C9E7BB
:1046F0002168794003220A401A60A2680123BB4066
:104700001342FAD0CBE7C0460080004040050020AD
:10471000B086001024870010C486001030B583B026
:104720000C2000F011F9FEF7DDFA00280DD000236F
:1047300004E099002D4A2E4888500133092BF8D9FE
:104740002A4B2C4A5A6203B030BD2B4B00229A6789
:1047500000F002F9294B01221A60274B5B6C012BF8
:10476000FBD1274B03221A60234B9B6B012BFBD100
:10477000013300930433234A0121234800F054F805
:1047800005230093214A0121214800F04DF8214BD7
:104790000093002202210420FFF73CFF1E4D0095EC
:1047A0002B00002201210520FFF734FF104C00945C
:1047B0002300002200210720FFF72CFF0094230094
:1047C000002200210820FFF725FF0A4B0093230059
:1047D000002200210920FFF71DFF00952B00002279
:1047E00000210620FFF716FFADE7C0464005002078
:1047F000006CDC021BB70000008000403CB00040B1
:1048000030B00040002F685900800240008C86477D
:1048100000C00240001BB700405973078000014BE5
:10482000C058704740050020F0B5C64600B50400EA
:104830000E0017001D00374801F058FA8046364B2D
:10484000FA18364B9A4239D80100380001F04EFA76
:104850000200103A98235B009A4235D86B1E062B53
:1048600038D8069B013B062B34D83F09474537D340
:104870002D04069B1A0315432368002B36DB284BB7
:104880009C4244D080225201264B1A60264B1A606B
:10489000264B9B6811009943FAD12660A060231D26
:1048A000C02292011A43212313602368002BFCDAF3
:1048B000E5600823136080BCB846F0BD1C4B1D4A60
:1048C00011211D4800F064F81C4B1A4A19211A489E
:1048D00000F05EF81A4B174A1C21174800F058F8F0
:1048E000184B144A2321144800F052F822683F2341
:1048F0001340B342C3D1A3681B051B0D8342BED135
:10490000E368EE22D2021340AB42B8D1D3E7802253
:104910009201B9E7001BB70080E84BD380F8A932B9
:1049200000C0024000E0004000F0004000C0004035
:10493000348700107488001094870010F0870010EE
:104940000C8800105888001080239B000343014A04
:10495000D362704700800540074BAA2212011A60FB
:104960002132FF32DA60054B054A1A60024B5B6860
:10497000002BFBDA7047C046004002400060024056
:1049800000B0FA0000BEFDE710B5FFF7FBFF000026
:1049900010B582B00C001900002A0CD0084B002A78
:1049A0000BD00192009323000200064802F094FB12
:1049B0000120FFF7E7FF044BF1E7034AF1E7C046A8
:1049C0008088001090880010807A001070B52B4B02
:1049D0002B4A1A602B4B2C4A1A602C4B9A682A4B94
:1049E0009343FAD12A4C01E008CC9847294B9C42CA
:1049F000FAD3FFF793FE234B274A1A60234B9B6899
:104A0000DB43DB01FAD1254B40229A675A671A67CC
:104A1000DA66234C09E0234B234A87212348FFF71A
:104A2000B7FF2000FEF7C8FB0834214B9C4209D297
:104A30002368002BF5D0012BEDD12000FEF7C9FB38
:104A40000834F2E71B4CA1681B4DC022280002F07D
:104A5000DDF9A560EFF30583002B00D000BEFEF763
:104A60007BF9FEF793FBFEF703FF144C01E008CC43
:104A70009847134B9C42FAD370BDC04600E00040FB
:104A8000BFCDFBFE00F00040FE7F3C0000C00040B8
:104A9000A0030020B0030020FFFFFF0100F0014051
:104AA00098030020C088001050890010E088001092
:104AB000A003002000ED00E000000020B003002073
:104AC000BC0300200FB400B583B0084802F0D4FA4C
:104AD000049B002B07D005A90191180002F0DCFA15
:104AE000034802F0C9FA0120FFF74CFF408900108B
:104AF000987A0010704710B5002802D00B684968FA
:104B0000984710BD0100002007E083001B185B00E0
:104B1000501C08601078C01830380A681378303B91
:104B2000DBB2092BF1D97047F0B5DE4657464E4649
:104B30004546E0B583B093461F000C9B9A460D9CFA
:104B40000E9B99460F9B9B0703D0B8460F000600AB
:104B500022E00192A34688464E46B9460700B44279
:104B600007D2551C4B4641462020B84701342A0045
:104B7000F5E73D004F465C46019B9B46B1464646E5
:104B8000B84637002E0007E0013C551C5346185D1F
:104B900043463900B0472A00002CF5D135003E00CD
:104BA00047460F9B9B0707D4100003B0F0BCBB46E1
:104BB000B246A946A046F0BDB0464E46B9462F00C3
:104BC0005D46531BB342EFD2541C4B464146202056
:104BD000B8472200F5E7F0B5CE46474680B585B028
:104BE000944698460C9D0D9C0EAB1B789946109AE6
:104BF000119B129EB7071CD4002B0CD0F7070AD5C7
:104C00004F46002F02D10C37374204D0013B02E05F
:104C100030272F550134944201D21F2CF8D9F707C1
:104C200007D59C4205D21F2C03D830272F550134BD
:104C3000F5E7F70615D5770505D4002C03D0944287
:104C400024D09C4222D00F9A102A2BD00F9A102ADF
:104C500030D00F9A022A35D01F2C02D830222A5584
:104C600001341F2C05D84A46002A31D02D222A555E
:104C70000134039602930194009543466246FFF780
:104C800053FF05B0C0BCB946B046F0BD621E012C52
:104C900006D00F9F102F01D01400D4E7023CD2E7BA
:104CA0001400D0E7B206D1D41F2CCFD878222A55D1
:104CB0000134D1E7B206CCD51F2CCAD858222A55C8
:104CC0000134C9E71F2CC7D860322A550134C3E725
:104CD000720703D52B222A550134CAE73207C8D5FB
:104CE00020222A550134C4E7F0B5DE4657464E4629
:104CF0004546E0B593B081468A46089209931CABBD
:104D000010CB1B789B461E9D219B9846002C03D1FF
:104D1000102342469A4390468023DB0046461E40BD
:104D200042461A4212D0002C22D000260EE0303328
:104D3000D9B2771C0AAB99552900200000F0D6FFA4
:104D4000AC4216D31F2F14D83E00040029002000C7
:104D500000F0CCFFCBB2092BE9D94246920605D52B
:104D60004121C918C9B20A39C9B2E2E76121F8E79D
:104D7000270043460693209B05931F9B04930395AE
:104D80005B46029301970AAB0093099B089A514630
:104D90004846FFF720FF13B0F0BCBB46B246A94619
:104DA000A046F0BDF0B5DE4657464E464546E0B556
:104DB00095B0089009910A920B931E9E1F9C20AB00
:104DC0001B789B46229B9946239D269B9A4633003F
:104DD000234303D1103352469A4392468023DB008B
:104DE00057461F4052461A4219D0330023432DD054
:104DF000002714E03033DAB27B1C98460CABDA554E
:104E00004A462B003000210000F0AEFFA5421FD81B
:104E100019D043461F2B1BD8474606000C004A46B4
:104E20002B003000210000F09FFFD3B2092BE1D905
:104E30005246920605D54122D218D2B20A3AD2B2CF
:104E4000DAE76122F8E7B145E3D901E000239846AB
:104E500053460693259B0593249B04934B4603934B
:104E60005B460293434601930CAB00930B9B0A9A5B
:104E700009990898FFF7AFFE15B0F0BCBB46B246E3
:104E8000A946A046F0BD0000F0B5DE4657464E46A6
:104E90004546E0B591B083468A460C9298461A9CE6
:104EA00008941B9D099522002B002000290001F089
:104EB000E6F9002800D0E5E001225242D74B20005D
:104EC000290001F0D7F9002800D0DBE0012252428E
:104ED000D34B2000290001F0B7F9002800D0D1E021
:104EE00000220023089E3000099D290001F0ACF942
:104EF000002800D0DDE008980999069007918023EA
:104F0000DB001E9A1A400D921E9A1A4201D1062306
:104F10001C930698079904000D000A00060002433E
:104F200000D1D1E0080D4005400DBE4CA4466044C0
:104F30000A03120BBC4B13431F0001F0B3F9BB4A29
:104F4000BB4B01F03EF9BB4ABB4B01F013F9040027
:104F50000D000022B94B3000390001F002F9B84AC7
:104F6000B84B01F02EF902000B002000290001F0DF
:104F700001F901F0AFF9814601F094F904000D0048
:104F8000B14AB24B01F01DF90022B14B01F0F2F829
:104F900001F0A0F90600AF4AAF4B2000290001F054
:104FA00010F904000D00300001F07CF9AB4AAC4B65
:104FB00001F007F902000B002000290001F0D1F8F0
:104FC00004000D0002000B0001F0FBF80A900B91A9
:104FD000A44BF31800261F0522002B0020002900F7
:104FE00001F0C8F80E900F9122002B0000208021C4
:104FF000C90501F0B6F804000D0000229A4B0A988A
:105000000B9901F0C0F80022984B01F0B3F80200B0
:105010000B000A980B9901F0B6F80022944B01F0AE
:10502000A9F802000B000A980B9901F0ACF80200F5
:105030000B002000290001F09DF802000B000E98E3
:105040000F9901F0A0F80022774B01F093F832009D
:105050003B0001F0B6F806000F0004000D00069AB0
:10506000079B01F007F9002830D001235B429C46E2
:10507000E14400227D4B3000390001F084F8040047
:105080000D0023E01E9B04931D9B03931C9B029326
:10509000089A099B0092019343460C9A5146584640
:1050A00000F0FCF811B0F0BCBB46B246A946A046E1
:1050B000F0BD0023002406930794069680231B0668
:1050C0009C46654407951AE7002399464B4663338F
:1050D000C62B1ED804261E9B1B0526D52B0023435A
:1050E0000FD0644A644B0698079901F0BBF800287A
:1050F00079D00022614B0698079901F0A5F80028A5
:1051000071D01C9B4B4506DD4A46981A431E1C93E2
:1051100003E00526DFE700231C938023DB001E9AB3
:105120001A431E920026002399461D9B9E4264D27C
:105130009F1B02231E9A1A400A921E9A134202D003
:10514000002E00D000274B46002B07D022002B005A
:105150000698079901F017F806900791002200239E
:105160000898099901F070F8002848D1444B1E9A1C
:105170001340049303971C9B0293069B079C009388
:10518000019443460C9A5146584600F087F8002E89
:1051900000D187E71E9B9B063DD54525441C434611
:1051A000020051462800D8474B46DA179B18534057
:1051B00005220592013E0496002203920A320292D1
:1051C0004A46D00F0190009343462200514658466C
:1051D000FFF78AFD0A9B002B00D163E702005F46C0
:1051E0000C9E1D9D54E01C9B002B9ED00D9B002B04
:1051F0009BD01C9B013B1C9397E7002799E7069CDB
:10520000079D2200290080200006844661440B008F
:1052100006920793AAE76525C0E7C046FFFFEF7F28
:10522000FFFFEFFF01FCFFFF0000F03FFB799F5005
:105230001344D33FB3C8608B288AC63F0000F83FB1
:1052400061436F63A787D23F71A379094F930A40E7
:105250000000E03F1655B5BBB16B0240EF39FAFED6
:10526000422EE63FFF03000000002C4000002440D7
:10527000000018402D431CEBE2361A3F80842E417B
:10528000FFF7FFFF541C434651462020B847220039
:10529000931BAB42F6D3100004E7C046F0B5DE46E0
:1052A00057464E464546E0B595B006900791934661
:1052B0009946209F1E9A1F9B1000190000F0DFFFE7
:1052C000002831D101225242BF4B1E981F9900F095
:1052D000BBFF002837D101225242BC4B1E981F99B8
:1052E00000F0C8FF00283DD10022B94B1E981F993D
:1052F00000F0C0FF002850D10022B64B1E981F9925
:1053000000F0A2FF002848D1002200231E981F9918
:1053100000F09AFF002850D100239846229B5B059D
:1053200000D4B6E0002458E0229B0393219B029313
:1053300003230193A84B00934B465A4607990698BE
:10534000FFF7F2FB0EE1229B0393219B02930423C0
:105350000193A24B00934B465A4607990698FFF7D4
:10536000E3FBFFE00423229A1A4022990B4210D05B
:105370009B4B002A0FD0042222990391219902917C
:10538000019200934B465A4607990698FFF7CCFBCB
:10539000E8E0944BEDE70322EEE7229B0493219B88
:1053A000039302971E9B1F9C009301944B465A4601
:1053B00007990698FFF768FDD4E01E9A1F9B00200E
:1053C000002100F0CEFE1E901F9101239846A5E714
:1053D0000CAB30221A55013F01341F2C01D8092F84
:1053E000F6D81E981F9900F075FF050000F05AFFCF
:1053F00002000B001E981F9900F0B3FEFA007A4BD2
:105400009B181A685B680A920B9300F0DAFE08900A
:10541000099100F083FF060000F040FF02000B003E
:105420000898099900F09DFE0890099100226F4BA1
:1054300000F020FF00282ED00136300000F02EFFB3
:1054400002000B000A980B9900F004FF002801D01D
:1054500001350026002F2CD1280000F023FF020088
:105460000B001E981F9900F07CFE06000F00002222
:105470005E4B00F0E9FE002846D100225B4B300075
:10548000390000F0F7FE00283ED1EB073CD501358E
:105490003AE0062746E70022544B0898099900F0A5
:1054A000D3FE0028D6D1002E01D0F307D2D5013685
:1054B000D0E7AA461F2C11D8013F0A21300000F086
:1054C00015FC651C30310CAB19550A21300000F079
:1054D0000DFC092E0ED906002C00EBE755461F2CBB
:1054E0000CD87B1E002F09D00CAA302111551F00AB
:1054F0000134F4E72B0055461C00F0E71F2C03D8BD
:105500000CAB2E221A5501341F2C10D80A2128006A
:1055100000F0C4FB661C30310CAB19550A21280081
:1055200000F0BCFB051E01D03400EDE7340003237E
:10553000229A1340012B1CD01F2C06D84346002B67
:1055400032D00CAB2D221A550134229B0393219BA0
:10555000029301940CAB00934B465A460799069868
:10556000FFF7E2FA15B0F0BCBB46B246A946A0462A
:10557000F0BD219B002B13D04346002B02D10C33EE
:1055800013420FD0219B013B2193190003E00CAB88
:1055900030221A5501348C42CED21F2CF7D9CBE7DA
:1055A0002199F8E72199F6E7229B5B0704D50CAB1C
:1055B0002B221A550134C8E7229B1B07C5D50CAB1B
:1055C00020221A550134C0E7FFFFEFFFFFFFEF7FF6
:1055D00065CDCD4165CDCDC16C89001070890010BD
:1055E0006489001060890010588B00100000E03FB3
:1055F000F0B5DE4657464E464546E0B593B0824686
:105600008B4690461193002900D1EBE200275546C6
:10561000119B1878002800D1E7E2252809D07C1CCE
:1056200043463A005946A847119B0133119327007E
:10563000EEE7013311930024119A11780B00203BFF
:10564000D8B2102803D88300D048C3589F460B0017
:10565000303BDBB2092B2CD92A292FD000230A9307
:10566000119B1A782E2A39D000239A46119A137862
:10567000683BD9B2122976D88B00C549CB589F46D2
:1056800001231C4301321192D6E702231C4301324D
:105690001192D1E704231C4301321192CCE7082375
:1056A0001C4301321192C7E710231C4301321192AF
:1056B000C2E711A8FFF726FA0A90D1E71C9B1A1D32
:1056C0001C921868002804DB0A90119B0133119387
:1056D000C6E702231C4343420A93F6E78022D20026
:1056E00014435A1C11925A781300303BDBB2092B39
:1056F00004D92A2A07D000239A46B7E711A8FFF752
:1057000001FA8246B2E71C9B1A1D1C9218680028F9
:1057100004DB8246119B01331193A7E70020F8E7D1
:1057200080235B002343511C119152786C2A01D0D5
:105730001C0018E0C0239B001C430131119112E0B2
:1057400080232343511C11915278682A01D01C00F8
:1057500009E0C0231C430131119104E080235B0068
:105760001C4301321192119B18780300253BDAB2D9
:10577000532A00D92CE29300864AD3589F468023AF
:105780009B001C4301321192EDE780235B001C4318
:1057900001321192E7E7782809D0582838D06F28CD
:1057A00038D0622838D010239C430A2600E0102607
:1057B000582833D0692803D0642801D00C229443A0
:1057C000630501D50122944369282AD0642828D092
:1057D000A30500D59FE0E30500D5B8E0630600D43B
:1057E000CAE01C9A111D1C911168FF220A40059401
:1057F0000A9B04935346039302960023019300925D
:1058000043463A0059462800FFF76EFA070027E0A2
:105810001026CDE70826CBE70226C9E7202214434D
:10582000C8E7A30520D4E30550D4630666D51C9AC7
:10583000111D1C911168FF220A40D317D11859403D
:1058400005940A9B0493534603930296D20F019248
:10585000009143463A0059462800FFF745FA0700F1
:10586000119B01331193D3E61C9BDA1D07218A4358
:10587000110008311C91116853689C46DB170C938A
:105880000D930C9A0D9B100048400E9062465340B9
:105890000F930E980F990C9A0D9B801A99410E90B8
:1058A0000F9108940A9B079353460693049600238E
:1058B00005936346DA0F02920090019143463A0045
:1058C00059462800FFF76EFA0700C9E71C9A111D18
:1058D0001C911268D317D118594005940A9B049360
:1058E000534603930296D20F0192009143463A0029
:1058F00059462800FFF7F8F90700B1E7230605D558
:105900001C9A111D1C910023D25E96E71C9A111D52
:105910001C91126891E71C9BDA1D07218A43110034
:1059200008311C9108940A9B0793534606930496EA
:10593000002305930293136854680093019443462F
:105940003A0059462800FFF72DFA070088E71C9A0D
:10595000111D1C9105940A9B0493534603930296D0
:10596000002301931368009343463A0059462800E8
:10597000FFF7BAF9070073E723060DD51C9A111D2E
:105980001C9112681204120C31E7C046788900108D
:10599000BC890010088A00101C9A111D1C91126805
:1059A00025E746281AD01C9B0733072293431A0089
:1059B00008321C9204940A9A0392524602925C683E
:1059C0001B680093019443463A0059462800FFF7AC
:1059D00065FC0700119B0133119319E620231C433A
:1059E000E1E7672801D0472802D180231B011C432F
:1059F000452801D0472801D120231C431C9B073395
:105A0000072293431A0008321C9204940A9A0392C4
:105A1000524602925C681B680093019443463A0028
:105A200059462800FFF730FA0700119B0133119304
:105A3000EEE502231A002240924623421FD00124A1
:105A40001C9B1A1D1C927A1C9146187843463A00FA
:105A50005946A8475346002B16D1119B0133119389
:105A60004F46D5E5561C434659462020B8472300EB
:105A700032005C1C9D42F5D83D001700E0E7012391
:105A80003A002F000A9DF4E74A46A9460A9D06E01F
:105A9000571C434659462020C84734003A00661C2C
:105AA000A542F5D84D469146D7E71C9B1A1D1C927E
:105AB0001B6899465346002B00D1013B4E4601E03E
:105AC000013613003278002A02D05A1E002BF7D17B
:105AD0004B46F21A10928023DB0026001E401C4227
