:020000041000EA
:1000000000B5324B212058609868022188439860DF
:10001000D860186158612E4B002199600221596106
:100020000121F02299502B49196001219960352056
:1000300000F044F80222904214D00621196600F024
:1000400034F8196E01211966002018661A6600F04E
:100050002CF8196E196E196E052000F02FF8012189
:100060000842F9D1002199601B49196000215960AB
:100070001A491B48016001219960EB211966A021F2
:10008000196600F012F800219960164914480160C1
:100090000121996001BC002800D000471248134993
:1000A000086003C880F30888084703B5996A0420EC
:1000B0000142FBD001200142F8D103BD02B5186610
:1000C0001866FFF7F2FF186E186E02BD00000240BE
:1000D000000000180000070000035F00212200005C
:1000E000F4000018222000A00001001008ED00E03C
:1000F00000000000000000000000000074B24E7A12
:1001000000200420F7010010C3010010C5010010F9
:10011000C1010010C1010010C1010010C101001097
:10012000C1010010C1010010C1010010C701001081
:10013000C1010010C1010010C9010010CB01001065
:10014000CD010010CD010010CD010010CD01001037
:10015000CD010010CD010010CD010010CD01001027
:10016000CD010010CD010010CD010010CD01001017
:10017000CD010010CD010010CD010010CD01001007
:10018000CD010010CD010010CD010010CD010010F7
:10019000CD010010CD010010CD010010CD010010E7
:1001A000CD010010CD010010CD010010CD010010D7
:1001B000CD010010CD010010CD010010CD010010C7
:1001C00000BE00BE00BE00BE00BE00BEEFF3058054
:1001D000103800BEF2EB887120A2001048A2001077
:1001E0003402001090A31AE700201F49086006C8D7
:1001F00081F3088810471D48006800282FD10DA4FE
:100200000ECC002902D000F012F8F9E71849194A7B
:10021000002000E001C19142FCD1174988471749ED
:1002200088471749884700BEFDE701C901C29A42C5
:10023000FBD3704748A20010C00000206C070020CC
:10024000F4A800100000042000000420F4A800100E
:10025000001004200010042000000000704709482E
:1002600006F0E4FA0047000008ED00E0000000D0CE
:1002700070070020000C0020755500106904001064
:10028000315500105756000006005250ABB3605372
:10029000D4A0001006005250861C0302E4A00010F7
:1002A000060052505422A29DF8A0001005005250A2
:1002B000DE65F468F4A80010F8B5C04610B5064C29
:1002C0002378002B07D1054B002B02D0044800E017
:1002D00000BF0123237010BD900800200000000023
:1002E000E88C0010044B10B5002B03D003490448E0
:1002F00000E000BF10BDC0460000000094080020D0
:10030000E88C0010F0B5DE4657464E464546E0B54F
:1003100097B0070001A801910292039304AD2B004E
:1003200016C816C31C002CAB220043CB43C207994E
:10033000049807F038FB824610906168059807F032
:1003400032FB81461190A168069807F02CFB80468D
:1003500012900C2210A9280008F004F829AB220002
:1003600043CB43C25146079807F03DFB82461390AA
:100370004946606807F037FB814614904146A06803
:1003800007F031FB80461590220020AB43CB43C2DF
:1003900043CB43C243CB43C213A80EC80EC551463C
:1003A000079807F020FB051C4946606807F01BFB17
:1003B000011C281C07F0FCFA051C4146A06807F048
:1003C00012FB011C281C07F0F3FA38605146E06864
:1003D00007F009FB051C4946206907F004FB011CD6
:1003E000281C07F0E5FA051C4146606907F0FBFA96
:1003F000011C281C07F0DCFA78605146A06907F060
:10040000F2FA051C4946E06907F0EDFA011C281CC8
:1004100007F0CEFA051C206A414607F0E4FA011CF9
:10042000281C07F0C5FAB860380017B0F0BCBB460E
:10043000B246A946A046F0BD10B5012800D010BDB7
:10044000054B9942FBD10549054B186807F0B5FAF1
:10045000044B1860F3E7C046FFFF00000000344380
:1004600038020020C4090020F0B5DE4657464E464B
:100470004546E0B5314CA54408F0E6F804F090FAA2
:1004800093A92F4C0B00220023CA23C323CA23C3E2
:1004900023CA23C390AA2300243323CB23C20021E1
:1004A0008D918E918F9184A80300220061CA61C34F
:1004B00061CA61C361CA61C381AA2300243361CBCD
:1004C00061C27E917F91809175A80300220061CA6C
:1004D00061C361CA61C361CA61C37291739174914E
:1004E00064216CA801F0F6F94FA800F06DFC49AA50
:1004F0003034130007CC07C307CC07C349A9180041
:1005000000F0F4FB0623009311330522042148A8D0
:1005100001F0C0FA48A801F0C5FA48A801F086FB2E
:1005200048A801F095FB48A802F08CF848A802F012
:1005300075F9FA20C00004F07FF942E064FDFFFF86
:100540000C8D0010381C07F0C7FCCF4907F04BFAA0
:100550002B90211C484607F046FA071C311C281C2A
:1005600007F041FA051C211C201C07F03CFA011C75
:10057000404607F018FA041C291C381C07F018FA2A
:10058000211C07F02DFBC04907F02DFA2C904FA934
:1005900033A801F0CDF82B9E2C9F2A9807F0F0FA93
:1005A00004000D00381C07F0EBFA02900391301C98
:1005B00007F0E6FA0090019122002B00B34808F002
:1005C00037F848A93CA802F083FE409B9846419D1D
:1005D000429B1093439A9246449A9146459C469F6B
:1005E000479E08F011FB119018AA9346109B189390
:1005F000130052465A604A469A601BAB99461B95B7
:1006000042461C921D9580231B069C4664441EABEB
:1006100098461E941F9720968DAB0CAD2A0092CB66
:1006200092C209AC220083CB83C26A4683CB83C2C9
:1006300083CB83C283CB83C218995B465A689B687D
:1006400014A8FFF75FFE5B4614AA83CA83C37EAB80
:1006500086CB86C526CB26C46A4632CB32C232CB85
:1006600032C232CB32C21B994B465A689B6814A8DF
:10067000FFF748FE4B4614AA32CA32C321AE3300FC
:10068000424632CA32C32AAD75AB2A0092CB92C21F
:1006900092CB92C292CB92C224AF0C2272A93800A4
:1006A00007F060FE33AC230007CE07C327AE33004C
:1006B00007CF07C32799339807F075F9A3AF1090B8
:1006C000A3902899349807F06EF91290A490299974
:1006D000359807F068F91390A590230007CD07C35C
:1006E00007CD07C307CD07C335000ECF0EC533991D
:1006F000109807F078F9051C3499129E301C07F009
:1007000072F9011C281C07F053F9051C3599139F39
:10071000381C07F068F9011C281C07F049F9A09063
:100720003699109807F05FF9051C3799301C07F0CF
:100730005AF9011C281C07F03BF9051C3899381C94
:1007400007F051F9011C281C07F032F9A1903999E2
:10075000109807F048F9051C3A99301C07F043F946
:10076000011C281C07F024F9051C3B99381C07F0D4
:100770003AF9011C281C07F01BF9A2900C22A0A931
:10078000404607F0EFFD5B469B680093189A5B4676
:100790005B686CA914A801F0B9F85B4614AAA2CA58
:1007A000A2C33B4D119E2B68F01A07F070F939492E
:1007B00007F003F92E60069003AB424623CA23C319
:1007C0006B464A4623CA23C318995B465A689B68FE
:1007D0004FA800F00DFB9CAD4FA9280000F0A0FF32
:1007E000230007CD07C32A681A60359D291C281CE1
:1007F00007F0F9F8011CFC20800507F0D4F88046CA
:10080000339B9946349E311C181C07F0ECF8824645
:10081000369C211C281C07F0E6F88346311C301C4E
:1008200007F0E1F8011C404607F0BDF8071C5946E7
:10083000504607F0BDF8391C07F0D2F9124907F00D
:10084000D2F82A904946281C07F0CDF8071C211C35
:10085000301C07F0C8F8011C381C07F0A4F8011C74
:1008600007F0A6F8071C0C4907F0FCF8002809D18E
:10087000FE218905381C07F0FDF8002800D161E64B
:10088000064862E6064860E6E02E6542E88C001005
:10089000B00800200000C842000080BFDB0FC93F45
:1008A000DB0FC9BF10B502490120FFF7C5FD10BD20
:1008B000FFFF0000F0B5DE4657464E464546E0B520
:1008C00085B004000D000B78012B49D0022B00D11C
:1008D00084E0002B04D0002303604360836037E092
:1008E000CB6998460F6A391C181C07F07CF88146C2
:1008F000AE696B6A9A46191C301C07F074F8011C2B
:10090000484607F055F801AD0190311C301C07F046
:100910006AF8FC21890507F046F88146391C381C25
:1009200007F061F8011C484607F042F80290514672
:10093000381C07F058F8071C311C404607F053F8E4
:10094000011C381C07F02FF80390230007CD07C3C4
:10095000200005B0F0BCBB46B246A946A046F0BD9B
:100960008F69391C381C07F03EF8011CFC208005FB
:1009700007F019F8061CEB699846191C181C07F0BB
:1009800032F8011C301C07F00EF801AE01906B6AC2
:100990009B46191C381C07F026F881462D6A291C35
:1009A000404607F020F8011C484606F0FCFF029084
:1009B0005946404607F017F88046291C381C07F0B6
:1009C00012F8011C404606F0F3FF80231B069C46EC
:1009D00060440390230007CE07C3B9E7CB699A466A
:1009E0000E6A311C181C06F0FEFF8046AF696B6A68
:1009F0009946191C381C06F0F6FF011C404606F00B
:100A0000D7FF80231B069C46604401AD0190391C32
:100A1000381C06F0E8FF011CFC20800506F0C3FF2F
:100A20008046311C301C06F0DEFF011C404606F0FB
:100A3000BAFF0290391C504606F0D5FF071C494604
:100A4000301C06F0D0FF011C381C06F0ACFF0390F0
:100A5000230007CD07C37BE7F0B5DE4657464E4679
:100A60004546E0B59BB0040001A8019102920393B2
:100A700005AD2B0046C846C31F000C2224A9180050
:100A800007F070FC0EAE330007CD07C30BAD2B0093
:100A900007CF07C30B990E9806F0A5FF071C14900B
:100AA0000C990F9806F09FFF804615900D991098AD
:100AB00006F099FF051C16900C2214A9300007F0CF
:100AC00051FC4146381C06F073FF011C281C06F03F
:100AD0006FFF002106F0C0FF002843D10BAD01AB32
:100AE0002A0043CB43C20C2224A90EA807F03AFCEB
:100AF0000C9E109B9A46191C301C06F074FF071CB4
:100B00000D9D0F9B9846191C281C06F06CFF011CBC
:100B1000381C06F048FF20600E9F391C281C06F088
:100B200062FF81460B9D291C504606F05CFF011CAC
:100B3000484606F038FF6060291C404606F053FF27
:100B4000051C391C301C06F04EFF011C281C06F049
:100B50002AFFA06020001BB0F0BCBB46B246A946ED
:100B6000A046F0BD01AB0BAA23CB23C215000C227B
:100B700024A9280007F0F6FB0C9B9846AB689B461F
:100B8000191C404606F02FFF071C0D9B9A466B6808
:100B90001E1C191C504606F026FF011C381C06F0CE
:100BA00002FF11AF11900E9B9946191C504606F09A
:100BB0001AFF00900B9B9A46191C584606F013FF2B
:100BC000011C009806F0EFFE12905146301C06F012
:100BD0000AFF82464946404606F005FF011C504682
:100BE00006F0E1FE139005AB984607CF07C31F0040
:100BF000424643CA43C30C223900280007F0B2FB27
:100C00000BAB07CF07C30B990E9806F0ECFE81469D
:100C100017AF17900C99686806F0E5FE82461890A9
:100C20000D99A86806F0DFFE061C19902B0007CF6F
:100C300007C35146484606F0BBFE011C301C06F0B7
:100C4000B7FE4310144EF61A144906F0CCFE011CF0
:100C5000301C06F0C8FE011C301C06F0C4FE011C4E
:100C60000F4806F0A0FE011C301C06F0BCFE061C5E
:100C70002B00424683CA83C30E99301C06F0B3FE94
:100C800020606968301C06F0AEFE6060A968301C08
:100C900006F0A9FEA0605DE712141F5F12D3363F75
:100CA000FF51D83FFE239B0583610023C36103628C
:100CB00043628362C36203633422012181540A4A7E
:100CC000826300223F31425443648364C3640365FA
:100CD000436583655C23C2540266436943662831D9
:100CE0004254C266036770470000204170B504009B
:100CF0000D000B7803704B6843608E680021301C38
:100D000006F0A2FE002835D12A49301C06F06BFE01
:100D1000A060EE680021301C06F096FE00282BD063
:100D20002548E0602E690021301C06F08DFE002869
:100D300031D0214820616B696361636623670021BC
:100D4000686806F081FE002802D16B69002B02D191
:100D5000194BE36023613423E35C002B01D163680A
:100D6000A3636168154806F01EFE154906F025FECE
:100D7000E06370BD1048CBE71249301C06F033FE2B
:100D800006F01AFFFC21890506F02DFE8021C90519
:100D900007F0C4F8C5E70B49301C06F024FE06F046
:100DA0000BFFFC21890506F01EFE8021C90507F016
:100DB000B5F8BFE748E17A3FFFFF7F7F00002041A1
:100DC0000000404035FA8E3C70B586B0040069469C
:100DD000064B0A0061CB61C261CB61C22000FFF704
:100DE00085FF2000FFF75EFF06B070BD548D001038
:100DF000F0B5DE4657464E464546E0B5DDB0834683
:100E00000F91109211930300283366AA13CA13C3DB
:100E10000F9B590049085B469C68201C06F01CFE8D
:100E200000280FD1109B59004908201C06F014FE21
:100E3000002807D1119B59004908201C06F00CFE20
:100E4000002814D01FAC5B461833250007CB07C51C
:100E50001B682B605846FFF725FF5B46183307CC0D
:100E600007C32A681A60402301225946CA54342312
:100E70005A46D35C002B1ED06C99D06B06F0B3FDA4
:100E8000011C5B46986B06F08EFD5B4698635C68C0
:100E9000211C06F0E1FD002805D10021201C06F0F0
:100EA000D3FD002807D05B469C63002334225946BB
:100EB0008B540C328B545B461B78012B42D9022B8E
:100EC00000D03BE15B469E691F6A391C301C06F06E
:100ED0008AFD041C5B46DB6998465B465D6A291CFB
:100EE000404606F080FD011C201C06F05CFD1FAC96
:100EF0001F90291C381C06F076FD071C4146301C4B
:100F000006F071FD011C381C06F052FD80231B0603
:100F10009C4660442090311C301C06F064FD011C8E
:100F2000FC20800506F03FFD061C291C281C06F04D
:100F30005AFD011C301C06F036FD21902FAB07CC6A
:100F400007C339E05B46DB6998465B465D6A291C4E
:100F5000404606F048FD041C5B469E691F6A391C2A
:100F6000301C06F040FD011C201C06F01CFD1FACCF
:100F70001F90391C281C06F036FD071C311C40460A
:100F800006F031FD011C381C06F012FD2090311CCA
:100F9000301C06F028FDFC21890506F004FD061C26
:100FA000291C281C06F01FFD011C301C06F000FD4A
:100FB00021902FAB07CC07C300212C912D912E91AE
:100FC0005C2301225846C2541FAB66AA31CA31C302
:100FD0001F9806F039FD00280CD00021209806F05B
:100FE00033FD002806D00021219806F02DFD0028B1
:100FF00000D0D0E015AD2B0066AA13CA13C31A00A7
:10100000290051C951C21FAC2200C1C9C1C20F0081
:101010000A0043CB43C21B991F9806F0E4FC8046AC
:101020004CAE4C907968209806F0DDFC81464D90DE
:10103000B968219806F0D7FC071C4E90230007CE14
:1010400007C34946404606F0B3FC011C381C06F0B5
:10105000AFFC4310D54EF61AD54906F0C4FC011C6E
:10106000301C06F0C0FC011C301C06F0BCFC011C4E
:10107000D04806F098FC011C301C06F0B4FC061C9D
:10108000230007CD07C31F99301C06F0ACFC32903B
:101090002099301C06F0A7FC33902199301C06F0F3
:1010A000A2FC34902FAB6A4613CB13C23299339A09
:1010B000349B0AA8FFF7D0FC0AAA5B46443313CA44
:1010C00013C334235A46D35C002B3CD12B0044324B
:1010D000290031CA31C11FAC2200190061C961C2A7
:1010E0000E000A0023CB23C21B991F9806F07BFC3D
:1010F000071C4FAD4F907168209806F074FC804635
:101100005090B168219806F06EFC061C51900ECDEF
:101110000EC44146381C06F04BFC011C301C06F086
:1011200047FC011C5B46D86806F0A4FC00280AD1E5
:101130005B461B6E01335A4613660BE000232F9368
:101140003093319338E75C2300225946CA540B6E22
:10115000093B0B665B461B6E5A46526E934200DC9F
:101160001EE1002259464A665C21584642545A46BE
:101170005269002B00DA17E1934200DC1A005B464B
:101180001A665C235A46D35C002B04D12CAA5B461A
:10119000443313CB13C2002129912A912B91682348
:1011A00001225846C2541FAA69AB31CB31C21F98E5
:1011B00006F04AFC00280CD00021209806F044FCE0
:1011C000002806D00021219806F03EFC002800D01F
:1011D0001AE1594612A8FFF76DFB1BAD2FAB2A0091
:1011E00013CB13C21FAC69AB220043CB43C21C9F7D
:1011F000219B0493191C381C06F0F5FB061C1D9B53
:101200009A46209B9946191C504606F0ECFB011C9F
:10121000301C06F0C8FB35AE35901F9B9846191C54
:10122000504606F0E0FB05901B9B9A46191C04985B
:1012300006F0D9FB011C059806F0B5FB3690514627
:10124000484606F0D0FB81464146381C06F0CBFBF1
:10125000011C484606F0A7FB379015AF3B0007CEB0
:1012600007C39C461A00390049C949C2220049C92E
:1012700049C22A00634643CB43C21B991F9806F01C
:10128000B2FB804652AE52901C99209806F0ABFB00
:10129000814653901D99219806F0A5FB051C54909A
:1012A000230007CE07C34946404606F081FB011CD8
:1012B000281C06F07DFB43103C4DED1A3C4906F01E
:1012C00092FB011C281C06F08EFB011C281C06F05A
:1012D0008AFB011C374806F066FB011C281C06F03F
:1012E00082FB051C230007CF07C31F99281C06F0AB
:1012F0007AFB38902099281C06F075FB39902199CB
:10130000281C06F070FB3A906B4612AA13CA13C34E
:101310003899399A3A9B0AA8FFF79EFB0AAA5B46BE
:10132000503313CA13C334235A46D35C002B43D122
:101330003B005032390031CA31C11FAC22003900A4
:1013400061C961C20E000A0023CB23C21B991F98FA
:1013500006F049FB071C55AD55907168209806F0C2
:1013600042FB80465690B168219806F03CFB061C73
:1013700057900ECD0EC44146381C06F019FB011CD7
:10138000301C06F015FB011C5B46186906F072FB69
:10139000002811D15B46DB6E01335A46D36612E05A
:1013A0005A4651695166E2E60022E8E612141F5FD0
:1013B00012D3363FFF51D83F682300225946CA5402
:1013C000CB6E093BCB665B46DB6E5A46126F93428F
:1013D00000DC97E1002259460A67682158464254CA
:1013E0005A465269002B00DA90E1934200DC1A0061
:1013F0005B46DA6668235A46D35C002B04D129AADF
:101400005B46503313CB13C21FAC0FAB220023CB70
:1014100023C2BF491F9806F0E6FA26AF0490269033
:10142000BB49606806F0DFFA05902790B849A068CC
:1014300006F0D9FA069028901BAD2CAB2E0007CBF6
:1014400007C6089629AB220043CB43C21F991B98BD
:1014500006F0AEFA3BAE07903B9061681C9806F030
:10146000A7FA80463C90A1681D9806F0A1FA099061
:101470003D905B469B6B9946230007CE07C30799B7
:10148000484606F0B0FA07903E904146484606F0BE
:10149000AAFA804670600999484606F0A4FA814687
:1014A000B0602B0007CF07C327000DCE0DC70499EE
:1014B000079806F07DFA071C23AE23900599404655
:1014C00006F076FA804624900699484606F070FAAF
:1014D0008146259022000BCE0BC2391C6C9806F079
:1014E00082FA41AE419041466C9806F07CFA4290F7
:1014F00049466C9806F077FA43905B461833220011
:1015000083CB83C2196811602A0083CE83C26268CC
:10151000111C8022120604918C46624410001B9F0D
:10152000391C06F060FA061CA0681C9A9046111C33
:10153000059006F058FA011C301C06F034FA061C1F
:10154000E2681D9B9946191C0692101C06F04BFA86
:10155000011C301C06F027FA44AE44901F9B0793F1
:10156000191C381C06F03FFA09904946059806F008
:101570003AFA011C099806F01BFA099006994046B0
:1015800006F031FA011C099806F00DFA459007990A
:10159000404606F028FA09904946049806F023FAD6
:1015A000011C099806F0FFF909900699381C06F00D
:1015B0001AFA011C099806F0FBF94690079948466B
:1015C00006F011FA81464146049806F00CFA011C17
:1015D000484606F0EDF980460599381C06F003FAF6
:1015E000011C404606F0DFF947905B4618332A009D
:1015F00083CB83C21A680492089B1A60230007CE2B
:1016000007C332681A601F991B9806F0D1F948AEDB
:10161000489061681C9806F0CBF94990A1681D9824
:1016200006F0C6F94A901E98E16806F0C1F94B90A1
:101630005B46183307CE07C332681A600C3B2200A2
:1016400023CB23C21B6813601F9B9946191C181CCF
:1016500006F0C9F9051C63689846191C181C06F0A9
:10166000C2F9011C281C06F0A3F9051CA768391C47
:10167000381C06F0B8F9011C281C06F099F9051C65
:10168000E668311C301C06F0AEF9011C281C06F07F
:101690008FF943101F4CE41A1F4906F0A4F9011CEE
:1016A000201C06F0A0F9011C201C06F09CF9011C6E
:1016B0001A4806F078F9011C201C06F094F9051C64
:1016C000011C484606F08FF958AC5890291C40463A
:1016D00006F089F95990291C381C06F084F95A90B3
:1016E000291C301C06F07FF95B90584618300ECC50
:1016F0000EC0236803605DB0F0BCBB46B246A9468D
:10170000A046F0BD5A465169116769E600226FE6AE
:1017100035FA0E3C12141F5F12D3363FFF51D83FEB
:1017200030B51831030034C934C30A681A6030BDBB
:10173000F0B5DE4657464E464546E0B589B0050051
:101740000C008B699A46191C181C06F04CF981464E
:10175000E3699846191C504606F045F90190276A3E
:10176000391C504606F03FF90290666A311C50461B
:1017700006F039F90390391C404606F034F904901C
:10178000311C404606F02FF90590311C381C06F03C
:101790002AF90690FC218905484606F004F983469B
:1017A0004146404606F01FF9011C584606F000F974
:1017B000A36A9A46191C06F016F980460399049804
:1017C00006F0F1F8E36A9946191C06F00CF9011CC1
:1017D000404606F0EDF807900599029806F0E8F803
:1017E000236B9846191C06F0FEF8011C079806F0BA
:1017F000DFF8011C06F0DCF828600499039806F075
:10180000D7F8011C504606F0EEF80390391C381C3E
:1018100006F0E9F8011C584606F0CAF8011C4846D3
:1018200006F0E1F8011C039806F0C2F8071C0199C4
:10183000069806F0B8F8011C404606F0D4F8011CE2
:10184000381C06F0B5F8011C06F0B2F86860029981
:10185000059806F0A8F8011C504606F0C4F8071CCD
:101860000699019806F0A4F8011C484606F0BBF85A
:10187000011C381C06F09CF8071C311C301C06F0BB
:10188000B2F8011C584606F093F8011C404606F0D9
:10189000AAF8011C381C06F08BF8011C06F088F829
:1018A000A8602378012B07D9022B0AD1FE218905D4
:1018B00006F07EF8A86004E0FE21890506F073F8C2
:1018C000A860280009B0F0BCBB46B246A946A046B5
:1018D000F0BD000070B504000D00080006F0D7F858
:1018E000011CFE20800506F068F8074906F07BF829
:1018F0002060A9004D1965600023A3600023E36008
:101900002361636170BDC046FDAD003E82B0F0B59D
:10191000DE4657464E464546E0B591B0050088463E
:101920001A921B9301AF3B001AAA13CA13C31E00DD
:1019300043460C33320013CB13C20499019806F0CE
:1019400032F881460AAC0A907168029806F02BF8CA
:1019500082460B900398B16806F025F8061C0C909F
:101960001AAB07CC07C34B4658004008374906F06E
:1019700089F800280ED1534658004008334906F034
:1019800081F8002806D170004008304906F07AF846
:10199000002811D00023424693602B001AAA13CAD4
:1019A00013C3280011B0F0BCBB46B246A946A046FE
:1019B000F0BC08BC02B0184743469B6842465268D8
:1019C000934207D20133424693602B001AAA13CAEE
:1019D00013C3E6E743461B689B4604AB1AAA83CAB7
:1019E00083C34946584605F0FEFF814607AF07907E
:1019F0005146584605F0F7FF82460890311C58467C
:101A000005F0F1FF8346099001AE43460C333200E6
:101A100013CB13C214000ECF0EC44946019805F033
:101A2000C7FF0DAC0D905146029805F0C1FF0E9016
:101A30000398594605F0BCFF0F9041460C310DCC80
:101A40000DC12B001AAA13CA13C3AAE70000404015
:101A500010B5012800D010BD084B9942FBD10849B0
:101A6000084B186805F0BFFF074B18600449074B87
:101A7000186805F0B8FF064B1860ECE7FFFF0000A0
:101A8000D7B35D3F40020020E8080020AC080020EA
:101A9000F40B002010B502AC247801704270837002
:101AA000C47010BD10B50400042001F0E3FE052051
:101AB00001F0E0FED0231B061021596220225A6259
:101AC00059615A61E0780D3901F0A2FEA078032136
:101AD00001F09EFEE0780022012101F0B1FEA07825
:101AE0000022012101F0ACFE0249034807F048F84A
:101AF00010BDC046801A060010030020F0B585B066
:101B000014001D000F226A441170C9B27F230B40DC
:101B100013700A4F39780A4E01230093300007F002
:101B20005BF80A2002F088FE3978002300932B002E
:101B30002200300007F05CF805B0F0BD4402002040
:101B40001003002000B585B06B4619735A73054B1E
:101B5000197800230093023303AA034807F03CF8E6
:101B600005B000BD4402002010030020F0B585B090
:101B700014001D000F226A441170C9B27F230B406C
:101B800013700A4F39780A4E01230093300007F092
:101B900023F80A2002F050FE3978002300932B002E
:101BA0002200300007F024F805B0F0BD4502002007
:101BB0001003002000B585B06B4619735A73054BAE
:101BC000197800230093023303AA034807F004F8AE
:101BD00005B000BD450200201003002030B585B0DF
:101BE0000F20684401706B469A73CAB27F2313407A
:101BF00003700C4D29780C4C012300930200200047
:101C000006F0EAFF0A2002F017FE2978002300936D
:101C100001330E226A44200006F0EAFF6B46987BEF
:101C200005B030BD440200201003002010B582B082
:101C30006B46DC1D012322000F21FFF75FFF217897
:101C4000024806F0F5FC02B010BDC0466C8D0010D5
:101C500010B582B06B46DC1D012322000F21FFF777
:101C600085FF2178024806F0E3FC02B010BDC046B3
:101C7000848D001070B5040038221E21FFF762FF2A
:101C8000304B1A785201304B1B78DB001A4352B2AA
:101C90002E4B1B781A43D2B210212000FFF752FFBF
:101CA000C82002F0C9FD38221F212000FFF74AFF9B
:101CB000274B1A785201274B1B78DB0013435BB28A
:101CC000254A12781A43D2B204231A43D2B22021F1
:101CD0002000FFF737FFC82002F0AEFD442222218A
:101CE0002000FFF72FFF1D4D2B785B018022524211
:101CF0001A4352B21A4B1B789B001A4352B2D2B20B
:101D000020212000FFF756FF164B1A785201D2B25D
:101D100021212000FFF74EFF002222212000FFF7A3
:101D200049FF2A789200D2B223212000FFF742FF18
:101D3000402224212000FFF73DFF0B4806F048FC1D
:101D400070BDC0463F020020F90B00203E0200207B
:101D50003D020020F80B00203C020020460200203B
:101D600047020020FA0B00209C8D0010F0B5DE46E3
:101D700057464E464546E0B58FB007008B46914624
:101D80000023D04A11680B9191880BAA9180089387
:101D900009930A9305930693079338221E21FFF7B0
:101DA000D1FEC94B1A785201C84B1B78DB001A438D
:101DB00052B2C74B1B781A43D2B210213800FFF73A
:101DC000C1FEC82002F038FD38221F213800FFF77D
:101DD000B9FEC04B1A785201BF4B1B78DB0013438E
:101DE0005BB2BE4A12781A43D2B204231A43D2B26B
:101DF00020213800FFF7A6FEC82002F01DFD442276
:101E000022213800FFF79EFE2F2402AB9C4664443B
:101E10000123220023213800FFF770FE22780223DD
:101E20001A43D2B223213800FFF78CFE322002F091
:101E300003FD3F222E213800FFF784FEFA208000A8
:101E400002F0FAFC00222F213800FFF7C7FE82467D
:101E500083B2984600262DE003AD00232B806B80D3
:101E6000AB800BAC0633220018213800FFF746FE8A
:101E700063781B022178194309B22980E3781B0299
:101E8000A2781A4312B26A80607900022379034370
:101E90001BB2AB800898844661440891099901916E
:101EA0008C46624409920A9A0192944663440A93CA
:101EB0000136B6B24645CFD35146089804F0E2FC4D
:101EC000040008905146099804F0DCFC06000990D3
:101ED00051460A9804F0D6FC05000A90200005F04F
:101EE000DBFD7F4C216805F07EFD5B46186030000D
:101EF00005F0D2FD2468211C05F075FD5B46586095
:101F0000280005F0C9FD011C201C05F06CFD5B4696
:101F100098602E2402AB9C466444012322002321B6
:101F20003800FFF7EBFD227802239A432321380083
:101F3000FFF708FE322002F07FFC00222E2138003D
:101F4000FFF700FE2D2402AB9C46644401232200CF
:101F500023213800FFF7D2FD227802231A43D2B2A0
:101F600023213800FFF7EEFD322002F065FC3F220E
:101F70002E213800FFF7E6FDFA20800002F05CFC1D
:101F800000222F213800FFF729FE824683B29846AF
:101F900000262DE003AD00232B806B80AB800BACC3
:101FA0000633220028213800FFF7A8FD63781B02C2
:101FB0002178194309B22980E3781B02A2781A43D9
:101FC00012B26A8060790002237903431BB2AB80AE
:101FD0000598844661440591069901918C466244B6
:101FE0000692079A01929446634407930136B6B26B
:101FF0004645CFD35146059804F044FC06000590B1
:102000005146069804F03EFC05000690514607989C
:1020100004F038FC041E079045DD324B186805F0CB
:10202000AFFD02000B0000202F4904F0A0FE04F0D9
:1020300045FF241A0794300005F02EFD294C216835
:1020400005F0D1FC4B461860280005F025FD2468FA
:10205000211C05F0C8FC4B465860079805F01CFD94
:10206000011C201C05F0BFFC4B4698600DAC012301
:10207000220023213800FFF741FD227802239A43F2
:1020800023213800FFF75EFD322002F0D5FB00224D
:102090002E213800FFF756FD0FB0F0BCBB46B2460C
:1020A000A946A046F0BD0F4B186805F069FD020077
:1020B0000B0000200C4904F05AFE04F0FFFE241827
:1020C0000794B8E7CC9000103F020020F90B0020E5
:1020D0003E0200203D020020F80B00203C020020C0
:1020E00068090020B40800200000F03FF0B5DE468B
:1020F00057464E464546E0B58FB0040000230B938B
:102100000C930D93089309930A93059306930793F1
:1021100002930393049300222421FFF713FD0BAADB
:1021200005A92000FFF722FE052224212000FFF749
:1021300009FD08AA02A92000FFF718FE05990298D8
:1021400005F031FC051C039B0093069B0193191CB1
:10215000009805F028FC81460498079905F023FCB7
:102160008246574806F034FA564F380006F060FAB7
:10217000281C05F005FD02000B00534D280006F059
:1021800057FA524B9846180006F052FA504E30005B
:1021900006F01EFA4F4B9B46180006F049FA4846D7
:1021A00005F0EEFC02000B00280006F041FA404664
:1021B00006F03EFA300006F00BFA474B994618003D
:1021C00006F036FA504605F0DBFC02000B00280052
:1021D00006F02EFA404606F02BFA300006F0F8F929
:1021E0000A2006F0C1F90A2006F0BEF90B990898FA
:1021F00005F0D9FB394905F0F6FB061C099B009355
:102200000C9B0193191C009805F0CDFB334905F098
:10221000EAFB82460A980D9905F0C5FB2F4905F0A7
:10222000E2FB80462E4806F003FA380006F000FA7A
:10223000301C05F0A5FC02000B00280006F0F8F9A0
:10224000284F380006F0F4F9274E300006F0C0F9A8
:10225000584606F0EDF9504605F092FC02000B00DE
:10226000280006F0E5F9380006F0E2F9300006F043
:10227000AFF9484606F0DCF9404605F081FC020063
:102280000B00280006F0D4F9380006F0D1F9300030
:1022900006F09EF90A2006F067F90A2006F064F9B4
:1022A000002224212000FFF74DFCC82002F0C4FAD0
:1022B0000FB0F0BCBB46B246A946A046F0BDC04632
:1022C000B48D0010D08D0010DC8D0010E08D00105A
:1022D000E88D00100C8E0010188E001000007A445B
:1022E000248E0010488E00104C8E0010F0B5CE46A3
:1022F000474680B58DB007008846002307930893B2
:10230000099305AA13805380938003AA13805380F6
:102310009380684C23785B01802252421A4352B268
:10232000654B1B789B001A4352B2D2B22021FFF7B3
:1023300041FC624B1A785201D2B221213800FFF7DA
:1023400039FC002222213800FFF734FC2278920069
:10235000D2B223213800FFF72DFC4022242138007F
:10236000FFF728FC564806F033F9FA20000102F086
:1023700063FA00261AE00133022B12DC5A0001A98D
:10238000515E05A8125E914202DD5A0005A8115265
:102390005A0003A8125E9142EDDA5A0003A81152C6
:1023A000E9E7692002F048FA0136B6B27F2E1CD860
:1023B00001AD00232B806B80AB800AAC063322007A
:1023C00028213800FFF7D2FB6278120223781343EA
:1023D0002B80E2781202A37813436B806279120299
:1023E00023791343AB800023C6E705A900228B5E47
:1023F00003AA0020165E9B19DE0FF61876100796CA
:1024000002200B5E0220155E5B19DD0FED186D10CA
:1024100008950423CB5E0424145F1B19DC0FE41819
:1024200064100994300005F037FB264B9946196873
:1024300005F0D9FA43461860280005F02DFB4B46FD
:102440001B689946191C05F0CEFA434658602000D7
:1024500005F022FB011C484605F0C5FA434698608A
:10246000F2B205213800FFF7A5FBB2B2120A06212D
:102470003800FFF79FFBEAB207213800FFF79AFB0D
:10248000AAB2120A08213800FFF794FBE2B2092130
:102490003800FFF78FFBA2B2120A0A213800FFF7BB
:1024A00089FB094806F094F80DB0C0BCB946B046A7
:1024B000F0BDC0464602002047020020FA0B002073
:1024C000708E00108C090020AC8E001010B582B008
:1024D0000C0006236A462821FFF710FB6B465A784A
:1024E00012021B78134323806B46DA7812029B7822
:1024F000134363806B465A7912021B791343A380FE
:1025000002B010BD10B582B00C0006236A46182137
:10251000FFF7F4FA6B465A7812021B7813432380B4
:102520006B46DA7812029B78134363806B465A79C4
:1025300012021B791343A38002B010BD10B582B004
:102540000C0006236A462821FFF710FB6B465A78D9
:1025500012021B78134323806B46DA7812029B78B1
:10256000134363806B465A7912021B791343A3808D
:1025700002B010BD0F4B1B78022B15D008D8002BD2
:102580000DD0012B0FD10C4BE62292051A600AE008
:10259000032B08D1084BE82292051A6003E0064B92
:1025A000E42292051A607047034BE72292051A60F5
:1025B000F9E7C046FA0B00208C0900200A4B1B7873
:1025C000012B08D0032B0AD0002B00D07047074BFB
:1025D000074A1A60FAE7054B064A1A60F6E7034B0A
:1025E000054A1A60F2E7C046F90B0020680900208E
:1025F0000000F53B00007A3C00007A3D0F4B1B7851
:10260000022B15D008D8002B0DD0012B0FD10C4B6D
:10261000E82292051A600AE0032B08D1084BE62253
:1026200092051A6003E0064BE22292051A60704799
:10263000034BE42292051A60F9E7C046F80B00202C
:10264000B4080020F0B5C64600B58046FFF7D6FFB7
:102650004046FFF7B3FF594805F0EAFF584B1868AA
:1026600005F08EFA0022574B04F09FFB02000B008E
:102670000020554904F07BFB02000B00534C200066
:1026800005F0D6FF524805F0A3FF524805F0D0FFF1
:10269000514B186805F074FA00224A4B04F085FB90
:1026A00002000B000020484904F061FB02000B000F
:1026B000200005F0BDFF494805F08AFF484C200086
:1026C00002F0BAF8474F380005F0B2FF464805F06F
:1026D000AFFF4046FFF70AFD444805F079FF2000B0
:1026E00002F0AAF8380005F0A3FF414805F070FF9A
:1026F000200002F0A1F83F4E3F4D32002900404635
:10270000FFF734FB0A2005F02FFF0A2005F02CFF0D
:102710003A4805F05DFF3A4805F05AFF306805F089
:102720002FFA0022274B04F040FB02000B00354833
:1027300005F07EFF706805F023FA0022214B04F0BB
:1027400034FB02000B0030498846080005F070FF9A
:10275000B06805F015FA00221A4B04F026FB0200BF
:102760000B002A4805F064FF0A2005F0FDFE0A2050
:1027700005F0FAFE264805F02BFF286805F000FA60
:1027800002000B00234805F053FF686805F0F8F9D4
:1027900002000B00404605F04BFFA86805F0F0F979
:1027A00002000B001C4805F043FF200002F044F833
:1027B000380005F03DFF80BCB846F0BDC48E001067
:1027C000B408002000408F400000F03FDC8D001076
:1027D000DC8E0010E88E001068090020008F0010C9
:1027E000DC0500000C8F0010148F00103C8F0010CF
:1027F000548F0010B808002074090020A48F001026
:10280000BC8F0010D08F0010D88F0010E08F001008
:10281000E88F0010FC8F00100490001070B50400C9
:10282000FFF7A8FE314805F003FF314B186805F0AB
:10283000A7F900222F4B04F0B8FA02000B00002089
:102840002D4904F094FA02000B002C4805F0F0FE2C
:102850002B4805F0BDFE2B4801F0EEFF2A4E30005C
:1028600005F0E6FE294D29002000FFF73FFD28482E
:1028700005F0DEFE286805F083F900221D4B04F008
:1028800094FA02000B00234805F0D2FE686805F0B8
:1028900077F90022174B04F088FA02000B001E485B
:1028A00005F0C6FEA86805F06BF90022114B04F094
:1028B0007CFA02000B00194805F0BAFEFA20C000AD
:1028C00001F0BAFF300005F0B3FE154805F080FEB8
:1028D0002000FFF7CFF9300005F0AAFEFA204000F3
:1028E00001F0AAFF0F4805F073FE70BD0C900010B8
:1028F0008C09002000408F400000F03F2490001021
:1029000028900010DC0500000C8F001090090020BA
:10291000389000104C900010549000105C90001003
:10292000649000109C900010F0B5DE4657464E466D
:102930004546E0B59BB080460F1C161C08933F4BE4
:102940001A6892465A6893469D68DC68514650461C
:1029500005F02EF881465946584605F029F80590AD
:10296000291C281C05F024F80190211C201C05F0CE
:102970001FF80C904A4604924946281C05F033F88B
:102980000E900199201C05F02EF80F9051465046EC
:1029900005F029F809905946504605F024F80A90A8
:1029A000291C504605F01FF80D90211C504605F0DB
:1029B0001AF810905946584605F015F80390291C4E
:1029C000584605F010F81190211C584605F00BF8F8
:1029D0000690291C281C05F006F80290211C281CD2
:1029E00005F001F81290211C201C04F0FCFF079058
:1029F0004146404604F0F7FF8146391C381C04F07C
:102A0000F2FF011C484604F0D3FF8146311C301C04
:102A100004F0E9FF011C484604F0CAFF05F0BAF8CB
:102A20008146002105F010F8002809D01BB0F0BC49
:102A3000BB46B246A946A046F0BDC04648020020AB
:102A40004946FE20800504F0B8FF8146011C40463F
:102A500004F0C9FF14904946381C04F0C4FF1590D7
:102A60004946301C04F0BFFF16902699081C04F05C
:102A7000BAFF061C2799081C04F0B5FF011C301C86
:102A800004F096FF061C2899081C04F0ACFF011CFA
:102A9000301C04F08DFF05F07DF8061C002104F0C9
:102AA000D3FF0028C2D1311CFE20800504F085FF31
:102AB000061C011C269804F096FF8046311C2798BE
:102AC00004F091FF071C311C289804F08CFF81460C
:102AD0004146049E301C04F086FF17900B97391C6A
:102AE000301C04F080FF18904946301C04F07BFF36
:102AF000071C46464146059A9046101C04F073FF99
:102B000019901396311C099804F06DFF061C189952
:102B1000201C04F068FF011C301C04F044FF061C5C
:102B2000391C281C04F05FFF011C301C04F040FF1E
:102B3000061C1399039804F056FF011C301C04F086
:102B400037FF061C0B99404604F04DFF291C04F08A
:102B50004AFF011C301C04F02BFF061C494640466E
:102B600004F041FF211C04F03EFF011C301C04F066
:102B70001FFF061C139A9046111C029804F033FFA5
:102B8000011C301C04F00FFF061C4146079804F09E
:102B90002AFF011C301C04F006FF061C1799201C9C
:102BA00004F021FF80460B99099804F01CFF011CDA
:102BB000404604F0FDFE8046391C584604F013FFE1
:102BC000011C404604F0EFFE071C1999281C04F074
:102BD0000AFF011C381C04F0EBFE071C0B9A904600
:102BE000111C039804F0FFFE011C381C04F0DBFEEE
:102BF000071C4146029804F0F6FE011C381C04F044
:102C0000D7FE071C4946019804F0EDFE211C04F094
:102C1000EAFE011C381C04F0CBFE071C4146079855
:102C200004F0E1FE011C381C04F0BDFE071C311C41
:102C3000301C04F0D8FE061C391C381C04F0D3FEEE
:102C4000011C301C04F0B4FE04F0A4FF8046179E63
:102C500080273F06BC4666443000291C04F0C3FEB2
:102C6000061C1899584604F0BEFE011C301C04F0E6
:102C70009FFE061C4946099804F0B5FE011C301C55
:102C800004F096FE061C1999201C04F0ACFE011CF1
:102C9000301C04F08DFE061C4946039804F0A3FE88
:102CA000011C301C04F07FFE061C0B99019F381C90
:102CB00004F099FE211C04F096FE011C301C04F067
:102CC00077FE061C4946029804F08DFE011C301C5C
:102CD00004F069FE061C4946079804F084FE011CB6
:102CE000301C04F065FE061C4146404604F060FEC0
:102CF0001890311C301C04F05BFE179080221206E5
:102D000094466744069A111C101C04F051FE0E995B
:102D100004F049FE149904F046FE0990011C381C89
:102D200004F061FE071C0A9A111C101C04F040FEFE
:102D30000F9904F03DFE159904F035FE05990E90AB
:102D400004F051FE011C381C04F032FE071C311C3B
:102D5000281C04F048FE0F900299FC20800504F026
:102D600022FE079904F01FFE414604F03CFE079046
:102D70000D99069804F017FE311C04F034FE011C76
:102D8000079804F015FE139904F00DFE0790011C3E
:102D90000F9804F028FE011C381C04F004FE071CE8
:102DA000802212064244211C1392101C04F01BFEC8
:102DB0001490311C584604F016FE1590011C14980E
:102DC00004F0F6FD14901099119804F0ECFD4146C2
:102DD00004F009FE109012990A9804F0E9FD311CE4
:102DE00004F001FE011C109804F0E2FD0B9904F0C0
:102DF000DAFD0A90011C149804F0F5FD011C381C42
:102E000004F0D6FD071C4146281C04F0ECFD0B9095
:102E100006990D9804F0CCFD414604F0E4FD0690BF
:102E20000399FC20800504F0BEFD029904F0BBFD6F
:102E3000311C04F0D8FD011C069804F0B9FD494688
:102E400004F0B1FD8146011C0B9804F0CCFD011C7F
:102E5000381C04F0ADFD06900C99099804F0C3FDF0
:102E6000071C04990E9804F0BEFD011C381C04F0E8
:102E70009FFD0D908121C905584604F0B4FD1090C6
:102E8000039F391C381C04F093FD011CFE208005B3
:102E900004F089FD071C029A111C101C04F088FD27
:102EA000011C381C04F07FFD169904F07CFD071C02
:102EB000011C109804F097FD011C0D9804F073FD9F
:102EC0000290311C201C04F08EFD0D90011C07980F
:102ED00004F089FD011C029804F06AFD0290311C87
:102EE000504604F080FD061C011C0B9804F060FDA8
:102EF000011C0A9804F077FD011C029804F058FDAB
:102F000002904146201C04F06EFD0390179958462C
:102F100004F069FD011C039804F045FD011C4846BE
:102F200004F061FD011C029804F042FD0290049A35
:102F300080231B069C4662441100099804F053FD4F
:102F400003900C990E9804F04EFD011C039804F0B8
:102F50002FFD03908121C905281C04F044FD011CAC
:102F6000381C04F040FD011C039804F01CFD071CF4
:102F7000189A80231B069C466244291C0392101C4D
:102F800004F031FD311C04F00EFD011C079804F023
:102F90002AFD011C381C04F00BFD071C4146584655
:102FA00004F021FD061C011C0D9804F001FD011C1C
:102FB0000A9804F018FD011C381C04F0F9FC071CE9
:102FC0004146504604F00FFD80461799281C04F036
:102FD0000AFD011C404604F0E6FC011C484604F0D2
:102FE00002FD011C381C04F0E3FC80460599099899
:102FF00004F0F9FC071C01990E9804F0F4FC011C84
:10300000381C04F0D5FC071C211C039804F0EBFCD1
:10301000011C159804F0CCFC011C079804F0E3FC9B
:10302000011C381C04F0C4FC071C5146139804F022
:10303000DAFC011C0F9804F0BBFC011C0A9804F098
:10304000D2FC011C381C04F0B3FC071C311C4846A0
:1030500004F0C9FC011C381C04F0AAFC071C069AE9
:103060009146111C101C04F0BEFC061C0299081CA1
:1030700004F0B9FC011C301C04F09AFC061C41460B
:103080000191404604F0AFFC011C301C04F090FCA0
:10309000061C391C381C04F0A6FC011C301C04F072
:1030A00087FC04F077FD011CFE20800504F085FC00
:1030B000061C011C484604F096FC8146311C02980F
:1030C00004F091FC8046311C019804F08CFC0190C6
:1030D000311C381C04F087FC0290802212065A44EE
:1030E0001000089904F07FFC061C2499281C04F0A9
:1030F0007AFC011C301C04F056FC061C2599201C8F
:1031000004F071FC011C301C04F04DFCFC2189050D
:1031100004F069FC071C6B4B1E684946301C04F028
:1031200062FC011C381C04F03EFC814608995046A4
:1031300004F059FC071C2599281C04F054FC011CC0
:10314000381C04F035FC071C2499201C04F04BFCAF
:10315000011C381C04F027FCFC21890504F043FC09
:10316000071C4146301C04F03EFC011C381C04F0D6
:103170001AFC80462499504604F035FC071C25991A
:10318000584604F030FC011C381C04F00CFC071CF1
:103190000899201C04F027FC011C381C04F008FCD2
:1031A000FC21890504F01FFC071C0199301C04F068
:1031B0001AFC011C381C04F0F6FB071C259950462C
:1031C00004F011FC01902499584604F00CFC011CF9
:1031D000019804F0EDFB01900899281C04F003FC11
:1031E000011C019804F0DFFBFC21890504F0FBFBC6
:1031F00001900299301C04F0F6FB011C019804F0C8
:10320000D2FB0190304B1E684946301C04F0EBFBAA
:10321000514604F0CDFB81464146301C04F0E3FBEF
:10322000594604F0C5FB8046391C301C04F0DBFB1A
:10323000291C04F0BDFB071C0199301C04F0D3FBD2
:10324000211C04F0B5FB051C4946484604F0CBFBA5
:10325000041C4146404604F0C6FB011C201C04F03F
:10326000A7FB041C391C381C04F0BDFB011C201CEE
:1032700004F09EFB041C291C281C04F0B4FB011C58
:10328000201C04F095FB04F085FC011CFE20800549
:1032900004F093FB041C011C484604F0A4FB0B4EF5
:1032A0003060211C404604F09EFB7060211C381CDD
:1032B00004F099FBB060211C281C04F094FBF06022
:1032C000FFF7B4FBE80800205C090020480200205A
:1032D000F0B5DE4657464E464546E0B597B08146C6
:1032E0000C0001231F220EA98C46624401212000FC
:1032F000FEF704FC924D29002000FFF7E7F80023B9
:10330000E85E04F0C9FB8F4B1B689846191C04F05B
:103310006AFB8D4F396804F046FB8C4B1860022322
:10332000E85E04F0B9FB011C404604F05CFB7968E0
:1033300004F039FB864B18600423E85E04F0ACFB14
:10334000011C404604F04FFBB96804F02CFB814F90
:10335000386001231F220EA98C46624402212000FE
:10336000FEF7CCFB7C4D29002000FFF7CBF80023B3
:10337000E85E04F091FB794B1B689B46191C04F036
:1033800032FB774B9A46196804F00DFB754B1860B9
:103390000223E85E04F080FB011C584604F023FB86
:1033A0005346596804F0FFFA6F4B9846186004239F
:1033B000E85E04F071FB011C584604F014FB534610
:1033C000996804F0F0FA694B9A46186001231F22AD
:1033D0000EA98C46624400212000FEF7C7FB644D15
:1033E00029002000FFF7AAF80023E85E04F054FB50
:1033F000604B1C68211C04F0F6FA5F4B1860022336
:10340000E85E04F049FB011C201C04F0ECFA5B4B65
:103410009B4618600423E85E04F03EFB011C201C60
:1034200004F0E1FA564C206001F0BAFA06900791D8
:10343000544D069807992A686B68801A994104F0E0
:1034400091FB514904F0B9FA011C504B1860069ADF
:10345000079B2A606B604E4D286804F0A9FA28602B
:103460004C49012200230D684E68521973410A60CD
:103470004B603C4B186804F083FB474A474B03F012
:1034800094FC0022464B03F072FC05000E004346FC
:10349000186804F075FB404A404B03F086FC00229C
:1034A0003F4B03F064FC089009915346186804F000
:1034B00067FB394A394B03F078FC0022384B03F0A4
:1034C00056FC0A900B912800310003F027FD051CE3
:1034D0003F681F4B1B6898461C4B1E68236804936B
:1034E0005B461B680393244B1B68802109068C46AE
:1034F000634402930A980B9903F010FD0190089819
:10350000099903F00BFD00902B1C3A1C4146301C1E
:10351000FFF70AFA234B1A685B6806980799801A26
:10352000994102000B0020490A604B601A433DD1CB
:10353000484617B0F0BCBB46B246A946A046F0BD0F
:10354000C4080020B4080020B8080020DC080020CF
:10355000E0080020E408002080090020680900201D
:10356000740900206C0900207009002088090020DF
:103570009C0900208C090020A4090020A809002033
:10358000AC09002080080020002474495C09002058
:10359000D40B0020880800206E861BF0F92109401A
:1035A000008066407007002078080020804B186873
:1035B000804904F018FA10907F4B18687D4904F098
:1035C00012FA11907D4B18687A4904F00CFA1290A7
:1035D0007B4B1B689B467B4B1B6808937A4B1A6896
:1035E0000A927A4B19680D91794B1C680E94794BAD
:1035F0001D680F95784C6668B246A768391C301C68
:1036000004F0F1F9051C2668B046E668311C404616
:1036100004F0E9F9011C281C04F0CAF9011C04F0AB
:10362000C7F9051C4146404604F0DDF98046514685
:10363000504604F0D8F9011C404604F0B9F9804620
:10364000391C381C04F0CFF9011C404604F0ABF9DA
:10365000071C311C301C04F0C6F9011C381C04F096
:10366000A2F9011C281C04F0BBFA5C4D2860E1683B
:10367000606804F0B8F9061CA168206804F0B3F98A
:10368000011C301C04F08FF9011C04F091F904F0C6
:1036900023FC80263606B4466044514E30602768CD
:1036A000BA466768B846391C504604F09CF9139036
:1036B000A768E468211C381C04F095F9011C1398D4
:1036C00004F076F9011C04F073F91390514650464A
:1036D00004F089F982464146404604F084F9011C11
:1036E000504604F060F98046391C381C04F07BF920
:1036F000011C404604F057F9071C211C201C04F053
:1037000072F9011C381C04F053F9011C139804F0E1
:1037100067FA071C334B98461860306804F030FA9B
:10372000314A324B03F041FB03F0F8FB041C3060DC
:10373000286804F025FA2C4A2C4B03F036FB03F0E2
:10374000EDFB28602A4904F02EF9061C2860381C7D
:1037500004F016FA244A254B03F027FB03F0DEFBA6
:10376000474638604F463C607E604E46B860109FCA
:10377000F760119F37611298706148465E46866116
:10378000089BC3610A9A02620D9941620E9C846291
:103790000F9DC562174B0699079A19605A60164B20
:1037A0000020002118605960144B00221A60BFE607
:1037B000DC08002000007A44E0080020E408002033
:1037C0006C0900207009002088090020A40900204D
:1037D000A8090020AC09002048020020F00B0020BE
:1037E000B0090020C8090020E8C35CB0DDA54C404A
:1037F0009A9939417007002088080020D40B0020D6
:1038000010B502490120FEF723F910BDFFFF0000AB
:1038100010B58300084A944663441C684022624005
:10382000C02414408022520113431C60C000034B8B
:103830009C466044416010BD04C00140004001400E
:1038400080000B4B9C46604400290DD00823002AC1
:103850000CD004221343026853400C2213408022F0
:1038600052011043036070470023F0E70022F1E7A4
:1038700004C0014010B501238340D0221206936298
:1038800093610521FFF7C4FF10BD0000034B1B68C7
:1038900002201840431E9841C0B2704700C0064045
:1038A000EFF3108072B6034B1B68002BFBD0BFF305
:1038B0005F8F70472C0100D0BFF35F8F024B002257
:1038C0001A6080F3108870472C0100D0F8B506000C
:1038D0000C001500FFF7E4FFE308F718F15C07227E
:1038E0002240012393400B4205D1DBB20B433B70D6
:1038F000FFF7E2FFF8BD2100280001F0D7FE00002D
:10390000002307E0054A9A189200BFF35F8F002159
:10391000116001331F2BF5D97047C04640000034B9
:10392000054A1078431CDBB21370172B02D9130021
:1039300010221A707047C04658020020074B9B683F
:10394000103080001950BFF35F8FBFF35F8F044BBF
:103950000021196082F310887047C04600ED00E036
:10396000240100D010B5091A081F0A4B9C46614477
:10397000094A914208D8C30706D440104005400DBB
:10398000064B184380B210BD054B064AA3210648DA
:1039900001F0D2FDFC070000FE0F000000E0FFFF79
:1039A000D4900010449300100491001010B5091A2F
:1039B00004394C08090B08D14905490D064A114341
:1039C0000180064B2343438010BD054B054AAB21C4
:1039D000054801F0B1FDC04600F0FFFF00F8FFFF11
:1039E000609100101893001004910010012383408F
:1039F000034A10681840431E9841C0B27047C04641
:103A000000E100E0002904D0034B1860034B18606C
:103A10007047034B1860FBE780E200E000E100E044
:103A200080E100E010B5012383401800FFF7EAFFB2
:103A300010BD0000024B9B6810308000C0587047DA
:103A400000ED00E070B504000D00EFF3108672B6D3
:103A50000C4B1B68002BFBD0BFF35F8F2000FFF7E0
:103A6000E9FF094B984201D0A84205D13200290054
:103A70002000FFF763FF70BD044B054A862105480F
:103A800001F05AFD240100D0CD010010709100100A
:103A90006093001004910010F0B5CE46474680B503
:103AA00083B006000D00EFF3108872B6564B1B680A
:103AB000002BFBD0BFF35F8F544B9A683400103457
:103AC000A300D758524B9F4207D0AF4200D198E095
:103AD0000197504BFB1A2F2B09D942463900300071
:103AE000FFF72CFF03B0C0BCB946B046F0BD3000B4
:103AF000FFF77CFF814600213000FFF793FFBFF303
:103B00005F8FEFF30581002901D08C4211D1012391
:103B1000019C9C430022A368AB4212D00622A2560D
:103B2000002A0DDB53009B189B002200394CE4183F
:103B3000F1E73621384B394AFF31394801F0FCFCB6
:103B40002200AB4256D106256557002D38DB6B00AD
:103B50005B199A002F4B9B189A68A260DA79E27180
:103B600006229A56A2719B795BB2002B0FDA2D4880
:103B7000A0806B005B199B00264AD3182A4A117853
:103B80009971157049463000FFF74CFFA5E7201DDD
:103B90006B005B199B001F4A9B181A1D9B88D90A52
:103BA0001C2907D15B055B15023359005118FFF73B
:103BB000D9FEDDE71D4B1E4AB121194801F0BCFCBE
:103BC000002912D1002A0ED0FF239371194B938044
:103BD000154A1378A371184B0E49641A6441634364
:103BE0001B0D1370CEE70A4FF2E7201D1349FFF7B4
:103BF000DDFEC7E76A21124B084AFF31084801F091
:103C00009BFC034F69E7C046240100D000ED00E0B3
:103C1000CD0100105C02002084920010309300104F
:103C20000491001001BD0000FC0B00206C920010FC
:103C30005093001001BDFFFFAAAA000096020020C9
:103C4000B892001070B5012101432E4BCB1A2F2BD7
:103C500028D8EFF30583002B2BD0EFF3108C72B62E
:103C6000294A1268002AFBD0BFF35F8F274A04005D
:103C7000244D641B64416243120D54B2244A92687D
:103C80009B00D2588A421BD00022032A32D853000C
:103C90009B189B001B49CB189B795BB2A3421FD09A
:103CA0000132F2E7C7211B4B1B4A49001B4801F0B8
:103CB00043FC92211A4B184AFF31184801F03CFC92
:103CC000134A92681749D150174B1A7882711C70A9
:103CD000BFF35F8F0C4B00221A608CF3108870BD0D
:103CE0000D005300991889006918FF268E710F4A3C
:103CF0008A80E9E7D1210E4B074A4900074801F0C5
:103D00001BFCC0465C020020240100D0AAAA0000CF
:103D100000ED00E0C0920010FC9200100491001031
:103D2000E8920010CD010010FC0B002001BDFFFF48
:103D3000F49200100022044B02E0044902C3013255
:103D4000072AFAD97047C04600E400E080808080EE
:103D5000024B9C466144890001607047400000347A
:103D600010B50400FFF7DCFD01002000FFF7F0FFB5
:103D7000FF232371BFF35F8F10BD10B50400FFF761
:103D8000CFFD01002000FFF7E3FFFF232371002395
:103D90006371BFF35F8F10BD70B505000C000800A4
:103DA00000F0FEFE0949200000F03EFEFFF7B8FDDE
:103DB000074B9C466044800068602C75D0231B062E
:103DC0001B786B75A400034BE55070BDDD400010FF
:103DD00040000034B40900200A4B1A68EFF3108148
:103DE00072B61368002BFCD0BFF35F8F054B1B68C6
:103DF000BFF35F8F00221A6081F3108840BF00205C
:103E000000217047D00B002010B5002922D0036894
:103E10001B7B99421ED8174B9C466144090183685D
:103E20009C4661440C684968002A19D003681B7BD2
:103E30009A4215D883680F488446624412019A1842
:103E400010685368020001208B4201D80ED0002078
:103E5000C0B210BD084B094A3C21094801F06CFB77
:103E6000054B064A3C21064801F066FBA242EFD80A
:103E7000EDE7C046FFFFFF0F30950010B097001030
:103E8000DC94001010B500291ED0037B99421BD88A
:103E90004B005B18033B0468A4466344002919D017
:103EA000002A1DD0914221D0002A25D0047BA242B5
:103EB00022D80468500080180338201881701978BF
:103EC00000291FD11A7010BD104B114A68211148EA
:103ED00001F032FB104B114A6F310E4801F02CFB00
:103EE0000F4B0E4A70210B4801F026FB0D4B0B4A7D
:103EF0007121084801F020FB044B054A6821054860
:103F000001F01AFB41701A70DDE7C04654950010AD
:103F10001C98001070950010D8950010F8970010AC
:103F2000E4950010F095001070B506000D00140027
:103F3000002914D0002A14D080687368984700289C
:103F400006D0220029003000FFF79CFF280007E080
:103F50002A0021003000FFF795FF200000E010004C
:103F600070BD0800FCE70000F0B583B005000092CA
:103F700001930AAB1C780BAB1F78002C26D003688A
:103F80005A7B944207D10123002B19D1002C3BD13D
:103F9000200003B0F0BD002C0CD01A7B944209D84D
:103FA0001A6863001B19033BD3189B78002BEBD0D6
:103FB0000123E9E73E4B3F4A68213F4801F0BCFA44
:103FC0003E4B3F4A67213F4801F0B6FA03689C7BAD
:103FD000002CDBD012D01A7B94420FD86200121949
:103FE000033A19688C46624451789973002900D1CC
:103FF000D9730023937053701370C7E72C4B2D4A6D
:1040000068212D4801F098FA002C3AD02B681B7BD0
:104010009C4236D82C4BE3181B01AA689446634493
:10402000009A1A60019A5A60089A9A60099ADA60AE
:104030002E68002C2BD030D0337B9C422DD86300CF
:104040001B19033B32689446634400229A705A70ED
:104050001A70717B22003000FFF766FF7073844294
:1040600000D095E7287D009A019B00F025FD061EF3
:1040700001D0002F17D00C9B002B00D188E71E70B9
:1040800086E7124B124A3C210E4801F055FA114BBB
:10409000114AA521084801F04FFA054B054A68214D
:1040A000054801F049FA2868210000F03DFFE2E7E9
:1040B000549500101C980010709500100896001080
:1040C00028980010DC940010FFFFFF0F30950010BF
:1040D000B0970010D89400100C980010F0B5DE4690
:1040E00057464E464546E0B58BB0099000230893ED
:1040F0008200B54BD658370052E0B44BB44A3F214A
:10410000B44801F019FAB44BB44A3C21B44801F068
:1041100013FA002901D1002869D10021404600F09E
:10412000F9FEA04219D12A686B6806920793AB6822
:104130009846EB689A464346002B14D0002C18D0C2
:104140003B681B7B9C4214D8631EFA68D35C0893BF
:104150001B0218433861002015E0A24BA24A8E21B1
:104160009F4801F0E9F9A14B9F4A92219C4801F038
:10417000E3F9994B9E4A4121994801F0DDF900236A
:104180009A46984600207B68BFF35F8F00221A6032
:1041900086F310884346002B32D1002800D10CE171
:1041A00000F0FEFB02000B1EA7DB002000210690A2
:1041B00007917868EFF3108672B601680029FCD089
:1041C000BFF35F8F396888464C7B002CD7D09AD0DC
:1041D000097B8C4297D8874965182D01B9688C46B0
:1041E000654428686968801A9941002991DD2A6828
:1041F0006B68099800F060FC00239A469846C2E775
:10420000089B1B022343994651461800C0470500EE
:104210000E007A68EFF3108B72B6136859424B4167
:10422000D9B2002BF9D1BFF35F8F002E1EDB002E19
:1042300046DD3B69002B47D04B456DD100F0B0FB0C
:1042400002000B1E6EDB52197341002B70DB002B3A
:1042500072DB0021049101310391029451460191D6
:10426000414600913800FFF77FFE4CE03B69002B90
:10427000DDD04B4514D1069A079B521BB341002B4E
:1042800014DB002B16DB0021049101310391029411
:1042900051460191414600913800FFF765FE32E03A
:1042A000554B514AA1214E4801F046F90122524294
:1042B000524BE6E7454B464A3F21464801F03CF960
:1042C000002E01D1002DB4D13B68002C50D05A7B78
:1042D000944237D1012100294AD1DA7B002A4DD1FD
:1042E0009A7B002A03D1DA7B002A5AD19C73DC73B3
:1042F000002C5CD03B681B7B9C4258D8FA68013C80
:10430000135D0133135500233B617A68BFF35F8F60
:1043100013608BF3108843E7374B334AA4213048AE
:1043200001F00AF9294B2A4A3F212A4801F004F9F1
:1043300001225242314B8AE7244B254A3F2125482E
:1043400001F0FAF8002C0DD01A7B94420AD86200D2
:104350001219033A1868844662449278002ABAD047
:104360000121B8E7264B274A6821274801F0E4F8E5
:10437000264B274AF621244801F0DEF8002A0AD00D
:10438000197B8A4207D851008A18033A19688C466B
:1043900062445470A4E71A4B1A4A68211A4801F083
:1043A000CBF81C4B1A4AFB21174801F0C5F80A4B01
:1043B0000F4A41210A4801F0BFF80BB0F0BCBB46E0
:1043C000B246A946A046F0BDB4090020EC93001007
:1043D0007C9700100894001030950010B0970010E2
:1043E000DC9400103096001094970010489600104E
:1043F000D4970010FFFFFF0F54960010FFFFFF7FC0
:10440000549500101C9800107095001090960010A4
:10441000E8970010B496001010B50C4B5B68002BA9
:1044200004D00A210A48FFF793FC10BD074C230073
:10443000084A1021206800F07DFC032000F0A4FA57
:1044400003212000FFF7A8FCEBE7C046A4020020F0
:10445000D00B0020093E001010B5064B5B68002B06
:1044600001D0044810BD044B044A5E21044801F009
:1044700063F8C046A4020020C8960010BC97001044
:10448000DC940010F0B5DE4657464E464546E0B592
:104490008BB0804616001F00149B9A46159B9946C8
:1044A00016AB1B789B461F2302AA94466344002246
:1044B0001A702BE0002809D042461268127B904205
:1044C00004D8421E4146C9688A5C41E0404B414ADB
:1044D0004121414801F030F807984CE0361BAF41CC
:1044E000002F07DB002F11DA3C4B3D4A3F213D48AE
:1044F00001F022F8012676423B4FF3E7374B384A6A
:104500003F21384801F018F8002F4FDB43465A6826
:10451000EFF3108472B6136859424B41D9B2079138
:10452000002BF8D1BFF35F8F1F3302AA9446634478
:1045300004930023039302934B4601935346009345
:1045400032003B004046FFF70FFD031EB2D10200D0
:1045500041464968BFF35F8F00250D6084F31088E2
:10456000002B29D01F2302A98C4663441B78002B03
:10457000B2D112021043002B20D05B46002B1DD07D
:104580004946D04704000D0003000B431DD000290D
:10459000A4DB00F005FA06000F1EAFDB36196F41F1
:1045A000002FB1DA012676420F4FADE70B4B0C4AD4
:1045B0003F210C4800F0C0FF012040420BB0F0BC8E
:1045C000BB46B246A946A046F0BD0798F6E7C046EE
:1045D00030950010D4970010DC940010EC9300107C
:1045E0007C97001008940010FFFFFF7FF8B50400CF
:1045F000002900D162E04268EFF3108572B61368BB
:1046000058424341D8B2002BF9D1BFF35F8FCBB2F0
:104610002268567BB3421BD10120002848D0206974
:1046200088422BD0090AC9B2002B2ED02068007B0B
:1046300083422AD8581EE668305C88422BD000207E
:104640006368BFF35F8F00221A6085F31088F8BD9E
:10465000002B0DD0167BB3420AD85E00F618033E3D
:104660001768BC466644B678002ED6D00120D4E741
:10467000134B144A6821144800F05EFF2C21134BA1
:10468000134AFF31134800F057FF134B134A4121DF
:10469000104800F051FF1900100000F045FC002800
:1046A000CED199210E4B0A4A49000A4800F044FF36
:1046B00023698B42C4D100232361C1E70020C6E7F0
:1046C000549500101C98001070950010EC96001086
:1046D00064970010DC94001030950010D4970010FF
:1046E00010970010F0B587B006000F00EFF30583B8
:1046F000002B1FD106246442E517A4197D418D4289
:1047000002D803D1844201D900240025002D14DBF6
:104710000494059500F044F902000B1E13DBA41A63
:104720009D41002D17DC14D03000390000F044F911
:1047300007B0F0BD234800F0B9FF234B234A3F21C7
:10474000234800F0F9FE204B204A3F21204800F08A
:10475000F3FE002CE8D0FFF77FFE002302930193C5
:104760001C4B0093049A059BFFF78CFE002818DA77
:10477000DAE7002300E00023002BD5D1164B1A689E
:10478000EFF3108172B61368002BFCD0BFF35F8F7C
:10479000114B1B68BFF35F8F00221A6081F31088F2
:1047A00020BF0499059A0D4B5B6A9A42E3D80B48E7
:1047B000806A884203D29A42DBD00123DCE70123DE
:1047C000DAE7C04614970010EC9300107C970010B5
:1047D00008940010D93D0010D00B00200040054087
:1047E00070B504000D0000F0DBF802000B1E0ADBC0
:1047F000200029008018594100290ADB00290CDB20
:10480000FFF770FF70BD084B084A3F21084800F0D1
:1048100093FE012040420749F0E7034B034A3F2142
:10482000034800F089FEC046EC9300107C9700100E
:1048300008940010FFFFFF7F10B5FA2292000023BA
:10484000002103F093F8FFF7CBFF10BD70B584B0E3
:1048500005000C00EFF30583002B1ED1FFF7FCFDD4
:10486000002302930193224B00932A002300FFF7B9
:1048700009FE061E23DD20BFFFF7EEFD3100FFF726
:10488000B5FE1C4B5B6A9C422DD81A4A926AAA421A
:104890002CD29C4225D0012026E0164B5B6A99421F
:1048A00009D8144A926A824207D2994201D0012063
:1048B0001AE0002018E0002016E0012014E00D4B63
:1048C0005B6A9C4209D80B4A926AAA4207D29C4270
:1048D00001D0012008E0002006E0002004E00120D3
:1048E00002E0002000E0002004B070BD0120FBE7E2
:1048F000D93D00100040054070B5EFF30580103839
:10490000EFF3108C72B61A4B1B68002BFBD0BFF371
:104910005F8F01221300834016494B6316490B60D9
:10492000164909780C00C440224214D0114A546A36
:104930008200134D5259944206D38200114C1259F1
:1049400099430E4B197007E00A4A031D9B009958C2
:104950009950002200E00022BFF35F8F044B00213A
:1049600019608CF31088002A00D0904770BDC046B3
:10497000280100D0004005403C700540FD0B0020A0
:10498000D80B0020CC08002010B50100024A0348D3
:10499000FEF79CFF10BDC04640980010FB0B0020A6
:1049A000044B5B6A034A906A1900536A9942F9D131
:1049B0007047C04600400540084B5B6A01E0074B6A
:1049C0005B6A8B42FBD301E0044B5B6A8B4203D1F1
:1049D000024B9B6A8342F7D37047C04600400540B4
:1049E00070B504000D00FFF7DBFF02000B00200094
:1049F0002900801859418B4202D804D1824202D941
:104A000001204042C117002902DBFFF7D5FF70BD2E
:104A1000024B034A3F21034800F08EFDEC93001047
:104A2000049900100894001070B504000D00EFF315
:104A3000108672B61B4B1B68002BFBD0BFF35F8F39
:104A4000002D1CD02000FEF7F5FF174B83420BD042
:104A500019002000FEF7F6FF01212000FEF7E2FF1B
:104A60000123A340114A1360A400114BE550BFF38A
:104A70005F8F0C4B00221A6086F3108870BDA20075
:104A80000B4B0021D1500122A2400A490B789343DD
:104A90000B7005492000FEF7FFFF00212000FEF704
:104AA000C1FFE4E7280100D0F94800103860054054
:104AB000CC080020FD0B0020F0B5DE4600B584B028
:104AC0000400150001921E000293FFF769FF039591
:104AD0008E4202D84ED185424CD9EFF3108B72B67C
:104AE000274B1B68002BFBD0BFF35F8F254A17783D
:104AF0000125A540EBB23B431370234B5D63221DA0
:104B000092000199D150A2002049029850501B6A8E
:104B10002B4212D11C4B1B6C2B4208D00020BFF340
:104B20005F8F174B00221A608BF3108823E0184B1D
:104B3000184AC521184800F0FFFCFFF731FF8E42EC
:104B400014D802D1039B834210D80E4B1B78BB4272
:104B50000ED00D4B1D625D631F2004400123A34056
:104B60000E4A1360074B1F701E38D8E70020D6E7A7
:104B70000120D4E7012004B080BCBB46F0BDC04694
:104B8000280100D0FD0B002000400540D80B00207C
:104B900064980010E89800108898001080E200E007
:104BA000EFF3108C72B60B4B1B68002BFBD0BFF3DE
:104BB0005F8F01238340084A136208490A789A43A9
:104BC0000A70BFF35F8F034B00221A608CF31088CA
:104BD0007047C046280100D000400540FD0B002072
:104BE00010B500291ED0037B99421BD84B005B18DF
:104BF000033B0468A4466344002919D0002A1DD051
:104C0000914221D0002A25D0047BA24222D80468F8
:104C100050008018033820188170197800291FD19E
:104C20001A7010BD104B114A6821114800F084FC25
:104C3000104B114A6F310E4800F07EFC0F4B0E4AAC
:104C400070210B4800F078FC0D4B0B4A712108488D
:104C500000F072FC044B054A6821054800F06CFC2A
:104C600041701A70DDE7C04654950010249A001078
:104C700070950010D8950010109A0010E49500105F
:104C8000F095001070B506000D001400002914D036
:104C9000002A14D0806873689847002806D0220044
:104CA00029003000FFF79CFF280007E02A002100C0
:104CB0003000FFF795FF200000E0100070BD0800F5
:104CC000FCE7000010B50023437301338373037BBB
:104CD000C3730123027B9A4214D9002B0CD0027BB0
:104CE000934209D85A00D218033A01688C466244AC
:104CF0000133DBB25370EDE70B4B0C4A68210C48D3
:104D000000F01AFC002A09D0924207D8016853002B
:104D10009A18033A8A180023537010BD024B034AB5
:104D20006821034800F008FC54950010249A0010F4
:104D30007095001010B5017342608360FFF7C2FFE9
:104D400010BD000070B50400081E00D170BD002920
:104D500034D0237B994231D84B005B18033B226847
:104D6000944663445A78002AF0D02DD0237B9A428F
:104D70002AD853009B18033B21688C4663445D7816
:104D800000215970002825D0237B984222D8430067
:104D90001B18033B21688C466344002159700100B5
:104DA0002000FFF76FFF060029002000FFF7CAFF71
:104DB000020031002000FFF765FFC7E7084B094AF2
:104DC0006821094800F0B8FB054B064A68210648EF
:104DD00000F0B2FB024B034A6821034800F0ACFB31
:104DE00054950010249A00107095001070B50500BD
:104DF0000C00160000292FD034D0037B994231D803
:104E00004B005B18033B0268944663445A78002ABF
:104E10002ED19A78002A31D11978FFF793FF030039
:104E2000002E0AD0EA7B002A2ED1AA7B002A03D1C9
:104E3000EA7B002A3BD1AC73EC73002B3DD1002CF4
:104E40004FD02B7B9C424CD82B6861000C19033C43
:104E50001C190023637070BD254B264A3821264853
:104E600000F06AFB254B264A6821264800F064FBC7
:104E7000254B204A3A21204800F05EFB234B1D4A77
:104E80003B211D4800F058FB002A0AD0297B8A42AA
:104E900007D851008A18033A29688C466244547036
:104EA000C3E7164B164A6821164800F045FB184B1D
:104EB000104A4221104800F03FFB002B0BD02A7B08
:104EC000934208D843001B18033B2A689446634466
:104ED00000229A70B3E7094B094A6821094800F09B
:104EE0002BFB064B064A6821064800F025FBC0460E
:104EF0001C990010FC990010249900105495001082
:104F0000249A00107095001078990010A099001054
:104F1000B496001070B504000A00457B2900FFF725
:104F200065FF6073280070BD70B50400002967D06C
:104F3000437B8B420ED0002911D0037B99420ED8BF
:104F40004B005B18033B0268D0188378002B0CD110
:104F5000002056E00121FFF7DDFF012051E0294B41
:104F6000294A6821294800F0E7FA002B20D0227B4B
:104F700093421DD85A00D318033B2268D2182568E3
:104F8000EB5C8B421AD0002B1BD0227B934218D8AB
:104F90005A00D318033B2268D21853788B4216D09C
:104FA000002BF0D11A4B1B4A6B211B4800F0C4FAAE
:104FB000144B154A6821154800F0BEFA4378137067
:104FC00007E0104B104A6821104800F0B5FA43780A
:104FD000537000238370437001222000FFF706FF07
:104FE0000200617B814205D02000FFF74BFE607319
:104FF000012006E0094B074A7121074800F09CFA9E
:10500000002070BD54950010249A00107095001077
:10501000F4920010E499001024990010C499001033
:1050200070B5046BE30701D4200070BD020030327C
:10503000C0239B0113430A4A1A60456A826AAD0184
:10504000AD18AD02062000F0BDF9064901F042FCA2
:105050000100280001F03EFC0021FFF7C1FCE3E75E
:10506000010300004E0E000070B504000E00150094
:10507000FFF7D6FF22002C32E16A4E4035408023F4
:105080005B0113431D60206370BD000070B5050017
:105090000C00062000F096F9C000210001F01AFC77
:1050A000C60908D00E4B9E4216D87F231840013007
:1050B0003400460800E001246C62AE620022002148
:1050C0002800FFF7D1FF062000F07CF98000A10145
:1050D000891901F0FFFB70BD0026024CECE7C046C9
:1050E000FEFF0000FFFF000010B505394901013A3D
:1050F000D2001143002B09D002220A43012B07D012
:10510000002111436E22FFF7AFFF10BD0022F4E72C
:105110000421F6E7002909D00A22064B9C46604488
:10512000434258414000044BC25270478022520013
:10513000F3E7C0460080FCBFE80B002070B5050017
:105140000C00062000F03EF9061E27D0164B9D42AB
:1051500026D08022D203154B1A60154B1A60154BCE
:105160009B6811009943FAD100212800FFF7D2FF74
:1051700021002800FFF78AFF0600002301220821F2
:105180002800FFF7B1FF2A002C3280239B01134334
:1051900010221A60084B2B630323AB64300070BDF0
:1051A00080221204D7E7C0460080034000E00040A0
:1051B00000F0004000C0004001030000F8B5DE46EA
:1051C00057464E464546E0B505000F0092460A9AFE
:1051D000934250D31A0E91461E020A9A00233000C1
:1051E000494601F0B5FB80466C006419A400304BC1
:1051F0009C4664446368834200D260602B1FDBB22C
:105200009B46012B3DD9C0239B01234380221201E1
:105210001A60AB00274A9958002907D0506901F05D
:1052200059FB431C5800C0180338FDD253465A019D
:1052300023685A40E0231A4080235B0123431A600D
:105240005A46012A28D980239B0123438022120138
:105250001A6043466360424600233000494601F02D
:1052600077FBAD00134B58510120F0BCBB46B24652
:10527000A946A046F8BD104B104A3321104800F053
:105280005BF9012FBFD1C0239B01234303221A6086
:10529000A368DB07FCD5C9E72168794003220A40EF
:1052A0001A60A2680123BB401342FAD0CBE7C04684
:1052B00000800040F4080020309A0010A49A0010EA
:1052C000449A001030B583B00C2000F011F9FEF7BD
:1052D000DDFA00280DD0002304E099002D4A2E4865
:1052E00088500133092BF8D92A4B2C4A5A6203B053
:1052F00030BD2B4B00229A6700F002F9294B0122A6
:105300001A60274B5B6C012BFBD1274B03221A60E1
:10531000234B9B6B012BFBD1013300930433234AB6
:105320000121234800F054F805230093214A01216C
:10533000214800F04DF8214B009300220221042067
:10534000FFF73CFF1E4D00952B0000220121052098
:10535000FFF734FF104C00942300002200210720A7
:10536000FFF72CFF00942300002200210820FFF704
:1053700025FF0A4B00932300002200210920FFF79C
:105380001DFF00952B00002200210620FFF716FFCD
:10539000ADE7C046F4080020006CDC021BB700003B
:1053A000008000403CB0004030B00040002F685901
:1053B00000800240008C864700C00240001BB700FE
:1053C000405973078000014BC0587047F408002013
:1053D000F0B5C64600B504000E0017001D003748A2
:1053E00001F078FA8046364BFA18364B9A4239D893
:1053F0000100380001F06EFA0200103A98235B00B9
:105400009A4235D86B1E062B38D8069B013B062BDB
:1054100034D83F09474537D32D04069B1A0315435B
:105420002368002B36DB284B9C4244D0802252015B
:10543000264B1A60264B1A60264B9B681100994335
:10544000FAD12660A060231DC02292011A432123B5
:1054500013602368002BFCDAE5600823136080BC2E
:10546000B846F0BD1C4B1D4A11211D4800F064F8E0
:105470001C4B1A4A19211A4800F05EF81A4B174AB9
:105480001C21174800F058F8184B144A23211448DF
:1054900000F052F822683F231340B342C3D1A368FF
:1054A0001B051B0D8342BED1E368EE22D2021340DE
:1054B000AB42B8D1D3E780229201B9E7001BB70015
:1054C00080E84BD380F8A93200C0024000E00040E1
:1054D00000F0004000C00040B49A0010F49B00109F
:1054E000149B0010709B00108C9B0010D89B001028
:1054F00080239B000343014AD3627047008005402C
:10550000074BAA2212011A602132FF32DA60054BE2
:10551000054A1A60024B5B68002BFBDA7047C046F5
:10552000004002400060024000B0FA0000BEFDE70B
:1055300010B5FFF7FBFF000010B582B00C0019009A
:10554000002A0CD0084B002A0BD0019200932300B4
:105550000200064803F06CF80120FFF7E7FF044B58
:10556000F1E7034AF1E7C046009C0010109C0010D0
:10557000808D001070B52B4B2B4A1A602B4B2C4A98
:105580001A602C4B9A682A4B9343FAD12A4C01E0BB
:1055900008CC9847294B9C42FAD3FFF793FE234B44
:1055A000274A1A60234B9B68DB43DB01FAD1254B6A
:1055B00040229A675A671A67DA66234C09E0234B40
:1055C000234A87212348FFF7B7FF2000FEF7C8FBD7
:1055D0000834214B9C4209D22368002BF5D0012BC3
:1055E000EDD12000FEF7C9FB0834F2E71B4CA1689F
:1055F0001B4DC022280002F0B5FEA560EFF3058325
:10560000002B00D000BEFEF77BF9FEF793FBFEF700
:1056100003FF144C01E008CC9847134B9C42FAD38B
:1056200070BDC04600E00040BFCDFBFE00F0004072
:10563000FE7F3C0000C000405007002060070020B3
:10564000FFFFFF0100F0014048070020409C0010D0
:10565000E89C0010609C00105007002000ED00E066
:1056600000000020600700206C07002010B5040037
:10567000FFF796F900290ADB084A002301F068F9D0
:10568000206000236360A360E360002010BD044B32
:10569000044A3F210448FFF74FFFC046102700008F
:1056A000EC930010D09C0010089400100FB400B5CB
:1056B00083B0084802F08CFF049B002B07D005A99B
:1056C0000191180002F094FF034802F081FF0120CD
:1056D000FFF72CFFC09C0010988D0010704710B58C
:1056E000002802D00B684968984710BD01000020CF
:1056F00007E083001B185B00501C08601078C0187E
:1057000030380A681378303BDBB2092BF1D9704787
:10571000F0B5DE4657464E464546E0B583B0934663
:105720001F000C9B9A460D9C0E9B99460F9B9B0756
:1057300003D0B8460F00060022E00192A346884637
:105740004E46B9460700B44207D2551C4B46414667
:105750002020B84701342A00F5E73D004F465C465B
:10576000019B9B46B1464646B84637002E0007E0EF
:10577000013C551C5346185D43463900B0472A008A
:10578000002CF5D135003E0047460F9B9B0707D400
:10579000100003B0F0BCBB46B246A946A046F0BD1F
:1057A000B0464E46B9462F005D46531BB342EFD27A
:1057B000541C4B4641462020B8472200F5E7F0B57F
:1057C000CE46474680B585B0944698460C9D0D9CC4
:1057D0000EAB1B789946109A119B129EB7071CD4EA
:1057E000002B0CD0F7070AD54F46002F02D10C37FB
:1057F000374204D0013B02E030272F550134944258
:1058000001D21F2CF8D9F70707D59C4205D21F2CCF
:1058100003D830272F550134F5E7F70615D577055E
:1058200005D4002C03D0944224D09C4222D00F9A5D
:10583000102A2BD00F9A102A30D00F9A022A35D076
:105840001F2C02D830222A5501341F2C05D84A4675
:10585000002A31D02D222A55013403960293019457
:10586000009543466246FFF753FF05B0C0BCB946FA
:10587000B046F0BD621E012C06D00F9F102F01D044
:105880001400D4E7023CD2E71400D0E7B206D1D42A
:105890001F2CCFD878222A550134D1E7B206CCD5B7
:1058A0001F2CCAD858222A550134C9E71F2CC7D843
:1058B00060322A550134C3E7720703D52B222A55DB
:1058C0000134CAE73207C8D520222A550134C4E77B
:1058D000F0B5DE4657464E464546E0B593B08146A4
:1058E0008A46089209931CAB10CB1B789B461E9DE1
:1058F000219B9846002C03D1102342469A439046A0
:105900008023DB0046461E4042461A4212D0002C3D
:1059100022D000260EE03033D9B2771C0AAB99555D
:105920002900200000F0D6FFAC4216D31F2F14D858
:105930003E0004002900200000F0CCFFCBB2092B70
:10594000E9D94246920605D54121C918C9B20A399A
:10595000C9B2E2E76121F8E7270043460693209B9E
:1059600005931F9B049303955B46029301970AAB33
:105970000093099B089A51464846FFF720FF13B051
:10598000F0BCBB46B246A946A046F0BDF0B5DE4627
:1059900057464E464546E0B595B0089009910A92A3
:1059A0000B931E9E1F9C20AB1B789B46229B994607
:1059B000239D269B9A463300234303D1103352463E
:1059C0009A4392468023DB0057461F4052461A42B4
:1059D00019D0330023432DD0002714E03033DAB23E
:1059E0007B1C98460CABDA554A462B003000210050
:1059F00000F0AEFFA5421FD819D043461F2B1BD87D
:105A0000474606000C004A462B003000210000F0FB
:105A10009FFFD3B2092BE1D95246920605D5412208
:105A2000D218D2B20A3AD2B2DAE76122F8E7B14527
:105A3000E3D901E00023984653460693259B05933E
:105A4000249B04934B4603935B4602934346019386
:105A50000CAB00930B9B0A9A09990898FFF7AFFECD
:105A600015B0F0BCBB46B246A946A046F0BD00004A
:105A7000F0B5DE4657464E464546E0B591B0834602
:105A80008A460C9298461A9C08941B9D0995220000
:105A90002B002000290001F0E6F9002800D0E5E005
:105AA00001225242D74B2000290001F0D7F90028EB
:105AB00000D0DBE001225242D34B2000290001F04C
:105AC000B7F9002800D0D1E000220023089E300062
:105AD000099D290001F0ACF9002800D0DDE008980C
