:020000041000EA
:1000000000B5324B212058609868022188439860DF
:10001000D860186158612E4B002199600221596106
:100020000121F02299502B49196001219960352056
:1000300000F044F80222904214D00621196600F024
:1000400034F8196E01211966002018661A6600F04E
:100050002CF8196E196E196E052000F02FF8012189
:100060000842F9D1002199601B49196000215960AB
:100070001A491B48016001219960EB211966A021F2
:10008000196600F012F800219960164914480160C1
:100090000121996001BC002800D000471248134993
:1000A000086003C880F30888084703B5996A0420EC
:1000B0000142FBD001200142F8D103BD02B5186610
:1000C0001866FFF7F2FF186E186E02BD00000240BE
:1000D000000000180000070000035F00212200005C
:1000E000F4000018222000A00001001008ED00E03C
:1000F00000000000000000000000000074B24E7A12
:1001000000200420F7010010C3010010C5010010F9
:10011000C1010010C1010010C1010010C101001097
:10012000C1010010C1010010C1010010C701001081
:10013000C1010010C1010010C9010010CB01001065
:10014000CD010010CD010010CD010010CD01001037
:10015000CD010010CD010010CD010010CD01001027
:10016000CD010010CD010010CD010010CD01001017
:10017000CD010010CD010010CD010010CD01001007
:10018000CD010010CD010010CD010010CD010010F7
:10019000CD010010CD010010CD010010CD010010E7
:1001A000CD010010CD010010CD010010CD010010D7
:1001B000CD010010CD010010CD010010CD010010C7
:1001C00000BE00BE00BE00BE00BE00BEEFF3058054
:1001D000103800BEF2EB8871E42905100C2A0510D6
:1001E0003402001090A31AE700201F49086006C8D7
:1001F00081F3088810471D48006800282FD10DA4FE
:100200000ECC002902D000F012F8F9E71849194A7B
:10021000002000E001C19142FCD1174988471749ED
:1002200088471749884700BEFDE701C901C29A42C5
:10023000FBD370470C2A0510C00000209C1D002035
:10024000E84605100000042000000420E8460510E0
:10025000001004200010042000000000704709482E
:1002600003F044FD0047000008ED00E0000000D06E
:10027000A01D002054380020292A00103903001046
:10028000E72900105756000006005250ABB36053E8
:100290007C68041006005250861C03028C6804100F
:1002A000060052505422A29D9C6804100500525032
:1002B000DE65F468E8460510F8B5C04610B5064C92
:1002C0002378002B07D1054B002B02D0044800E017
:1002D00000BF0123237010BDA01E002000000000FD
:1002E00058570410044B10B5002B03D003490448A1
:1002F00000E000BF10BDC04600000000A41E0020AA
:100300005857041070B504000D00012805D0002CCA
:1003100002D1074B9D4207D070BD054B9942F6D1E3
:10032000044805F013FBF2E7024805F01FFBF3E772
:10033000FFFF00001435002000B58BB004F04AFF29
:100340000F2000F0D1FCD0231B06802212025A623B
:100350005A61214B02931A23019302330093013B0C
:100360001D221E4908A800F04BF808A800F08EFBDB
:100370000222002108A800F0A7F908A800F09FF9C0
:1003800004A910230493083B0B71482008724522EE
:100390004A7244338B72CB7208734A738B73CB737C
:1003A00008A800F04BFC0E4B187000280FD108A8CD
:1003B00000F070FC0B4B187008A800F070FC0A4BA2
:1003C00018700028DCD0094804F0F8FED8E7074888
:1003D00004F0F4FEEBE7C04640420F00000004408A
:1003E000513800204F3800204E3800205857041054
:1003F00010B502490120FFF785FF10BDFFFF000087
:10040000F0B5C64600B50400080015001E0006AB96
:100410001B78984607AB1F782160089905F050F8C3
:100420000121300000F048FC0121404600F044FC6E
:100430000121380000F040FC23685A680220024085
:100440001E1DC02189013143086018680721414001
:10045000CF200840802149010B43186080239B0175
:1004600033431A602571280000F03EFC22790123F5
:1004700019009140D02212065162C046C046C046C3
:1004800021798B405361C046C046C046200080BCE5
:10049000B846F0BDF0B583B004000B00C046C046BE
:1004A000C0460279012529009140D0273F06B96155
:1004B000C046C046C04601A900220A8003320A7025
:1004C0004B70013A006845F00FF96B46DE1C0123C2
:1004D00032000021206845F0B7F8C046C046C0464B
:1004E00023799D407D61C046C046C046307803B048
:1004F000F0BDF0B5CE46474680B583B004008846CF
:100500009146C046C046C0460379012632009A4053
:10051000D0273F06BA61C046C046C04601AD03229F
:100520000021280004F066FC02232B7043466B7008
:100530004B46AB7003222900206845F0D5F8C04631
:10054000C046C04623799E407E61C046C046C04634
:1005500003B0C0BCB946B046F0BDF0B5C64600B564
:1005600082B00400080090461F00C046C046C04646
:10057000237901252A009A40D0263606B261C0466A
:10058000C046C04601A900230B8002330B7048709F
:100590000222206845F0A8F83A004146206845F05C
:1005A000A3F8C046C046C04623799D407561C04649
:1005B000C046C04602B080BCB846F0BDF0B583B0BE
:1005C00004000800C046C046C046217901252E001F
:1005D0008E403100D0263606B161C046C046C046C6
:1005E00001A90027019705370F7048708A70CB70FA
:1005F0000422206845F078F8C046C046C0462379FA
:100600009D407561C046C046C04603B0F0BD0000C5
:10061000F8B506000C000B00E0220F21FFF7CEFF1B
:1006200001F0F8FB002909DB0ED0FA22920000232A
:1006300003F0EEFB05000A35002724E01A4B1B4AA5
:100640003F211B4802F0D2F9FA21890003F0A2FBF6
:100650000500F0E7144B154A3F21154802F0C6F992
:10066000FA21890003F096FB854217D90E2130004C
:10067000FFF710FF1F239843C0B2271A7B425F4148
:10068000FFB284420AD001F0C5FB0029E2DBE7D0CB
:10069000FA229200002303F0BBFBE5E7002F01D014
:1006A0000020F8BD0120FCE76457041080570410B7
:1006B000B857041010B58021FFF7AAFF10BD10B580
:1006C0000021FFF7A5FF10BDF0B5D6464F464646C0
:1006D000C0B506000D0014000023994698469A46BE
:1006E000FFF7E8FF071E0CD1012C00D17AE0022CA5
:1006F0000DD0002C00D1D5E00400002C00D040E14A
:1007000001273800E0BCBA46B146A846F0BD0F2D1F
:1007100066D8AB00A34AD3589F4687239A463833FE
:100720009846A03B99460124E7E787239A46383349
:100730009846B83B99460124DFE784239A46203344
:1007400098469D3B99460124D7E785239A465D3319
:1007500098469B3B99460124CFE787239A46383336
:100760009846BC3B99460124C7E786239A462E3318
:100770009846B13B99460124BFE787239A46383310
:100780009846BE3B99460124B7E786239A462E3306
:100790009846B33B99460124AFE785239A462C330C
:1007A0009846B03B99460124A7E7814686239A469E
:1007B0002E3398460124A0E7814685239A462C33A0
:1007C0009846012499E7814682239A460E3398463B
:1007D000012492E7814680239A46984601248CE7BB
:1007E00004008AE70F2D5BD8AB006F4AD3589F46B1
:1007F00087239A4678339846C03B99467DE78723FE
:100800009A4678339846F03B994676E785239A4690
:100810006C339846A33B99466FE787239A46783313
:100820009846F83B994668E787239A46733398467B
:10083000F33B994661E787239A4678339846FC3B19
:1008400099465AE707239A46B7339846BB3B9946E1
:1008500053E787239A4673339846F73B99464CE70C
:1008600086239A466A339846ED3B994645E7A1466A
:1008700087239A46733398463FE785239A466C331D
:100880009846B03B994638E7814686239A466A33B4
:10089000984632E7814682239A464E3398462CE7A3
:1008A00004002AE7043DEBB20B2B00D925E79D009D
:1008B0003E4B5B599F4687239A4678339846F43BD4
:1008C0009946012419E787239A4673339846F13BEA
:1008D0009946012411E787239A4678339846FB3BD3
:1008E0009946012409E787239A4677339846FA3BCD
:1008F0009946012401E787239A4673339846F63BCD
:1009000099460124F9E687239A4673339846F73BC4
:1009100099460124F1E687239A4678339846FE3BB0
:1009200099460124E9E686239A4675339846BA3BF0
:1009300099460124E1E6A14687239A4673339846F7
:100940000124DAE6A14682239A46573398460124C9
:10095000D3E62C0087239A4638339846B03B994615
:10096000CBE62C0087239A4678339846E03B99469D
:10097000C3E687239A4678339846F63B9946012486
:10098000BBE64A462A213000FFF7B3FD4246292143
:100990003000FFF7AEFD524628213000FFF7A9FDD9
:1009A000AFE6C0461C5804105C5804109C58041054
:1009B00010B598B2002A13D0CB70000A8870180CBA
:1009C000032202404A70C0001F24A043C0B2121884
:1009D000D2B24A70082002434A705B0D0B7010BD02
:1009E000C00808705B014B700023CB708B70F6E77A
:1009F000F0B585B007000D0001921E00FFF75AFE0A
:100A0000041E02D0200005B0F0BD3300019A03A9F6
:100A10003800FFF7CDFF002D08D0012D08D124218B
:100A2000042303AA3800FFF798FDEBE72021F7E73E
:100A30000124E7E7F0B585B005000C0001921F0026
:100A4000FFF738FE061E1AD1052C1BD8A3000E4A4C
:100A5000D3589F46082406E0102404E0142402E042
:100A6000182400E004243B00019A03A92800FFF7A2
:100A70009FFF042303AA21002800FFF76EFD30002A
:100A800005B0F0BD0126FAE7CC58041070B588B067
:100A90000400C046C046C046037901252A009A409A
:100AA000D0263606B261C046C046C0461F21694402
:100AB000C0230B700122006844F016FEC046C046F9
:100AC000C04623799D407561C046C046C0460A2095
:100AD00001F0ECF80E22002104A804F08BF90E239B
:100AE00004AA30212000FFF738FD0E2304AA40217C
:100AF0002000FFF732FD0E2304AA50212000FFF74B
:100B00002CFD002260212000FFF7F3FC0022702161
:100B10002000FFF7EEFCA3222B212000FFF7E9FCC9
:100B20000423672260212000FFF748FD012367228C
:100B300070212000FFF742FD164B1A6802929A8836
:100B400002AB9A800025052D0DDC6A1E53425A41E6
:100B5000D2B202AB595D00232000FFF76BFF0028E3
:100B600016D10135EFE701AB00221A7001325A703D
:100B7000002500E00135012D09DC01AB595D0023A2
:100B800001222000FFF734FF0028F3D000E000200E
:100B900008B070BDE4580410F0B585B005000E0033
:100BA00014001379082B3ED81368DA0F8027FF054D
:100BB0001F40002B33DB1E490B4069462800FFF71E
:100BC000F7FE002F2DD0237940221343DBB26A4673
:100BD00013712100083122796B46581D04F010F979
:100BE000144F71008E19BB19597823790533DBB284
:100BF0006A462800FFF7B1FCF45D082308222100B3
:100C00002800FFF7DBFC21002800FFF743FC03006E
:100C10007022100018401A4207D105B0F0BD0649F5
:100C2000CAE72379D3E70420F7E70420F5E7C046B5
:100C3000FF070000F0580410FFFFFF1FF0B583B05E
:100C400006000F000B79082B1BD801AB0F4A118946
:100C50001980927A9A700024022C14DC01AB1D5D7D
:100C60006B005B190A4A995C3000FFF713FC03071D
:100C700001D50134F0E73A0029003000FFF78CFF7E
:100C800002E0042000E0022003B0F0BDE4580410AC
:100C9000F058041010B52D21FFF7FCFB10BD10B566
:100CA000FFF7F8FF07239843C0B2002801D00120C6
:100CB00010BD0020FCE7000010B58300084A9446F0
:100CC00063441C6840226240C024144080225201C8
:100CD00013431C60C000034B9C466044416010BD40
:100CE00004C001400040014010B501238340D022E0
:100CF0001206936293610521FFF7DEFF10BD00002D
:100D0000034B1B6802201840431E9841C0B2704735
:100D100000C00640EFF3108072B6034B1B68002B37
:100D2000FBD0BFF35F8F70472C0100D0BFF35F8F04
:100D3000024B00221A6080F3108870472C0100D00B
:100D4000F8B506000C001500FFF7E4FFE308F718FC
:100D5000F15C07222240012393400B4205D1DBB214
:100D60000B433B70FFF7E2FFF8BD2100280001F0C4
:100D7000D7FE0000002307E0054A9A189200BFF34F
:100D80005F8F0021116001331F2BF5D97047C046DA
:100D900040000034054A1078431CDBB21370172B57
:100DA00002D9130010221A707047C04604120020A6
:100DB000074B9B68103080001950BFF35F8FBFF363
:100DC0005F8F044B0021196082F310887047C04682
:100DD00000ED00E0240100D010B5091A081F0A4BED
:100DE0009C466144094A914208D8C30706D4401082
:100DF0004005400D064B184380B210BD054B064A16
:100E0000A321064801F0F2FDFC070000FE0F0000E0
:100E100000E0FFFFFC5804106C5B04102C59041018
:100E200010B5091A04394C08090B08D14905490DB8
:100E3000064A11430180064B2343438010BD054BF6
:100E4000054AAB21054801F0D1FDC04600F0FFFF87
:100E500000F8FFFF88590410405B04102C5904105F
:100E600001238340034A10681840431E9841C0B2D2
:100E70007047C04600E100E0002904D0034B186031
:100E8000034B18607047034B1860FBE780E200E0FB
:100E900000E100E080E100E010B50123834018008C
:100EA000FFF7EAFF10BD0000024B9B681030800086
:100EB000C058704700ED00E070B504000D00EFF37E
:100EC000108672B60C4B1B68002BFBD0BFF35F8FF4
:100ED0002000FFF7E9FF094B984201D0A84205D155
:100EE000320029002000FFF763FF70BD044B054A64
:100EF0008621054801F07AFD240100D0CD010010C3
:100F000098590410885B04102C590410F0B5CE4693
:100F1000474680B583B006000D00EFF3108872B627
:100F2000564B1B68002BFBD0BFF35F8F544B9A6866
:100F300034001034A300D758524B9F4207D0AF4221
:100F400000D198E00197504BFB1A2F2B09D942464C
:100F500039003000FFF72CFF03B0C0BCB946B046E3
:100F6000F0BD3000FFF77CFF814600213000FFF725
:100F700093FFBFF35F8FEFF30581002901D08C420F
:100F800011D10123019C9C430022A368AB4212D0E3
:100F90000622A256002A0DDB53009B189B0022005C
:100FA000394CE418F1E73621384B394AFF313948DA
:100FB00001F01CFD2200AB4256D106256557002DDD
:100FC00038DB6B005B199A002F4B9B189A68A26064
:100FD000DA79E27106229A56A2719B795BB2002BF4
:100FE0000FDA2D48A0806B005B199B00264AD318AE
:100FF0002A4A11789971157049463000FFF74CFF65
:10100000A5E7201D6B005B199B001F4A9B181A1D4A
:101010009B88D90A1C2907D15B055B15023359004F
:101020005118FFF7D9FEDDE71D4B1E4AB1211948C3
:1010300001F0DCFC002912D1002A0ED0FF239371AD
:10104000194B9380154A1378A371184B0E49641AF3
:10105000644163431B0D1370CEE70A4FF2E7201D76
:101060001349FFF7DDFEC7E76A21124B084AFF313B
:10107000084801F0BBFC034F69E7C046240100D0DB
:1010800000ED00E0CD01001008120020AC5A041061
:10109000585B04102C59041001BD0000503800208A
:1010A000945A0410785B041001BDFFFFAAAA000047
:1010B00042120020E05A041070B5012101432E4B6A
:1010C000CB1A2F2B28D8EFF30583002B2BD0EFF36F
:1010D000108C72B6294A1268002AFBD0BFF35F8FCA
:1010E000274A0400244D641B64416243120D54B22C
:1010F000244A92689B00D2588A421BD00022032ABD
:1011000032D853009B189B001B49CB189B795BB2CC
:10111000A3421FD00132F2E7C7211B4B1B4A4900F3
:101120001B4801F063FC92211A4B184AFF31184802
:1011300001F05CFC134A92681749D150174B1A789A
:1011400082711C70BFF35F8F0C4B00221A608CF30E
:10115000108870BD0D005300991889006918FF268A
:101160008E710F4A8A80E9E7D1210E4B074A490068
:10117000074801F03BFCC04608120020240100D0C3
:10118000AAAA000000ED00E0E85A0410245B041055
:101190002C590410105B0410CD01001050380020B1
:1011A00001BDFFFF1C5B04100022044B02E0044958
:1011B00002C30132072AFAD97047C04600E400E0B2
:1011C00080808080024B9C466144890001607047AA
:1011D0004000003410B50400FFF7DCFD01002000E2
:1011E000FFF7F0FFFF232371BFF35F8F10BD10B532
:1011F0000400FFF7CFFD01002000FFF7E3FFFF230E
:10120000237100236371BFF35F8F10BD70B50500BC
:101210000C00080000F0FEFE0949200000F03EFE30
:10122000FFF7B8FD074B9C466044800068602C7552
:10123000D0231B061B786B75A400034BE55070BDD3
:101240005115001040000034183600200A4B1A686F
:10125000EFF3108172B61368002BFCD0BFF35F8FE1
:10126000054B1B68BFF35F8F00221A6081F3108863
:1012700040BF0020002170473038002010B5002901
:1012800022D003681B7B99421ED8174B9C466144B1
:10129000090183689C4661440C684968002A19D09A
:1012A00003681B7B9A4215D883680F4884466244C2
:1012B00012019A1810685368020001208B4201D86D
:1012C0000ED00020C0B210BD084B094A3C2109488D
:1012D00001F08CFB054B064A3C21064801F086FBD9
:1012E000A242EFD8EDE7C046FFFFFF0FD85C041025
:1012F000585F0410845C041010B500291ED0037BD5
:1013000099421BD84B005B18033B0468A446634416
:10131000002919D0002A1DD0914221D0002A25D0C1
:10132000047BA24222D80468500080180338201899
:101330008170197800291FD11A7010BD104B114A05
:101340006821114801F052FB104B114A6F310E48D1
:1013500001F04CFB0F4B0E4A70210B4801F046FB8D
:101360000D4B0B4A7121084801F040FB044B054A24
:101370006821054801F03AFB41701A70DDE7C0466C
:10138000FC5C0410C45F0410185D0410805D041040
:10139000A05F04108C5D0410985D041070B5060009
:1013A0000D001400002914D0002A14D0806873683E
:1013B0009847002806D0220029003000FFF79CFF44
:1013C000280007E02A0021003000FFF795FF2000E9
:1013D00000E0100070BD0800FCE70000F0B583B02D
:1013E0000500009201930AAB1C780BAB1F78002C10
:1013F00026D003685A7B944207D10123002B19D1D0
:10140000002C3BD1200003B0F0BD002C0CD01A7B87
:10141000944209D81A6863001B19033BD3189B78C0
:10142000002BEBD00123E9E73E4B3F4A68213F48C0
:1014300001F0DCFA3E4B3F4A67213F4801F0D6FA03
:1014400003689C7B002CDBD012D01A7B94420FD80F
:1014500062001219033A19688C46624451789973F4
:10146000002900D1D9730023937053701370C7E71C
:101470002C4B2D4A68212D4801F0B8FA002C3AD0A7
:101480002B681B7B9C4236D82C4BE3181B01AA68A7
:1014900094466344009A1A60019A5A60089A9A60C6
:1014A000099ADA602E68002C2BD030D0337B9C4216
:1014B0002DD863001B19033B326894466344002215
:1014C0009A705A701A70717B22003000FFF766FF25
:1014D0007073844200D095E7287D009A019B00F04C
:1014E00025FD061E01D0002F17D00C9B002B00D12C
:1014F00088E71E7086E7124B124A3C210E4801F025
:1015000075FA114B114AA521084801F06FFA054BF5
:10151000054A6821054801F069FA2868210000F0B1
:101520003DFFE2E7FC5C0410C45F0410185D04108A
:10153000B05D0410D05F0410845C0410FFFFFF0F47
:10154000D85C0410585F0410805C0410B45F041071
:10155000F0B5DE4657464E464546E0B58BB009909D
:10156000002308938200B54BD658370052E0B44BA5
:10157000B44A3F21B44801F039FAB44BB44A3C2193
:10158000B44801F033FA002901D1002869D10021C3
:10159000404600F0F9FEA04219D12A686B68069215
:1015A0000793AB689846EB689A464346002B14D0E5
:1015B000002C18D03B681B7B9C4214D8631EFA6831
:1015C000D35C08931B0218433861002015E0A24B3E
:1015D000A24A8E219F4801F009FAA14B9F4A92210D
:1015E0009C4801F003FA994B9E4A4121994801F029
:1015F000FDF900239A46984600207B68BFF35F8F71
:1016000000221A6086F310884346002B32D100284E
:1016100000D10CE100F0FEFB02000B1EA7DB002056
:101620000021069007917868EFF3108672B6016882
:101630000029FCD0BFF35F8F396888464C7B002CB3
:10164000D7D09AD0097B8C4297D8874965182D014D
:10165000B9688C46654428686968801A99410029F0
:1016600091DD2A686B68099800F060FC00239A46B7
:101670009846C2E7089B1B0223439946514618002F
:10168000C04705000E007A68EFF3108B72B613683E
:1016900059424B41D9B2002BF9D1BFF35F8F002ED5
:1016A0001EDB002E46DD3B69002B47D04B456DD13C
:1016B00000F0B0FB02000B1E6EDB52197341002BD1
:1016C00070DB002B72DB0021049101310391029445
:1016D00051460191414600913800FFF77FFE4CE0F2
:1016E0003B69002BDDD04B4514D1069A079B521B5A
:1016F000B341002B14DB002B16DB002104910131D8
:101700000391029451460191414600913800FFF740
:1017100065FE32E0554B514AA1214E4801F066F971
:1017200001225242524BE6E7454B464A3F2146488A
:1017300001F05CF9002E01D1002DB4D13B68002CE2
:1017400050D05A7B944237D1012100294AD1DA7B0B
:10175000002A4DD19A7B002A03D1DA7B002A5AD184
:101760009C73DC73002C5CD03B681B7B9C4258D87C
:10177000FA68013C135D0133135500233B617A681D
:10178000BFF35F8F13608BF3108843E7374B334A07
:10179000A421304801F02AF9294B2A4A3F212A483E
:1017A00001F024F901225242314B8AE7244B254AA9
:1017B0003F21254801F01AF9002C0DD01A7B9442E4
:1017C0000AD862001219033A186884466244927873
:1017D000002ABAD00121B8E7264B274A68212748BA
:1017E00001F004F9264B274AF621244801F0FEF8BF
:1017F000002A0AD0197B8A4207D851008A18033A76
:1018000019688C4662445470A4E71A4B1A4A68213E
:101810001A4801F0EBF81C4B1A4AFB21174801F05B
:10182000E5F80A4B0F4A41210A4801F0DFF80BB0F6
:10183000F0BCBB46B246A946A046F0BD1836002013
:1018400064570410245F0410B8570410D85C0410C7
:10185000585F0410845C0410D85D04103C5F0410D1
:10186000F05D04107C5F0410FFFFFF0FFC5D0410AF
:10187000FFFFFF7FFC5C0410C45F0410185D0410C0
:10188000385E0410905F04105C5E041010B50C4BC1
:101890005B68002B04D00A210A48FFF793FC10BDB7
:1018A000074C2300084A1021206800F07DFC03202B
:1018B00000F0A4FA03212000FFF7A8FCEBE7C046E4
:1018C00050120020303800207D12001010B5064B59
:1018D0005B68002B01D0044810BD044B044A5E2114
:1018E000044801F083F8C04650120020705E0410D6
:1018F000645F0410845C0410F0B5DE4657464E4623
:101900004546E0B58BB0804616001F00149B9A46F2
:10191000159B994616AB1B789B461F2302AA94463B
:10192000634400221A702BE0002809D04246126856
:10193000127B904204D8421E4146C9688A5C41E04D
:10194000404B414A4121414801F050F807984CE092
:10195000361BAF41002F07DB002F11DA3C4B3D4A0D
:101960003F213D4801F042F8012676423B4FF3E724
:10197000374B384A3F21384801F038F8002F4FDB09
:1019800043465A68EFF3108472B6136859424B41CC
:10199000D9B20791002BF8D1BFF35F8F1F3302AA92
:1019A0009446634404930023039302934B460193AC
:1019B0005346009332003B004046FFF70FFD031EE5
:1019C000B2D1020041464968BFF35F8F00250D6028
:1019D00084F31088002B29D01F2302A98C4663446E
:1019E0001B78002BB2D112021043002B20D05B4693
:1019F000002B1DD04946D04704000D0003000B43C7
:101A00001DD00029A4DB00F005FA06000F1EAFDB95
:101A100036196F41002FB1DA012676420F4FADE73C
:101A20000B4B0C4A3F210C4800F0E0FF01204042E4
:101A30000BB0F0BCBB46B246A946A046F0BD079825
:101A4000F6E7C046D85C04107C5F0410845C041088
:101A500064570410245F0410B8570410FFFFFF7F81
:101A6000F8B50400002900D162E04268EFF3108568
:101A700072B6136858424341D8B2002BF9D1BFF374
:101A80005F8FCBB22268567BB3421BD10120002866
:101A900048D0206988422BD0090AC9B2002B2ED029
:101AA0002068007B83422AD8581EE668305C884252
:101AB0002BD000206368BFF35F8F00221A6085F38C
:101AC0001088F8BD002B0DD0167BB3420AD85E00FB
:101AD000F618033E1768BC466644B678002ED6D08A
:101AE0000120D4E7134B144A6821144800F07EFF0C
:101AF0002C21134B134AFF31134800F077FF134B8F
:101B0000134A4121104800F071FF1900100000F045
:101B100045FC0028CED199210E4B0A4A49000A48BB
:101B200000F064FF23698B42C4D100232361C1E725
:101B30000020C6E7FC5C0410C45F0410185D0410AC
:101B4000945E04100C5F0410845C0410D85C0410D4
:101B50007C5F0410B85E0410F0B587B006000F007B
:101B6000EFF30583002B1FD106246442E517A41967
:101B70007D418D4202D803D1844201D90024002541
:101B8000002D14DB0494059500F044F902000B1EAF
:101B900013DBA41A9D41002D17DC14D0300039004E
:101BA00000F044F907B0F0BD234800F0B9FF234B23
:101BB000234A3F21234800F019FF204B204A3F21B0
:101BC000204800F013FF002CE8D0FFF77FFE002331
:101BD000029301931C4B0093049A059BFFF78CFE24
:101BE000002818DADAE7002300E00023002BD5D123
:101BF000164B1A68EFF3108172B61368002BFCD0F5
:101C0000BFF35F8F114B1B68BFF35F8F00221A6019
:101C100081F3108820BF0499059A0D4B5B6A9A42A4
:101C2000E3D80B48806A884203D29A42DBD0012372
:101C3000DCE70123DAE7C046BC5E041064570410F9
:101C4000245F0410B85704104D12001030380020E3
:101C50000040054070B504000D0000F0DBF8020004
:101C60000B1E0ADB200029008018594100290ADBDD
:101C700000290CDBFFF770FF70BD084B084A3F21BD
:101C8000084800F0B3FE012040420749F0E7034B4B
:101C9000034A3F21034800F0A9FEC04664570410E0
:101CA000245F0410B8570410FFFFFF7F10B5FA221D
:101CB00092000023002102F077FFFFF7CBFF10BD59
:101CC00070B584B005000C00EFF30583002B1ED126
:101CD000FFF7FCFD002302930193224B00932A009F
:101CE0002300FFF709FE061E23DD20BFFFF7EEFDF0
:101CF0003100FFF7B5FE1C4B5B6A9C422DD81A4A97
:101D0000926AAA422CD29C4225D0012026E0164B92
:101D10005B6A994209D8144A926A824207D2994270
:101D200001D001201AE0002018E0002016E0012078
:101D300014E00D4B5B6A9C4209D80B4A926AAA4296
:101D400007D29C4201D0012008E0002006E00020DC
:101D500004E0012002E0002000E0002004B070BD9B
:101D60000120FBE74D1200100040054070B5EFF375
:101D700005801038EFF3108C72B61A4B1B68002BDD
:101D8000FBD0BFF35F8F01221300834016494B63E2
:101D900016490B60164909780C00C440224214D041
:101DA000114A546A8200134D5259944206D382005C
:101DB000114C125999430E4B197007E00A4A031D42
:101DC0009B0099589950002200E00022BFF35F8FDA
:101DD000044B002119608CF31088002A00D0904732
:101DE00070BDC046280100D0004005403C70054051
:101DF00052380020343800208435002010B501000E
:101E0000024A0348FEF79CFF10BDC046F05F041075
:101E10004D380020044B5B6A034A906A1900536AEC
:101E20009942F9D17047C04600400540084B5B6AB3
:101E300001E0074B5B6A8B42FBD301E0044B5B6A1A
:101E40008B4203D1024B9B6A8342F7D37047C04653
:101E50000040054070B504000D00FFF7DBFF0200F5
:101E60000B0020002900801859418B4202D804D170
:101E7000824202D901204042C117002902DBFFF74C
:101E8000D5FF70BD024B034A3F21034800F0AEFD71
:101E900064570410B4600410B857041070B50400FF
:101EA0000D00EFF3108672B61B4B1B68002BFBD0A6
:101EB000BFF35F8F002D1CD02000FEF7F5FF174BFE
:101EC00083420BD019002000FEF7F6FF012120000D
:101ED000FEF7E2FF0123A340114A1360A400114B57
:101EE000E550BFF35F8F0C4B00221A6086F3108819
:101EF00070BDA2000B4B0021D1500122A2400A4923
:101F00000B7893430B7005492000FEF7FFFF00217B
:101F10002000FEF7C1FFE4E7280100D06D1D00108E
:101F2000386005408435002052380020F0B5DE4688
:101F300000B584B00400150001921E000293FFF763
:101F400069FF03958E4202D84ED185424CD9EFF3FA
:101F5000108B72B6274B1B68002BFBD0BFF35F8F33
:101F6000254A17780125A540EBB23B431370234B5C
:101F70005D63221D92000199D150A2002049029870
:101F800050501B6A2B4212D11C4B1B6C2B4208D0A9
:101F90000020BFF35F8F174B00221A608BF310886D
:101FA00023E0184B184AC521184800F01FFDFFF721
:101FB00031FF8E4214D802D1039B834210D80E4BBE
:101FC0001B78BB420ED00D4B1D625D631F20044089
:101FD0000123A3400E4A1360074B1F701E38D8E739
:101FE0000020D6E70120D4E7012004B080BCBB4626
:101FF000F0BDC046280100D0523800200040054006
:102000003438002014600410986004103860041004
:1020100080E200E0EFF3108C72B60B4B1B68002BD4
:10202000FBD0BFF35F8F01238340084A1362084946
:102030000A789A430A70BFF35F8F034B00221A603D
:102040008CF310887047C046280100D0004005403E
:102050005238002010B500291ED0037B99421BD8AE
:102060004B005B18033B0468A4466344002919D065
:10207000002A1DD0914221D0002A25D0047BA24203
:1020800022D804685000801803382018817019780D
:1020900000291FD11A7010BD104B114A6821114838
:1020A00000F0A4FC104B114A6F310E4800F09EFC6A
:1020B0000F4B0E4A70210B4800F098FC0D4B0B4A59
:1020C0007121084800F092FC044B054A682105483C
:1020D00000F08CFC41701A70DDE7C046FC5C041017
:1020E000D4610410185D0410805D0410C0610410F8
:1020F0008C5D0410985D041070B506000D0014008E
:10210000002914D0002A14D08068736898470028EA
:1021100006D0220029003000FFF79CFF280007E0CE
:102120002A0021003000FFF795FF200000E010009A
:1021300070BD0800FCE7000010B5002343730133B5
:102140008373037BC3730123027B9A4214D9002B50
:102150000CD0027B934209D85A00D218033A016886
:102160008C4662440133DBB25370EDE70B4B0C4AF3
:1021700068210C4800F03AFC002A09D0924207D8A6
:10218000016853009A18033A8A180023537010BD4F
:10219000024B034A6821034800F028FCFC5C041051
:1021A000D4610410185D041010B50173426083609F
:1021B000FFF7C2FF10BD000070B50400081E00D17B
:1021C00070BD002934D0237B994231D84B005B1875
:1021D000033B2268944663445A78002AF0D02DD0FD
:1021E000237B9A422AD853009B18033B21688C46D4
:1021F00063445D7800215970002825D0237B9842E4
:1022000022D843001B18033B21688C4663440021FD
:10221000597001002000FFF76FFF06002900200021
:10222000FFF7CAFF020031002000FFF765FFC7E794
:10223000084B094A6821094800F0D8FB054B064ABB
:102240006821064800F0D2FB024B034A682103488C
:1022500000F0CCFBFC5C0410D4610410185D041089
:1022600070B505000C00160000292FD034D0037B78
:10227000994231D84B005B18033B02689446634493
:102280005A78002A2ED19A78002A31D11978FFF78E
:1022900093FF0300002E0AD0EA7B002A2ED1AA7BEE
:1022A000002A03D1EA7B002A3BD1AC73EC73002BEC
:1022B0003DD1002C4FD02B7B9C424CD82B68610029
:1022C0000C19033C1C190023637070BD254B264A72
:1022D0003821264800F08AFB254B264A68212648EB
:1022E00000F084FB254B204A3A21204800F07EFB79
:1022F000234B1D4A3B211D4800F078FB002A0AD0E1
:10230000297B8A4207D851008A18033A29688C46EB
:1023100062445470C3E7164B164A6821164800F011
:1023200065FB184B104A4221104800F05FFB002B60
:102330000BD02A7B934208D843001B18033B2A6822
:102340009446634400229A70B3E7094B094A682116
:10235000094800F04BFB064B064A6821064800F08E
:1023600045FBC046CC600410AC610410D46004107E
:10237000FC5C0410D4610410185D04102861041082
:10238000506104105C5E041070B504000A00457BC7
:102390002900FFF765FF6073280070BD70B5040069
:1023A000002967D0437B8B420ED0002911D0037BDC
:1023B00099420ED84B005B18033B0268D018837813
:1023C000002B0CD1002056E00121FFF7DDFF01209A
:1023D00051E0294B294A6821294800F007FB002BCE
:1023E00020D0227B93421DD85A00D318033B226889
:1023F000D2182568EB5C8B421AD0002B1BD0227BB5
:10240000934218D85A00D318033B2268D218537845
:102410008B4216D0002BF0D11A4B1B4A6B211B4864
:1024200000F0E4FA144B154A6821154800F0DEFA72
:102430004378137007E0104B104A6821104800F0F1
:10244000D5FA437853700023837043700122200033
:10245000FFF706FF0200617B814205D02000FFF7F5
:102460004BFE6073012006E0094B074A71210748C3
:1024700000F0BCFA002070BDFC5C0410D4610410B4
:10248000185D04101C5B041094610410D4600410E7
:102490007461041070B5046BE30701D4200070BDB3
:1024A00002003032C0239B0113430A4A1A60456A76
:1024B000826AAD01AD18AD02062000F0BDF90649F3
:1024C00001F068FC0100280001F064FC0021FFF726
:1024D000C1FCE3E7010300004E0E000070B50400EC
:1024E0000E001500FFF7D6FF22002C32E16A4E40A5
:1024F000354080235B0113431D60206370BD0000E5
:1025000070B505000C00062000F096F9C00021000F
:1025100001F040FCC60908D00E4B9E4216D87F231E
:10252000184001303400460800E001246C62AE62BD
:10253000002200212800FFF7D1FF062000F07CF9DF
:102540008000A101891901F025FC70BD0026024C14
:10255000ECE7C046FEFF0000FFFF000010B50539A4
:102560004901013AD2001143002B09D002220A434B
:10257000012B07D0002111436E22FFF7AFFF10BDE2
:102580000022F4E70421F6E7002909D00A22064BCD
:102590009C466044434258414000044BC25270473D
:1025A00080225200F3E7C0460080FCBF4438002080
:1025B00070B505000C00062000F03EF9061E27D07D
:1025C000164B9D4226D08022D203154B1A60154B24
:1025D0001A60154B9B6811009943FAD1002128001D
:1025E000FFF7D2FF21002800FFF78AFF0600002333
:1025F000012208212800FFF7B1FF2A002C32802396
:102600009B01134310221A60084B2B630323AB6416
:10261000300070BD80221204D7E7C046008003401E
:1026200000E0004000F0004000C000400103000056
:10263000F8B5DE4657464E464546E0B505000F0064
:1026400092460A9A934250D31A0E91461E020A9A53
:1026500000233000494601F0DBFB80466C00641922
:10266000A400304B9C4664446368834200D260609F
:102670002B1FDBB29B46012B3DD9C0239B0123437B
:10268000802212011A60AB00274A9958002907D00E
:10269000506901F07FFB431C5800C0180338FDD27D
:1026A00053465A0123685A40E0231A4080235B01B5
:1026B00023431A605A46012A28D980239B012343C9
:1026C000802212011A6043466360424600233000B4
:1026D000494601F09DFBAD00134B58510120F0BC61
:1026E000BB46B246A946A046F8BD104B104A33215E
:1026F000104800F07BF9012FBFD1C0239B01234379
:1027000003221A60A368DB07FCD5C9E7216879407A
:1027100003220A401A60A2680123BB401342FAD088
:10272000CBE7C046008000409C350020E0610410EB
:1027300054620410F461041030B583B00C2000F032
:1027400011F9FEF7DDFA00280DD0002304E099000E
:102750002D4A2E4888500133092BF8D92A4B2C4A90
:102760005A6203B030BD2B4B00229A6700F002F989
:10277000294B01221A60274B5B6C012BFBD1274BA5
:1027800003221A60234B9B6B012BFBD10133009377
:102790000433234A0121234800F054F80523009311
:1027A000214A0121214800F04DF8214B00930022DD
:1027B00002210420FFF73CFF1E4D00952B00002254
:1027C00001210520FFF734FF104C00942300002264
:1027D00000210720FFF72CFF009423000022002196
:1027E0000820FFF725FF0A4B009323000022002159
:1027F0000920FFF71DFF00952B0000220021062075
:10280000FFF716FFADE7C0469C350020006CDC02E8
:102810001BB70000008000403CB0004030B00040DA
:10282000002F685900800240008C864700C002409B
:10283000001BB700405973078000014BC058704718
:102840009C350020F0B5C64600B504000E00170008
:102850001D00374801F09EFA8046364BFA18364B79
:102860009A4239D80100380001F094FA0200103A77
:1028700098235B009A4235D86B1E062B38D8069BEE
:10288000013B062B34D83F09474537D32D04069B1F
:102890001A0315432368002B36DB284B9C4244D097
:1028A00080225201264B1A60264B1A60264B9B68E9
:1028B00011009943FAD12660A060231DC022920125
:1028C0001A43212313602368002BFCDAE5600823F8
:1028D000136080BCB846F0BD1C4B1D4A11211D4839
:1028E00000F084F81C4B1A4A19211A4800F07EF8AF
:1028F0001A4B174A1C21174800F078F8184B144A55
:102900002321144800F072F822683F231340B34299
:10291000C3D1A3681B051B0D8342BED1E368EE2221
:10292000D2021340AB42B8D1D3E780229201B9E77B
:10293000001BB70080E84BD380F8A93200C00240EA
:1029400000E0004000F0004000C00040646204105D
:10295000A4630410C4620410206304103C630410D8
:102960008863041080239B000343014AD3627047AD
:1029700000800540074BAA2212011A602132FF3263
:10298000DA60054B054A1A60024B5B68002BFBDAE4
:102990007047C046004002400060024000B0FA00AC
:1029A00000BEFDE703000A4A1268002A08D0084A60
:1029B0001068C318074A9A4206D3054A1360704745
:1029C000034A05491160F2E701204042F7E7C0469B
:1029D00010360020000004205438002000207047EA
:1029E00001204042704710B5FFF7DAFF10B582B002
:1029F0000C001900002A0CD0084B002A0BD00192C1
:102A0000009323000200064802F0D8FB0120FFF7E4
:102A1000C7FF044BF1E7034AF1E7C046B063041077
:102A2000C06304105496041070B52B4B2B4A1A60E7
:102A30002B4B2C4A1A602C4B9A682A4B9343FAD1A1
:102A40002A4C01E008CC9847294B9C42FAD3FFF767
:102A500073FE234B274A1A60234B9B68DB43DB0141
:102A6000FAD1254B40229A675A671A67DA66234CD7
:102A700009E0234B234A87212348FFF7B7FF2000B3
:102A8000FEF7A8FB0834214B9C4209D22368002B97
:102A9000F5D0012BEDD12000FEF7A9FB0834F2E7B9
:102AA0001B4CA1681B4DC022280002F0A9F9A560AB
:102AB000EFF30583002B00D000BEFEF75BF9FEF7B5
:102AC00073FBFEF7E3FE144C01E008CC9847134B70
:102AD0009C42FAD370BDC04600E00040BFCDFBFE73
:102AE00000F00040FE7F3C0000C00040681D002058
:102AF000781D0020FFFFFF0100F00140601D002055
:102B0000F06304108064041010640410681D002039
:102B100000ED00E000000020781D00209C1D00203A
:102B20000FB400B583B0084802F018FB049B002BDB
:102B300007D005A90191180002F020FB034802F01C
:102B40000DFB0120FFF72CFF7064041054A2041049
:102B50009A4200D288547047704710B5002802D0BE
:102B60000B684968984710BD0100002007E083000A
:102B70001B185B00501C08601078C01830380A68B9
:102B80001378303BDBB2092BF1D97047F0B5DE4644
:102B900057464E464546E0B583B093461F000C9B12
:102BA0009A460D9C0E9B99460F9B9B0703D0B846F7
:102BB0000F00060022E00192A34688464E46B94621
:102BC0000700B44207D2551C4B4641462020B84767
:102BD00001342A00F5E73D004F465C46019B9B46C9
:102BE000B1464646B84637002E0007E0013C551C6A
:102BF0005346185D43463900B0472A00002CF5D1F2
:102C000035003E0047460F9B9B0707D4100003B0DA
:102C1000F0BCBB46B246A946A046F0BDB0464E4603
:102C2000B9462F005D46531BB342EFD2541C4B46AE
:102C300041462020B8472200F5E7F0B5CE4647468A
:102C400080B585B0944698460C9D0D9C0EAB1B78C4
:102C50009946109A119B129EB7071CD4002B0CD0DA
:102C6000F7070AD54F46002F02D10C37374204D060
:102C7000013B02E030272F550134944201D21F2C32
:102C8000F8D9F70707D59C4205D21F2C03D8302767
:102C90002F550134F5E7F70615D5770505D4002C37
:102CA00003D0944224D09C4222D00F9A102A2BD0D9
:102CB0000F9A102A30D00F9A022A35D01F2C02D832
:102CC00030222A5501341F2C05D84A46002A31D01B
:102CD0002D222A5501340396029301940095434610
:102CE0006246FFF753FF05B0C0BCB946B046F0BD21
:102CF000621E012C06D00F9F102F01D01400D4E7C4
:102D0000023CD2E71400D0E7B206D1D41F2CCFD8B2
:102D100078222A550134D1E7B206CCD51F2CCAD867
:102D200058222A550134C9E71F2CC7D860322A55CA
:102D30000134C3E7720703D52B222A550134CAE7B1
:102D40003207C8D520222A550134C4E7F0B5DE4643
:102D500057464E464546E0B593B081468A460892AE
:102D600009931CAB10CB1B789B461E9D219B98465C
:102D7000002C03D1102342469A4390468023DB0067
:102D800046461E4042461A4212D0002C22D000264F
:102D90000EE03033D9B2771C0AAB995529002000D8
:102DA00000F0F8FFAC4216D31F2F14D83E000400E9
:102DB0002900200000F0EEFFCBB2092BE9D94246F2
:102DC000920605D54121C918C9B20A39C9B2E2E74C
:102DD0006121F8E7270043460693209B05931F9B3C
:102DE000049303955B46029301970AAB0093099BFA
:102DF000089A51464846FFF720FF13B0F0BCBB4687
:102E0000B246A946A046F0BDF0B5DE4657464E464E
:102E10004546E0B595B0089009910A920B931E9E25
:102E20001F9C20AB1B789B46229B9946239D269B8B
:102E30009A463300234303D1103352469A439246B5
:102E40008023DB0057461F4052461A4219D03300F8
:102E500023432DD0002714E03033DAB27B1C984690
:102E60000CABDA554A462B003000210000F0D0FFB1
:102E7000A5421FD819D043461F2B1BD84746060032
:102E80000C004A462B003000210000F0C1FFD3B2F5
:102E9000092BE1D95246920605D54122D218D2B269
:102EA0000A3AD2B2DAE76122F8E7B145E3D901E0A4
:102EB0000023984653460693259B0593249B049331
:102EC0004B4603935B460293434601930CAB00933E
:102ED0000B9B0A9A09990898FFF7AFFE15B0F0BC52
:102EE000BB46B246A946A046F0BD0000F0B5DE469E
:102EF00057464E464546E0B591B083468A460C9209
:102F000098461A9C08941B9D099522002B002000CE
:102F1000290001F010FA002800D0E5E00122524219
:102F2000D74B2000290001F001FA002800D0DBE097
:102F300001225242D34B2000290001F0E1F9002880
:102F400000D0D1E000220023089E3000099D290016
:102F500001F0D6F9002800D0DDE008980999069024
:102F600007918023DB001E9A1A400D921E9A1A4286
:102F700001D106231C930698079904000D000A004E
:102F80000600024300D1D1E0080D4005400DBE4CC3
:102F9000A44660440A03120BBC4B13431F0001F00C
:102FA000DDF9BB4ABB4B01F060F9BB4ABB4B01F0FA
:102FB00035F904000D000022B94B3000390001F052
:102FC00024F9B84AB84B01F050F902000B00200078
:102FD000290001F023F901F0D9F9814601F0BEF989
:102FE00004000D00B14AB24B01F03FF90022B14B91
:102FF00001F014F901F0CAF90600AF4AAF4B200006
:10300000290001F032F904000D00300001F0A6F9AA
:10301000AB4AAC4B01F029F902000B00200029005B
:1030200001F0F3F804000D0002000B0001F01DF99F
:103030000A900B91A44BF31800261F0522002B00C9
:103040002000290001F0EAF80E900F9122002B00D9
:1030500000208021C90501F0D8F804000D000022ED
:103060009A4B0A980B9901F0E2F80022984B01F074
:10307000D5F802000B000A980B9901F0D8F800224D
:10308000944B01F0CBF802000B000A980B9901F069
:10309000CEF802000B002000290001F0BFF802006A
:1030A0000B000E980F9901F0C2F80022774B01F047
:1030B000B5F832003B0001F0D8F806000F0004001C
:1030C0000D00069A079B01F031F9002830D001234A
:1030D0005B429C46E14400227D4B3000390001F008
:1030E000A6F804000D0023E01E9B04931D9B039390
:1030F0001C9B0293089A099B0092019343460C9AE9
:103100005146584600F0FCF811B0F0BCBB46B24640
:10311000A946A046F0BD0023002406930794069616
:1031200080231B069C46654407951AE700239946B1
:103130004B466333C62B1ED804261E9B1B0526D583
:103140002B0023430FD0644A644B0698079901F083
:10315000E5F8002879D00022614B0698079901F024
:10316000CFF8002871D01C9B4B4506DD4A46981AC3
:10317000431E1C9303E00526DFE700231C938023F6
:10318000DB001E9A1A431E920026002399461D9BBF
:103190009E4264D29F1B02231E9A1A400A921E9AD4
:1031A000134202D0002E00D000274B46002B07D040
:1031B00022002B000698079901F039F80690079134
:1031C000002200230898099901F09AF8002848D1B4
:1031D000444B1E9A1340049303971C9B0293069B37
:1031E000079C0093019443460C9A5146584600F0C0
:1031F00087F8002E00D187E71E9B9B063DD545250D
:10320000441C4346020051462800D8474B46DA1773
:103210009B18534005220592013E0496002203921A
:103220000A3202924A46D00F019000934346220090
:1032300051465846FFF78AFD0A9B002B00D163E7F1
:1032400002005F460C9E1D9D54E01C9B002B9ED0EF
:103250000D9B002B9BD01C9B013B1C9397E70027E9
:1032600099E7069C079D22002900802000068446DD
:1032700061440B0006920793AAE76525C0E7C046A4
:10328000FFFFEF7FFFFFEFFF01FCFFFF0000F03FBC
:10329000FB799F501344D33FB3C8608B288AC63F45
:1032A0000000F83F61436F63A787D23F71A379099C
:1032B0004F930A400000E03F1655B5BBB16B02408A
:1032C000EF39FAFE422EE63FFF03000000002C40DB
:1032D00000002440000018402D431CEBE2361A3F4A
:1032E00080842E41FFF7FFFF541C434651462020A7
:1032F000B8472200931BAB42F6D3100004E7C04648
:10330000F0B5DE4657464E464546E0B595B00690C8
:10331000079193469946209F1E9A1F9B1000190003
:1033200001F009F8002831D101225242BF4B1E980A
:103330001F9900F0E5FF002837D101225242BC4B13
:103340001E981F9900F0F2FF00283DD10022B94BD2
:103350001E981F9900F0EAFF002850D10022B64BBA
:103360001E981F9900F0CCFF002848D100220023AE
:103370001E981F9900F0C4FF002850D100239846E2
:10338000229B5B0500D4B6E0002458E0229B039307
:10339000219B029303230193A84B00934B465A466B
:1033A00007990698FFF7F2FB0EE1229B0393219BFE
:1033B000029304230193A24B00934B465A4607996C
:1033C0000698FFF7E3FBFFE00423229A1A402299B4
:1033D0000B4210D09B4B002A0FD00422229903915C
:1033E00021990291019200934B465A4607990698FB
:1033F000FFF7CCFBE8E0944BEDE70322EEE7229BDE
:103400000493219B039302971E9B1F9C009301949E
:103410004B465A4607990698FFF768FDD4E01E9A76
:103420001F9B0020002100F0F0FE1E901F91012341
:103430009846A5E70CAB30221A55013F01341F2CEA
:1034400001D8092FF6D81E981F9900F09FFF05009C
:1034500000F084FF02000B001E981F9900F0D5FEBB
:10346000FA007A4B9B181A685B680A920B9300F07B
:10347000FCFE0890099100F0ADFF060000F06AFF25
:1034800002000B000898099900F0BFFE089009910E
:1034900000226F4B00F04AFF00282ED0013630008A
:1034A00000F058FF02000B000A980B9900F02EFF65
:1034B000002801D001350026002F2CD1280000F073
:1034C0004DFF02000B001E981F9900F09EFE0600A3
:1034D0000F0000225E4B00F013FF002846D10022AF
:1034E0005B4B3000390000F021FF00283ED1EB0794
:1034F0003CD501353AE0062746E70022544B0898B0
:10350000099900F0FDFE0028D6D1002E01D0F30766
:10351000D2D50136D0E7AA461F2C11D8013F0A2187
:10352000300000F037FC651C30310CAB19550A2116
:10353000300000F02FFC092E0ED906002C00EBE71E
:1035400055461F2C0CD87B1E002F09D00CAA302109
:1035500011551F000134F4E72B0055461C00F0E71D
:103560001F2C03D80CAB2E221A5501341F2C10D857
:103570000A21280000F0E6FB661C30310CAB19551F
:103580000A21280000F0DEFB051E01D03400EDE723
:1035900034000323229A1340012B1CD01F2C06D881
:1035A0004346002B32D00CAB2D221A550134229BFE
:1035B0000393219B029301940CAB00934B465A4614
:1035C00007990698FFF7E2FA15B0F0BCBB46B24681
:1035D000A946A046F0BD219B002B13D04346002BEB
:1035E00002D10C3313420FD0219B013B21931900D0
:1035F00003E00CAB30221A5501348C42CED21F2C82
:10360000F7D9CBE72199F8E72199F6E7229B5B07E9
:1036100004D50CAB2B221A550134C8E7229B1B079B
:10362000C5D50CAB20221A550134C0E7FFFFEFFFD0
:10363000FFFFEF7F65CDCD4165CDCDC19C6404100A
:10364000A06404109464041090640410886604104C
:103650000000E03FF0B5DE4657464E464546E0B531
:1036600093B082468B4690461193002900D1EBE23D
:1036700000275546119B1878002800D1E7E225283D
:1036800009D07C1C43463A005946A847119B013398
:1036900011932700EEE7013311930024119A11785A
:1036A0000B00203BD8B2102803D88300D048C35861
:1036B0009F460B00303BDBB2092B2CD92A292FD097
:1036C00000230A93119B1A782E2A39D000239A4698
:1036D000119A1378683BD9B2122976D88B00C54964
:1036E000CB589F4601231C4301321192D6E7022397
:1036F0001C4301321192D1E704231C430132119281
:10370000CCE708231C4301321192C7E710231C4366
:1037100001321192C2E711A8FFF726FA0A90D1E709
:103720001C9B1A1D1C921868002804DB0A90119B30
:1037300001331193C6E702231C4343420A93F6E781
:103740008022D20014435A1C11925A781300303B45
:10375000DBB2092B04D92A2A07D000239A46B7E7FF
:1037600011A8FFF701FA8246B2E71C9B1A1D1C92B2
:103770001868002804DB8246119B01331193A7E7E8
:103780000020F8E780235B002343511C11915278FD
:103790006C2A01D01C0018E0C0239B001C4301319F
:1037A000119112E080232343511C11915278682A11
:1037B00001D01C0009E0C0231C430131119104E039
:1037C00080235B001C4301321192119B1878030087
:1037D000253BDAB2532A00D92CE29300864AD3580B
:1037E0009F4680239B001C4301321192EDE780230A
:1037F0005B001C4301321192E7E7782809D0582872
:1038000038D06F2838D0622838D010239C430A263D
:1038100000E01026582833D0692803D0642801D04E
:103820000C229443630501D50122944369282AD0D0
:10383000642828D0A30500D59FE0E30500D5B8E0B3
:10384000630600D4CAE01C9A111D1C911168FF2266
:103850000A4005940A9B049353460393029600235F
:103860000193009243463A0059462800FFF76EFA4A
:10387000070027E01026CDE70826CBE70226C9E798
:1038800020221443C8E7A30520D4E30550D46306DF
:1038900066D51C9A111D1C911168FF220A40D3178E
:1038A000D118594005940A9B0493534603930296FA
:1038B000D20F0192009143463A0059462800FFF783
:1038C00045FA0700119B01331193D3E61C9BDA1DC7
:1038D00007218A43110008311C91116853689C46E6
:1038E000DB170C930D930C9A0D9B100048400E9023
:1038F000624653400F930E980F990C9A0D9B801AB5
:1039000099410E900F9108940A9B07935346069392
:103910000496002305936346DA0F0292009001910A
:1039200043463A0059462800FFF76EFA0700C9E7F8
:103930001C9A111D1C911268D317D1185940059477
:103940000A9B0493534603930296D20F019200916F
:1039500043463A0059462800FFF7F8F90700B1E757
:10396000230605D51C9A111D1C910023D25E96E7F3
:103970001C9A111D1C91126891E71C9BDA1D0721EE
:103980008A43110008311C9108940A9B07935346FF
:1039900006930496002305930293136854680093DA
:1039A000019443463A0059462800FFF72DFA0700D4
:1039B00088E71C9A111D1C9105940A9B0493534699
:1039C00003930296002301931368009343463A0041
:1039D00059462800FFF7BAF9070073E723060DD50B
:1039E0001C9A111D1C9112681204120C31E7C0467A
:1039F000A8640410EC640410386504101C9A111DAE
:103A00001C91126825E746281AD01C9B0733072211
:103A100093431A0008321C9204940A9A0392524665
:103A200002925C681B680093019443463A00594631
:103A30002800FFF765FC0700119B0133119319E67D
:103A400020231C43E1E7672801D0472802D18023C7
:103A50001B011C43452801D0472801D120231C43CA
:103A60001C9B0733072293431A0008321C920494CC
:103A70000A9A0392524602925C681B680093019472
:103A800043463A0059462800FFF730FA0700119BD9
:103A900001331193EEE502231A002240924623429D
:103AA0001FD001241C9B1A1D1C927A1C9146187869
:103AB00043463A005946A8475346002B16D1119B5E
:103AC000013311934F46D5E5561C434659462020F5
:103AD000B847230032005C1C9D42F5D83D0017001A
:103AE000E0E701233A002F000A9DF4E74A46A94681
:103AF0000A9D06E0571C434659462020C84734001B
:103B00003A00661CA542F5D84D469146D7E71C9B66
:103B10001A1D1C921B6899465346002B00D1013B8D
:103B20004E4601E0013613003278002A02D05A1EB8
:103B3000002BF7D14B46F21A10928023DB002600AF
:103B40001E401C4203D0524501D953461093022314
:103B50001A0022400B92234205D03A0037004C460F
:103B6000A946554620E03A00109B5F46B3462E001A
:103B700006E0551C434639002020B04723002A00A8
:103B80005C1C0A999942F4D835005E46BB461094F5
:103B900037004C46A946554606E01D000134561C28
:103BA00043465946C84732002078002804D0002FE9
:103BB000F4D06B1E002DF0D117004D460B9B002B4F
:103BC00003D1119B0133119354E50A9F109B06E02A
:103BD000561C434659462020A847230032005C1C4F
:103BE0009F42F5D81700ECE721231C431C9B1A1DAC
:103BF0001C921B6800930594082304935346039377
:103C0000102302930023019343463A0059462800AB
:103C1000FFF79CF80700119B013311932AE57C1CE8
:103C200043463A0059462520A847119B013311937A
:103C300027001FE57C1C43463A005946A847119BC4
:103C400001331193270015E50A4B9A4610E5AA4661
:103C5000474502D343465A1E00E03A0043465946C0
:103C60000020D047380013B0F0BCBB46B246A9468E
:103C7000A046F0BD592B00100EB410B585B0010060
:103C800007AC08CC03940122009452420348FFF78A
:103C9000E1FC05B010BC08BC03B01847512B001064
:103CA00000B583B0009313000A0001000248FFF73B
:103CB000D1FC03B000BDC046512B001000B585B04B
:103CC000029003910121009313004A4202A9024885
:103CD000FFF7C0FC05B000BD5B2B001001480421BC
:103CE000014B1847801200200D3D001010B5010057
:103CF00018231B8814221088984710BD10B50100A6
:103D000018231B8816221088984710BDF0B5C646A8
:103D100000B507000E0000250123984600E001359C
:103D2000B5420AD2AC003C192068FFF7DFFF2060E3
:103D30000028F4D100239846F1E7404680BCB846FD
:103D4000F0BD0000124A936F9B0815D29066D166B1
:103D5000002905D0FFE7FFE7FFE7516F106F7047BD
:103D600004B580210906C2175140002800D0C8437D
:103D700041F0A2FC002104BDF0B5146E556E576FE2
:103D8000166FFFF7E3FF1466556657671667F0BDB9
:103D9000000000D0114A936F9B0813D21066516641
:103DA000002905D0FFE7FFE7FFE7516F106F70476D
:103DB00004B5002801D00020C04341F07DFC002163
:103DC00004BDC046F0B5146E556E576F166FFFF701
:103DD000E5FF1466556657671667F0BD000000D012
:103DE00094464A4A926F9208624601D228E0C04641
:103DF000F0B5464E346E756E776F366F00F020F872
:103E00009446424A14665566576716676246F0BD87
:103E100094463E4A926F9208624601D254E0C046F0
:103E2000F0B53A4E346E756E776F366F00F04CF821
:103E30009446364A14665566576716676246F0BD63
:103E4000002B24DB11D000293EDA00B5C9434042E3
:103E500000D1013100F038F8C943404200D10131AE
:103E6000DB43524200D1013300BD002AEBD10028D0
:103E700001D1002905D00020C90FC90701D1C043D5
:103E8000410800B541F0F0FB0022002300BD00B561
:103E900000290ADBDB43524200D1013300F014F861
:103EA000C943404200D1013100BDC943404200D165
:103EB0000131DB43524200D1013300F005F8DB430E
:103EC000524200D1013300BD002923D1002B18D16B
:103ED000002A0CD0BC460D4F38667A6600210023BC
:103EE000FFE7FFE7FFE77A6F386F67467047002804
:103EF00001D00748010000B541F0B6FB00220023C5
:103F000000BD02000B00002000217047000000D01F
:103F1000FFFFFFFF002B00D0BFE0130C28D1002AC9
:103F2000E7D080B4114F39667A66FFE7FFE730B417
:103F3000040C7B6F396F1B0423433B667A66FFE7F3
:103F4000FFE7FFE7C04684B27B6F3D6F1B0423434E
:103F50003B667A66FFE7FFE7C04600232C042D0C82
:103F60007A6F386F00196941B0BC7047000000D00B
:103F7000F0B594460025140E01D112020835140F35
:103F800001D112010435940F01D192000235D40FF2
:103F900001D152000135D40B0134254F7C66254CEC
:103FA0003C660E0C93B2FFE7FFE7FFE73C6F66430A
:103FB000360C7703BE467343DF0B5B04C01AB9416E
:103FC000130C7343DB18C91ACE086643360CB6448B
:103FD00093B273431F0F1B01C01AB941130C7343F3
:103FE0001F0B1B05C01AB941860D8F023E43664365
:103FF000360C092D24DB520A7243801A7703460AD5
:104000006643360C16235B1BDE40DF40BF19644657
:104010006643821B7046043506330100D940A84030
:10402000C01900D30131A24206D20023F0BD000026
:10403000000000D0FFFFFFFF121B0130F3D3F1E7B8
:1040400009277F1BFE406446A2B27243801A00D249
:104050000139220C7243130C1204821A99410B008D
:104060007046043513370100F940A840801900D389
:104070000131002B02D1A2420AD2F0BD013000D39F
:104080000131121BFAD2013BF8D1A24200D2F0BD9D
:10409000013000D30131121BF7E7F0B51C0C00D042
:1040A00080E00CB400251C0A04D11B02160E334319
:1040B000120208351C0B04D11B01160F33431201E9
:1040C00004359C0B04D19B00960F334392000235BC
:1040D000DC0B02D192185B4101351C00971864413A
:1040E0000134464F7C66464C3C660E0CFFE7FFE70A
:1040F000FFE7C0463C6F6643360C7703BE4697B277
:104100007743C01B00D20139C01B00D201399FB2D6
:104110007743C91BC91B170C77437E04FF0B801B19
:10412000B941CE086643360C0C2D33DBB644120B76
:104130001F053A431B0B97B27743C01B00D20139CE
:104140009FB27743C91B170C77433E043F0C801B7B
:10415000B941860D8F023E43664329277F1BFE40EF
:104160000C3D7746AF40BF1930BCA2B2ABB2724330
:104170007343801A9941220C7243130C1204801A63
:10418000994102000B000137001BA941F9D2781EAA
:104190000021F0BD0C277F1BFE4077467F0BAF4010
:1041A000FF19E0E700245D1C07D0144F7D663966D7
:1041B000FFE7FFE7FFE7FFE73C6F95B29EB265437D
:1041C0006643401BB141150C1E0C65436643360423
:1041D0002F0C3E432D04401BB141994204D20200F2
:1041E0000B0020000021F0BD01D19042F7D3801ACE
:1041F000994101349942F2D3F6E70000000000D063
:10420000FFFFFFFF48404140484018B41B4B5B682C
:10421000FC46019308BD04DF7745001018B4174B26
:104220001B68FC46019308BD00DF814500109446E1
:10423000134A926F920809D2624618B40F4BDB689A
:10424000FC46019308BD0CDF394800100C4AF0B55C
:10425000146E556E576F166F6246FFF7EEFF084AF1
:104260001466556657671667F0BD18B4034B9B6814
:10427000FC46019308BD08DFDD4600102C36002007
:10428000000000D0FFB550404240504059404B40E4
:10429000594000E0FFB5154F4C00640D03D0BC42FF
:1042A00004D10C0314D80020090D09055C00640D2D
:1042B00003D0BC4204D11C030AD800221B0D1B05ED
:1042C00001264B4009D44B4003D58B4200D182429A
:1042D000FFBD9942FCD19042FFBD0B43DB18034365
:1042E0001343F5D0C9434918FFBD0000FF07000084
:1042F00000B5FFF7CFFF01D0002000BD012000BDB9
:1043000000B5FFF7C7FF804100BDC04600B5FFF70D
:10431000C1FF01D9002000BD012000BD00B5FFF79D
:10432000B1FF01D9002000BD012000BD00B5FFF79D
:10433000A9FF804100BD012040054A00121804D8A1
:104340005A00121801D80020704701207047002041
:10435000704700000021002805D17047C117484070
:10436000401AFAD0C90713B5064B1B6898470CBC16
:10437000441CA2401005120B0349091B09051943EF
:10438000114310BD2C3700201F04000010B54C0055
:10439000620D8023D218DB00D21A5B057E2A10DD65
:1043A0009E3A13DACC170903490819435242D14007
:1043B000640001341532202A05DAD04008436043F6
:1043C00010BD002010BD0846604310BDC80FC018C6
:1043D000013810BD18B4044B5B6AFC46019308BD5C
:1043E00024DFE949001000002C36002018B4044BEB
:1043F000DB6DFC46019308BD5CDFF54A0010000050
:104400002C360020C94211D300B5490049080022CA
:1044100000F018F8002904D4002240428A411146D5
:1044200000BD80210906002000BD000018B4044B27
:10443000DB6EFC46019308BD6CDFF74900100000FD
:104440002C36002018B4044B9B6FFC46019308BD2A
:1044500078DF134A001000002C36002018B4044BFB
:10446000DB6FFC46019308BD7CDF814A0010000031
:104470002C36002070B513231C78012C14D0012C8D
:1044800014DC022C02DC1F4A1F4B9A641F48FFF702
:104490002DFC1F4B186070BD99001A481A4A8850AD
:1044A00001331F2BF8D9EAE70023FAE71948FFF791
:1044B00025FC05001848FFF721FC023803789B0013
:1044C0007F2B19DD802229000F4800F099FC022C77
:1044D000D7D1124B1A88B5231B029A4209D1104B2F
:1044E0001A88104B9A4204D10F4B1A880F4B9A42EC
:1044F000C7D00020FEF714FB0D4B0E4A32210E48A8
:10450000FEF774FA3D4500102C3600204C330000B5
:104510002C3700205344000053460000543800005C
:10452000D8380000494600009C3800005946000079
:10453000D8660410906704102C67041007B5604615
:10454000002800D100BE01880A0A0230DF2AFAD111
:10455000C9B2820804D3028840880004104300E0F6
:104560000068024A5050039007BD00002C3600201E
:104570000FB403BC0CBCF0B50124E407634000E0B9
:10458000F0B50C0DCF0F661E3605891B640503D3ED
:10459000C943404200D30131640D03D0661CF60AC2
:1045A00007D0E41B00207F00791C89078912803C1A
:1045B00024031D0DDF0F6E1E36059B1B6D0503D3F7
:1045C000DB43524200D301336D0D03D06E1CF60A5B
:1045D00007D0ED1B00227F007B1C9B079B12803DB8
:1045E0002D032F1B661B58D4A446202E46DA2037F5
:1045F0001400BC401D00BD40F24033412A438018E6
:104600005941CB0F05D0C943C043002264425041F9
:10461000514162464D0D28D10D0D07D100281FD004
:10462000241940414941013A0D0DF9D0640006D3E7
:10463000013000D30131002C01D140084000013A83
:104640000BD4941CE40A04D112051144DB0719446D
:10465000F0BDD907204B194300E0D9070020F0BD79
:104660000029DDD1002CDBD1F0BD0132C6074008A6
:10467000CD0728434908002EE1D0D9E73C2E29DA9E
:10468000203E40371400BC4000D00124F2401443C7
:104690001A00BB401C43D317ACE7AC46202F08DA06
:1046A00020360400B4400D00B540F840394128439D
:1046B000A5E73C2F0CDA203F40360400B44000D080
:1046C0000124F84004430800B1400C43C117EAE755
:1046D00010001900002494E70000F07FF0B50C0DE5
:1046E000661E3605891BE60A6405640D02D0651C4A
:1046F000ED0A04D0002001210905803C2403A446D2
:104700001C0D671E3F05DB1BE70A6405640D02D024
:10471000651CED0A04D0002201231B05803C240304
:104720007740644497B484B296B27443070C7E43D6
:10473000150C6F4380B26843361802D30120000481
:104740003F183004350C00197D41844688B29AB276
:1047500050430C0C62431F0C7C438EB27E43921973
:1047600002D301263604A4191604170C3618674123
:1047700001BC81B29AB25143040C62431B0C5C43EE
:1047800080B25843121802D30120000424181004E8
:10479000130C401863412D185E410020474106BCB0
:1047A00088B293B258430C0C6343120C544389B241
:1047B00051435B1802D301210904641819041A0C2F
:1047C000091862416D1856410020474118BCF90292
:1047D000720D1143F0026A0D1043ED020A0D03D170
:1047E0006D1940414941013B124E9B1B7600B3427B
:1047F0000ED26D0007D30130002671416646354365
:1048000001D1400840001B05C918E4072144F0BD50
:104810000BDA013306D1013004D101314F0D01D043
:104820004908F2E7E1070020F0BD0136310500201C
:10483000EBE70000FF030000F0B51C0D671E3F050D
:10484000DB1BE70A6405640D02D0661CF60A04D07F
:10485000002201231B05803C2403D0252D060026C1
:10486000F6432E661E096E66CE0FF619B446490051
:104870004F0D02D07E1CF60A03D000200021403FDD
:104880003F033E1BB600B444013F7F05C91B4908E6
:104890002E6F013676089C02950D25437543ED1366
:1048A0007543AD1301356D10F603761B0CB4CC02C5
:1048B000450D2C43A2B2B3B25A43270C7B43350CAF
:1048C0006F43A4B26C431B1902D3012424043F1983
:1048D0001C041D0CA4187D4124196D41009A91B24D
:1048E000ACB26143170C7C432B0C5F4392B25A432A
:1048F000A41802D301221204BF182204230C521858
:104900007B41019C6C431B19520ED9010A4344019F
:10491000A01A81B2B2B2514303145A43360C734306
:1049200087B27743D617D21900277E4136049B19E8
:104930001704160C7F185E417316ED18F30100265C
:1049400080337541A90F06D16400690AE8055B0A46
:10495000184309D22FE00422944480337541A90AF8
:10496000A8059B0A184326D3404149412404009AD4
:10497000019B0D005543641B4343E41A95B286B274
:104980007543170C7E43030C5F4392B25A43B6182B
:1049900002D301221204BF183204330C52197B4196
:1049A00052429C41002C02D4002201305141400867
:1049B000CA071043490802B06246D7079210084B55
:1049C000D218084B9A4203D212058918C919F0BDB2
:1049D0000020002A01DC3900F0BD01331905F5E79C
:1049E000FD030000FE070000002200B5203200F0A9
:1049F00010F8080000BD002200B500F00CF8CA173E
:104A00009A4200D100BDD8430121C907414000BDF1
:104A100000220B150AD410B5944600F0A7F8141420
:104A2000013400DA0021CB17144C2047002000216C
:104A300070476244343A0CD40C2A07DA04009140DF
:104A4000904052422032D440214310BDD843D94334
:104A500010BD203207D40C469440524220321141FE
:104A6000D040204310BD0800C917203203D4524261
:104A70002032104110BD1800190010BD334A00103B
:104A80004A00520D144BD21A13DDFF2A1EDAD2054A
:104A9000CB0FDB071A43C300400F0903490A084341
:104AA00010435B0001D301D0013070474308FBD2B3
:104AB000704702D0C80FC00770470A0312130132B3
:104AC000F8D1420F072AF5D1012200E0FF22C80FDA
:104AD00000028018C00570478003000000210A0012
:104AE000002104E000210A00C11704E00022002395
:104AF00006E0C0460022CB1758405940C01A9941E1
:104B000030B5184CA21A002903D1010010D00020A2
:104B1000203A4C1512D104D2013A001849414C0DEB
:104B2000FAD3114CA24204D212058918DB07C91826
:104B300030BDD243520D00200021F5E703D4013AE5
:104B400000184941FBD50B324405C00A4D052843E6
:104B5000C90A640003D0002460416141E1E7E0D369
:104B60004408F8E732040000FE0700000A0DCC0FED
:104B7000531E1B05C91A520503D3C943404200D333
:104B80000131520D03D0531CDB0A07D0121B002049
:104B90006400611C89078912803A1203014BD21A02
:104BA00070470000FF03000051434343C9188C467F
:104BB000110C83B24B4310B4040C614392B280B227
:104BC000504362431C041B0C001910BC59411304D0
:104BD000120CC018514161447047000007B54840AD
:104BE0004140484001E0C04607B54200120E03D0E4
:104BF000FF2A03D1420218D8C00DC0054A00120E88
:104C000003D0FF2A03D14A020FD8C90DC9050122DA
:104C1000414005D4414001D5814207BD884207BDCE
:104C20000143491801D0C043001807BD00B5FFF784
:104C3000DBFF01D0002000BD012000BD00B5FFF763
:104C4000D3FF01D9002000BD012000BD01231B06B8
:104C50004200D21804D84A00D21801D80020704768
:104C60000120704770B513231D782A48FFF746F8D6
:104C70000400012D11D0012D09DDA31E1B789B001E
:104C80007F2B40DD80222100234800F0B9F8234823
:104C9000FFF72CF8224B186070BD542201001E480B
:104CA00000F0AEF81F4B1A881F4B9A421CD1A72365
:104CB0009B011A881D4B9A4216D11D4B1A881D4B19
:104CC0009A4211D11C4B1A8894239B019A420BD112
:104CD0001A4B1A881A4B9A4206D11A4B1A681A4B69
:104CE0009A4201D1152307E01848FDF719FF9900F2
:104CF0001748094A885001331F2BF8D9144A064B2C
:104D00001A62DA61B7E7134B134A42211348FDF7E1
:104D10006DFEC04653460000303700204C33000083
:104D20002C370020EE290000C40F0000C20D000047
:104D3000962B0000C0B50000182B0000CC2A000004
:104D400010B50000FC2C000051ED8764549604104F
:104D5000614D0010A46704103C680410D86704106B
:104D600007B56046002800D100BE01880A0A02305B
:104D7000DF2AFAD1C9B2820804D30288408800042D
:104D8000104300E00068024A5050039007BD000045
:104D90003037002010B5040033F0DAF9002804D0D1
:104DA0000419034B9C4200D810BD0248FDF7B8FE21
:104DB000000004205068041010B50C0033F042FECF
:104DC000002804D00419034B9C4200D810BD0248AF
:104DD000FDF7A6FE000004205068041010B533F063
:104DE000C1F910BD01480421014B18479012002061
:104DF0000D3D0010014B1B68184700009012002069
:104E0000014B5B68184700009012002010B5FFF7B7
:104E1000C1FF10BD10B5FFF7BDFF10BD10B5FFF706
:104E2000DDFF10BD10B5FFF7D9FF10BD10B5FFF7BE
:104E3000D5FF10BD10B50300080011001B6898478E
:104E400010BD0000F8B507000D001600437D002BD3
:104E500002D0002400200CE00368110028009847CD
:104E60002DE03B7D10E0022115483B689847601C0F
:104E70000134B44214DA002CF3DD2B19013B1B780A
:104E80000D3B5A425341DBB22A5D0A2AF0D1002B76
:104E9000EED1A042E7DA211A28183B689847E2E7EA
:104EA000B04203DA311A28183B689847002E06DD15
:104EB000AD19013D2B780D3B5A4253413B75F8BD6E
:104EC000F068041070B505000368002B16D00C4B79
:104ED0001C6805E0290004C92000FFF7B3FF24691E
:104EE000002C09D02368002BF9D0064B1B68002B3F
:104EF000F0D0A342F3D1EDE700232B6070BDC04694
:104F0000043600200C36002070B505000C000B683C
:104F1000802B05D021684B1C23606418257170BD5F
:104F20000800FFF7CFFFF5E7F0B583B007000E00EC
:104F30000092019328E0A368002B04D031003800D0
:104F40009847002827DC2469002C06D0134B1D68E5
:104F5000002DF0D0A542F6D1EDE70099019A104B53
:104F60005B6A9A4209D80E48806A88420FD29A42F8
:104F700001D0012302E0002300E00023002B08D130
:104F800001200021FCF766FF064B1C68DCE70123CB
:104F9000F4E70120404203B0F0BDC0460C360020CB
:104FA000004005400436002010B5FCF733FF020036
:104FB0000B1E0BDB0D48002112184B41002B0BDBA5
:104FC000002B0DDB0A4840F09FFB10BD094B0A4A3D
:104FD0003F210A48FDF70AFD01225242084BEFE744
:104FE000044B054A3F210548FDF700FD40420F00F4
:104FF000601D002064570410D8680410B8570410CE
:10500000FFFFFF7F10B5024840F026FB10BDC046F1
:10501000601D0020F0B5CE46474680B583B006003F
:105020000D0090461C00FFF7BFFF81466B1C05D0AA
:10503000002C08D0194F1A4B1C6807E0300034F0E0
:10504000F3FF0500F4E7174FF5E72469002C17D0AC
:105050002368002BF9D0144B1B68002B01D0A3420E
:10506000F3D12A0031002000B8474346002BECD092
:105070006B46D91D0A230B7001222000B847E4E7D4
:105080004B46002B07D16B1E9D41E8B203B0C0BC5C
:10509000B946B046F0BDFFF7B5FFF4E7354E001056
:1050A00004360020454E00100C36002010B50300D9
:1050B00008001100002B05D1044B1A685B68FFF74C
:1050C00033FF10BD01204042FBE7C046E85F0410FB
:1050D00010B5030008001400013B012B06D8002383
:1050E00000222100FFF796FF200010BD0120404262
:1050F000FBE70120404270470120404270470120F9
:10510000404270470300002002229A42404170470B
:10511000094A01E010331A001368002B08D08342BB
:10512000F8D1002907D1036913600023036102E06D
:10513000002900D0106070470436002010B5064BDF
:105140001C6801E098472469002C03D06368002B99
:10515000F8D1F8E710BDC0460436002070B5050050
:1051600034F062FF04000023012201002800FFF751
:1051700051FFFFF7E3FF200070BD000070B5A2B043
:1051800004000E00FFF710FF050000230193330019
:10519000220001A90848FEF791FD040001A8FFF7CD
:1051A00091FEFFF7CBFF002D02D1200022B070BD91
:1051B000FFF728FFF9E7C046094F00100FB400B50C
:1051C00083B004A901C90191FFF7D8FF03B008BC5F
:1051D00004B0184710B500F0F9F8012010BD000028
:1051E000F0B583B005000E0000240FE06B46D91D1A
:1051F0000D230B700020002816D193699B06FCD468
:105200000B78136001300131F5E70134B44219DA4B
:105210000D4B1A682F5D0D4BD31859424B415B0063
:105220000B495B5EBB42E1D06B46D91D0F7000207D
:105230000028EAD193699B06FCD40B7813600130F7
:105240000131F5E703B0F0BD483800200080FCBF15
:1052500044380020F0B583B006000F00002504E0BC
:105260006B4607331B782B702500BD4215DA174BB0
:105270001A6893691024210019401C420DD16C1C3E
:1052800075196B46D81D0029EAD19369DB06FCD459
:105290001368037001310130F5E70D4B1B68002BDB
:1052A0000CD00A4B1A685023936311003431536BAE
:1052B00038221A4080235B010B431A60002D02D074
:1052C000280003B0F0BD033DFAE7C046483800208F
:1052D0009435002010B5064B1B68002B06D0054AFC
:1052E000126800219163044A1068984710BDC046B7
:1052F00094350020483800209835002070B504000F
:105300000E001C4B1B681C4A981842425041143036
:105310000500002C03D0194A1268002A06D0002C80
:1053200019D0164B1C60164B1E6070BD1549FBF75B
:10533000C3FD01212800FBF7AFFD0E4B1A68502377
:10534000936311003431536B38221A4080235B0180
:105350000B431A60E5E7094A1268002AE1D00022EF
:105360009A6300212800FBF797FD06492800FBF708
:10537000CDFDD6E7483800200080FCBF94350020E2
:1053800098350020D552001070B50D001C000D4B53
:105390001860002A0BDA002C0EDA0A4B1868290074
:1053A000FDF706F901210848FFF7B2FE70BD0221A2
:1053B0001000FBF781FCEEE702212000FBF77CFCEC
:1053C000EBE7C04648380020A012002010B5064B7D
:1053D0001B78064B1B78E121012300224902044877
:1053E000FFF7D2FF10BDC046042A0510082A051099
:1053F00000400340F0B5DE4657464E464546E0B510
:1054000083B0824688460620FDF716FA53465B684D
:10541000022213400193042353449B46C0239B0163
:1054200059460B431A6002248146474600E02C008F
:10543000FE2C1FD84B4600930026A51C28023A00DC
:1054400000230021FFF7B0FB002903D1B142EED1C8
:105450004845ECD94E46B84680256D00012D0ED941
:105460006F1E210079433000FEF794FC404506D8BA
:105470003D00F3E74E46B84680256D00EEE7534603
:105480001C616B1E1B02524612685340FF2212021F
:1054900013408020400152461043036080239B014B
:1054A0005A461343019A1A60290061433000FEF7FF
:1054B00071FC03B0F0BCBB46B246A946A046F0BDA5
:1054C00070B50400174B984228D080229202164BE8
:1054D0001A60164B1A60164B9B6810009843FAD15D
:1054E0002000FFF787FF656802210D40231DC022C1
:1054F00092011A431160266807227240CF26164097
:1055000080225201224316608022920113431D60C3
:105510002434144303222260196070BD8022520299
:10552000D5E7C04600C0034000E0004000F0004066
:1055300000C00040F0B5DE4657464E4645460122C3
:10554000E0B5DF4F00243800DE4B83B01A70DE4B2D
:105550007C6098461B681C309D68DC4BBC603B60DF
:10556000FC603C617C61BC619B4601F0E7F8D84B74
:10557000D84E9A463B6001235B4299467B62434684
:105580001B683D625D6830005B4674603360B460E8
:10559000F46034617461B4611C3001F0CFF853469B
:1055A00033604B46736243463562CB4D5A46280002
:1055B0001B682A60DB686C60AC60EC602C616C611D
:1055C000AC611C30019301F0B9F8019B52462B628B
:1055D0004B466B62C14B2A609946180012F04EFE92
:1055E0004B4678221C67043B9C5208329C50043284
:1055F0009C5004329C50DC67B94C390022001432B4
:1056000048461C605A6012F0BFFDB64F380012F0D9
:1056100035FE3B0000227C21083B5A5204315A508F
:1056200004315A5004315A5004315A50AE493800AE
:105630001960143199603A6731005A6012F0A4FD84
:10564000AA4E300012F01AFE00227821331F5A525F
:1056500008315A5004315A5004315A503267B267F7
:1056600022001432290030001C60326012F08CFDE0
:105670009F4E300012F002FE00227821331F5A5252
:1056800008315A5004315A501C60043114345A50B5
:10569000300029003267B267346012F075FD802255
:1056A0009449954B92019967944B954F18695967A6
:1056B00002431A614346002438001B687C609D68E1
:1056C000904BBC603B60FC603C617C61BC611C3009
:1056D0009B4601F033F88C4B8C4E9A463B6001237D
:1056E0005B4299467B6243461B683D625D683000C1
:1056F0005B4674603360B460F46034617461B461BB
:105700001C3001F01BF8534633604B46736243462E
:105710001B683562DB687E4D984628005B466C60EE
:105720002B60AC60EC602C616C61AC611C3001F0F2
:1057300005F853462B6043462B624B466B62754B14
:105740009846180012F09AFD43467C221C675C675D
:10575000043B9C5404329C5004329C5004329C50B4
:1057600004329C506C4C39002200143240461C60BC
:105770005A6012F06DFD694F380012F07FFD3B005A
:1057800000228021083B5A5404315A5004315A50A7
:1057900004315A5004315A506149380019601431AB
:1057A00099603A6731007A675A6012F051FD5D4E98
:1057B000300012F063FD00227C21331F5A54043163
:1057C0005A5004315A5004315A5004315A503267F9
:1057D000726722001432290030001C60326012F01F
:1057E00037FD514E300012F049FD00227C21331F5D
:1057F0005A5404315A5004315A5004315A501C60E2
:10580000043114345A503000290032677267346012
:1058100012F01EFD80224549454B92019967454B88
:105820001869596702431A61434A136801331360C8
:1058300003B0F0BCBB46B246A946A046F0BD2D4B16
:105840003E4A48465A6012F057FD27F0E1FD3C4BB6
:105850003C4A30005A6012F04FFD27F0D9FD354B1D
:10586000384A30005A6012F047FD27F0D1FD304B26
:10587000344A38009A6012F03FFD27F0C9FD2B4BE7
:10588000304A40465A6012F037FD27F0C1FD2E4BDA
:105890002A4A30005A6012F02FFD27F0B9FD174B4D
:1058A000264A30005A6012F027FD27F0B1FD124B56
:1058B000224A38009A6012F01FFD27F0A9FDC04669
:1058C000582E0020B81200204C1300206C960410B3
:1058D000F48B0410082E0020302E002048320020C7
:1058E00044950410A4300020C08D041030310020F5
:1058F000BC310020443200209C3000202C3100209C
:10590000D02E0020AC960410348C0410802E002081
:10591000A82E00208834002074950410D83200206E
:10592000F08D041068330020F83300208434002008
:10593000D03200206433002068300020108D041025
:10594000F4330020208D0410B8310020064A10B531
:1059500013680400591C1160002B01D0200010BDF9
:10596000FFF7E8FDFAE7C04668300020104A10B59E
:1059700013680400591E1160022B01D0200010BDD5
:105980000C481CF093FC0C481CF090FC0B481CF0DD
:105990008DFC0B481CF0C6FC0A481CF0C3FC0A48EE
:1059A0001CF0C0FCEAE727F0CFFE27F007FFE5E791
:1059B00068300020443200202C310020B831002013
:1059C0008434002064330020F43300207047C04644
:1059D00010B50400FFF722FA200010BD044A0B683E
:1059E00012680360934202D01A6801321A6070474D
:1059F000E82F00200160704710B5064C2068002891
:105A000000D010BD20000022034929F00BF92068C6
:105A1000F7E7C046F02F00203469041000487047B3
:105A200034690410416870B50500002916D08368F8
:105A3000002B10D00024354EA2005058002805D06D
:105A400043685A1E4260012B36D0AB680134A34232
:105A5000F2D8002902D00800FFF7E4F9E96800292C
:105A600016D0AB68002B10D00024284EA20050584E
:105A7000002805D043685A1E4260012B24D0AB6831
:105A80000134A342F2D8002902D00800FFF7CAF976
:105A90002B690024002B0DD01859002802D0FFF7E5
:105AA000C1F92B690434182CF6D1002B02D0180050
:105AB000FFF7B8F9280070BD03685B68B3420BD1EB
:105AC000FFF7ACF96968C0E703685B68B34206D1C9
:105AD000FFF7A4F9E968D2E798476968B5E79847FE
